
BLE_SensorDemo.elf:     file format elf32-littlearm

Sections:
Idx Name          Size      VMA       LMA       File off  Algn
  0 .bootloader   00000000  10040000  10040000  00035000  2**0
                  CONTENTS
  1 .intvec       000000c0  10040000  10040000  00010000  2**2
                  CONTENTS, ALLOC, LOAD, READONLY, DATA
  2 .constdata    00000174  100400c0  100400c0  000100c0  2**2
                  CONTENTS, ALLOC, LOAD, READONLY, DATA
  3 .text         0000f3bc  10040234  10040234  00010234  2**2
                  CONTENTS, ALLOC, LOAD, READONLY, CODE
  4 i._aci_gap_set_discoverable_param_check 0000005c  1004f5f0  1004f5f0  0001f5f0  2**2
                  CONTENTS, ALLOC, LOAD, READONLY, CODE
  5 i.aci_gap_init 00000030  1004f64c  1004f64c  0001f64c  2**1
                  CONTENTS, ALLOC, LOAD, READONLY, CODE
  6 i.aci_gap_pass_key_resp 00000018  1004f67c  1004f67c  0001f67c  2**2
                  CONTENTS, ALLOC, LOAD, READONLY, CODE
  7 i.aci_gap_set_authentication_requirement 00000094  1004f694  1004f694  0001f694  2**2
                  CONTENTS, ALLOC, LOAD, READONLY, CODE
  8 i.aci_gap_set_discoverable 00000042  1004f728  1004f728  0001f728  2**1
                  CONTENTS, ALLOC, LOAD, READONLY, CODE
  9 i.aci_gap_set_non_discoverable 00000014  1004f76a  1004f76a  0001f76a  2**1
                  CONTENTS, ALLOC, LOAD, READONLY, CODE
 10 i.aci_gap_update_adv_data 00000010  1004f77e  1004f77e  0001f77e  2**1
                  CONTENTS, ALLOC, LOAD, READONLY, CODE
 11 i._load_uuid  00000026  1004f78e  1004f78e  0001f78e  2**1
                  CONTENTS, ALLOC, LOAD, READONLY, CODE
 12 i.aci_gatt_add_char 0000003e  1004f7b4  1004f7b4  0001f7b4  2**1
                  CONTENTS, ALLOC, LOAD, READONLY, CODE
 13 i.aci_gatt_add_service 00000036  1004f7f2  1004f7f2  0001f7f2  2**1
                  CONTENTS, ALLOC, LOAD, READONLY, CODE
 14 i.aci_gatt_allow_read 0000000c  1004f828  1004f828  0001f828  2**1
                  CONTENTS, ALLOC, LOAD, READONLY, CODE
 15 i.aci_gatt_init 00000008  1004f834  1004f834  0001f834  2**1
                  CONTENTS, ALLOC, LOAD, READONLY, CODE
 16 i.aci_gatt_update_char_value 00000014  1004f83c  1004f83c  0001f83c  2**1
                  CONTENTS, ALLOC, LOAD, READONLY, CODE
 17 i.aci_hal_read_config_data 00000008  1004f850  1004f850  0001f850  2**1
                  CONTENTS, ALLOC, LOAD, READONLY, CODE
 18 i.aci_hal_set_tx_power_level 00000008  1004f858  1004f858  0001f858  2**1
                  CONTENTS, ALLOC, LOAD, READONLY, CODE
 19 i.aci_l2cap_connection_parameter_update_req 00000018  1004f860  1004f860  0001f860  2**1
                  CONTENTS, ALLOC, LOAD, READONLY, CODE
 20 i.BTLE_StackTick 00000084  1004f878  1004f878  0001f878  2**2
                  CONTENTS, ALLOC, LOAD, READONLY, CODE
 21 i.BlueNRG_Stack_Initialization 00000044  1004f8fc  1004f8fc  0001f8fc  2**2
                  CONTENTS, ALLOC, LOAD, READONLY, CODE
 22 i.BlueNRG_Stack_Initialize_ConfigData 00000064  1004f940  1004f940  0001f940  2**2
                  CONTENTS, ALLOC, LOAD, READONLY, CODE
 23 i.BlueNRG_Stack_Initialize_Layers 00000084  1004f9a4  1004f9a4  0001f9a4  2**2
                  CONTENTS, ALLOC, LOAD, READONLY, CODE
 24 i.BlueNRG_Stack_Initialize_RAM_check 0000007c  1004fa28  1004fa28  0001fa28  2**2
                  CONTENTS, ALLOC, LOAD, READONLY, CODE
 25 i.BlueNRG_Stack_Perform_Crystal_Check 000000c4  1004faa4  1004faa4  0001faa4  2**2
                  CONTENTS, ALLOC, LOAD, READONLY, CODE
 26 i.BlueNRG_Start_Crystal_Measurement 0000001c  1004fb68  1004fb68  0001fb68  2**2
                  CONTENTS, ALLOC, LOAD, READONLY, CODE
 27 i._BlueNRG_Stack_Initialization 000000e8  1004fb84  1004fb84  0001fb84  2**2
                  CONTENTS, ALLOC, LOAD, READONLY, CODE
 28 i.GAP_Connection_Complete_Handler 00000068  1004fc6c  1004fc6c  0001fc6c  2**2
                  CONTENTS, ALLOC, LOAD, READONLY, CODE
 29 i.GAP_DiscProcTimeoutcb_ucfg 00000002  1004fcd4  1004fcd4  0001fcd4  2**1
                  CONTENTS, ALLOC, LOAD, READONLY, CODE
 30 i.GAP_Init    000001fc  1004fcd8  1004fcd8  0001fcd8  2**2
                  CONTENTS, ALLOC, LOAD, READONLY, CODE
 31 i.GAP_Init_Context 00000014  1004fed4  1004fed4  0001fed4  2**2
                  CONTENTS, ALLOC, LOAD, READONLY, CODE
 32 i.GAP_LL_Event_Handler_ISR 00000068  1004fee8  1004fee8  0001fee8  2**2
                  CONTENTS, ALLOC, LOAD, READONLY, CODE
 33 i.GAP_LimDiscTimeoutcb 0000002c  1004ff50  1004ff50  0001ff50  2**2
                  CONTENTS, ALLOC, LOAD, READONLY, CODE
 34 i.GAP_Process_Q 00000040  1004ff7c  1004ff7c  0001ff7c  2**2
                  CONTENTS, ALLOC, LOAD, READONLY, CODE
 35 i.GAP_Set_Discoverable_Mode 00000038  1004ffbc  1004ffbc  0001ffbc  2**1
                  CONTENTS, ALLOC, LOAD, READONLY, CODE
 36 i.GAP_Set_Non_Discoverable_Mode 0000002c  1004fff4  1004fff4  0001fff4  2**1
                  CONTENTS, ALLOC, LOAD, READONLY, CODE
 37 i.GAP_check_and_set_role_ucfg 0000001c  10050020  10050020  00020020  2**1
                  CONTENTS, ALLOC, LOAD, READONLY, CODE
 38 i.GAP_discover_peer_name_ucfg 00000002  1005003c  1005003c  0002003c  2**1
                  CONTENTS, ALLOC, LOAD, READONLY, CODE
 39 i.GAP_enable_controller_privacy_ucfg 00000004  1005003e  1005003e  0002003e  2**1
                  CONTENTS, ALLOC, LOAD, READONLY, CODE
 40 i._GAP_Parse_Advertising_Report 00000064  10050044  10050044  00020044  2**2
                  CONTENTS, ALLOC, LOAD, READONLY, CODE
 41 i._gap_set_discoverable_connectable 00000174  100500a8  100500a8  000200a8  2**2
                  CONTENTS, ALLOC, LOAD, READONLY, CODE
 42 i.aci_gap_limited_discoverable_event_push 00000050  1005021c  1005021c  0002021c  2**2
                  CONTENTS, ALLOC, LOAD, READONLY, CODE
 43 i.aci_gap_proc_complete_event_push 00000074  1005026c  1005026c  0002026c  2**2
                  CONTENTS, ALLOC, LOAD, READONLY, CODE
 44 i.advParamsCheckAndSet 00000088  100502e0  100502e0  000202e0  2**2
                  CONTENTS, ALLOC, LOAD, READONLY, CODE
 45 i.gapClearAllModeFlags 00000014  10050368  10050368  00020368  2**2
                  CONTENTS, ALLOC, LOAD, READONLY, CODE
 46 i.setGapAdvData 00000104  1005037c  1005037c  0002037c  2**2
                  CONTENTS, ALLOC, LOAD, READONLY, CODE
 47 i.Find_Gatt_Client 0000003c  10050480  10050480  00020480  2**2
                  CONTENTS, ALLOC, LOAD, READONLY, CODE
 48 i.Build_Notif_Or_Ind 0000003e  100504bc  100504bc  000204bc  2**1
                  CONTENTS, ALLOC, LOAD, READONLY, CODE
 49 i.Check_For_Service_Change 0000034c  100504fc  100504fc  000204fc  2**2
                  CONTENTS, ALLOC, LOAD, READONLY, CODE
 50 i.Find_Attr_Index 00000050  10050848  10050848  00020848  2**2
                  CONTENTS, ALLOC, LOAD, READONLY, CODE
 51 i.Find_Timed_Out_Connection 00000020  10050898  10050898  00020898  2**2
                  CONTENTS, ALLOC, LOAD, READONLY, CODE
 52 i.GATT_Connection_Complete_Handler 00000044  100508b8  100508b8  000208b8  2**2
                  CONTENTS, ALLOC, LOAD, READONLY, CODE
 53 i.GATT_Send_Packet 0000002c  100508fc  100508fc  000208fc  2**2
                  CONTENTS, ALLOC, LOAD, READONLY, CODE
 54 i.GATT_Server_Set_Flag 00000018  10050928  10050928  00020928  2**2
                  CONTENTS, ALLOC, LOAD, READONLY, CODE
 55 i.GATT_TimeOut_Handler 0000001a  10050940  10050940  00020940  2**1
                  CONTENTS, ALLOC, LOAD, READONLY, CODE
 56 i.Gatt_Add_Charac_Desc 00000160  1005095c  1005095c  0002095c  2**2
                  CONTENTS, ALLOC, LOAD, READONLY, CODE
 57 i.Gatt_Add_Characteristic 0000033c  10050abc  10050abc  00020abc  2**2
                  CONTENTS, ALLOC, LOAD, READONLY, CODE
 58 i.Gatt_Add_Descriptor 00000158  10050df8  10050df8  00020df8  2**2
                  CONTENTS, ALLOC, LOAD, READONLY, CODE
 59 i.Gatt_Add_Service 00000160  10050f50  10050f50  00020f50  2**2
                  CONTENTS, ALLOC, LOAD, READONLY, CODE
 60 i.Gatt_Appl_Auth_For_Read 000000e8  100510b0  100510b0  000210b0  2**2
                  CONTENTS, ALLOC, LOAD, READONLY, CODE
 61 i.Gatt_Find_Srv_From_Handle 0000002c  10051198  10051198  00021198  2**2
                  CONTENTS, ALLOC, LOAD, READONLY, CODE
 62 i.Gatt_Find_Srv_Owner_Of_Handle 00000048  100511c4  100511c4  000211c4  2**2
                  CONTENTS, ALLOC, LOAD, READONLY, CODE
 63 i.Gatt_Find_Timed_Out_Connection_Index 00000038  1005120c  1005120c  0002120c  2**2
                  CONTENTS, ALLOC, LOAD, READONLY, CODE
 64 i.Gatt_Flush_Pending_AclPacket_Lists 00000034  10051244  10051244  00021244  2**1
                  CONTENTS, ALLOC, LOAD, READONLY, CODE
 65 i.Gatt_Process_Q 0000019c  10051278  10051278  00021278  2**2
                  CONTENTS, ALLOC, LOAD, READONLY, CODE
 66 i.Gatt_Reset_To_Closed_State 000000fc  10051414  10051414  00021414  2**2
                  CONTENTS, ALLOC, LOAD, READONLY, CODE
 67 i.Gatt_Server_Db_Check 00000038  10051510  10051510  00021510  2**2
                  CONTENTS, ALLOC, LOAD, READONLY, CODE
 68 i.Gatt_Server_Init 00000194  10051548  10051548  00021548  2**2
                  CONTENTS, ALLOC, LOAD, READONLY, CODE
 69 i.Gatt_Server_L2C_Handler 0000021c  100516dc  100516dc  000216dc  2**2
                  CONTENTS, ALLOC, LOAD, READONLY, CODE
 70 i.Gatt_Server_L2C_Handler_ISR 0000004c  100518f8  100518f8  000218f8  2**2
                  CONTENTS, ALLOC, LOAD, READONLY, CODE
 71 i.Gatt_Store_Server_Database_And_Reset_CCCD 00000170  10051944  10051944  00021944  2**2
                  CONTENTS, ALLOC, LOAD, READONLY, CODE
 72 i.Gatt_Update_Charac_Value 00000068  10051ab4  10051ab4  00021ab4  2**2
                  CONTENTS, ALLOC, LOAD, READONLY, CODE
 73 i.Gatt_Update_Charac_Value_Ext 00000390  10051b1c  10051b1c  00021b1c  2**2
                  CONTENTS, ALLOC, LOAD, READONLY, CODE
 74 i.Gatt_fetch_handle 0000003c  10051eac  10051eac  00021eac  2**1
                  CONTENTS, ALLOC, LOAD, READONLY, CODE
 75 i.Gatt_search_handle 0000001e  10051ee8  10051ee8  00021ee8  2**1
                  CONTENTS, ALLOC, LOAD, READONLY, CODE
 76 i.Gatt_search_service_handle 00000030  10051f08  10051f08  00021f08  2**2
                  CONTENTS, ALLOC, LOAD, READONLY, CODE
 77 i.Ind_Service_Change_Charac 00000048  10051f38  10051f38  00021f38  2**2
                  CONTENTS, ALLOC, LOAD, READONLY, CODE
 78 i.Pm_Resize_Host_Acl_Pckt 0000001c  10051f80  10051f80  00021f80  2**1
                  CONTENTS, ALLOC, LOAD, READONLY, CODE
 79 i.Process_Peer_Client_Data 000001f8  10051f9c  10051f9c  00021f9c  2**2
                  CONTENTS, ALLOC, LOAD, READONLY, CODE
 80 i.Process_Peer_Server_Data 0000016c  10052194  10052194  00022194  2**2
                  CONTENTS, ALLOC, LOAD, READONLY, CODE
 81 i.Select_Next_Notification_Client 00000050  10052300  10052300  00022300  2**2
                  CONTENTS, ALLOC, LOAD, READONLY, CODE
 82 i.Send_Notif_Or_Ind 0000004c  10052350  10052350  00022350  2**1
                  CONTENTS, ALLOC, LOAD, READONLY, CODE
 83 i.aci_gatt_indication_event_push 00000090  1005239c  1005239c  0002239c  2**2
                  CONTENTS, ALLOC, LOAD, READONLY, CODE
 84 i.aci_gatt_notification_event_push 00000090  1005242c  1005242c  0002242c  2**2
                  CONTENTS, ALLOC, LOAD, READONLY, CODE
 85 i.aci_hal_fw_error_event_push 0000005c  100524bc  100524bc  000224bc  2**2
                  CONTENTS, ALLOC, LOAD, READONLY, CODE
 86 i.store_data  0000001e  10052518  10052518  00022518  2**1
                  CONTENTS, ALLOC, LOAD, READONLY, CODE
 87 i.__ARM_common_switch8 0000001a  10052536  10052536  00022536  2**1
                  CONTENTS, ALLOC, LOAD, READONLY, CODE
 88 i.HAL_Flash_Store_Data 00000054  10052550  10052550  00022550  2**2
                  CONTENTS, ALLOC, LOAD, READONLY, CODE
 89 i.HAL_Generate_Random_Bytes_To 00000020  100525a4  100525a4  000225a4  2**1
                  CONTENTS, ALLOC, LOAD, READONLY, CODE
 90 i.HAL_Read_ConfigData 00000074  100525c4  100525c4  000225c4  2**2
                  CONTENTS, ALLOC, LOAD, READONLY, CODE
 91 i.HAL_Set_TX_Power_Level 00000044  10052638  10052638  00022638  2**2
                  CONTENTS, ALLOC, LOAD, READONLY, CODE
 92 i.Hal_Get_Random_Number 0000003a  1005267c  1005267c  0002267c  2**1
                  CONTENTS, ALLOC, LOAD, READONLY, CODE
 93 i.Hal_Get_Random_Number32 00000012  100526b6  100526b6  000226b6  2**1
                  CONTENTS, ALLOC, LOAD, READONLY, CODE
 94 i.ble_HAL_Init 0000001c  100526c8  100526c8  000226c8  2**2
                  CONTENTS, ALLOC, LOAD, READONLY, CODE
 95 i.char_copy   00000012  100526e4  100526e4  000226e4  2**1
                  CONTENTS, ALLOC, LOAD, READONLY, CODE
 96 i.hal_radio_activity_state_callback_check 00000034  100526f8  100526f8  000226f8  2**2
                  CONTENTS, ALLOC, LOAD, READONLY, CODE
 97 i.hal_radio_activity_state_init 0000001c  1005272c  1005272c  0002272c  2**2
                  CONTENTS, ALLOC, LOAD, READONLY, CODE
 98 i.hal_read_radio_activity_state 00000040  10052748  10052748  00022748  2**2
                  CONTENTS, ALLOC, LOAD, READONLY, CODE
 99 i.set_string  00000010  10052788  10052788  00022788  2**1
                  CONTENTS, ALLOC, LOAD, READONLY, CODE
100 i.Controller_Process_Q 0000001c  10052798  10052798  00022798  2**1
                  CONTENTS, ALLOC, LOAD, READONLY, CODE
101 i.HCI_Init    0000007c  100527b4  100527b4  000227b4  2**2
                  CONTENTS, ALLOC, LOAD, READONLY, CODE
102 i.PKA_Offline_Processing_ucfg 00000002  10052830  10052830  00022830  2**1
                  CONTENTS, ALLOC, LOAD, READONLY, CODE
103 i.PRIV_controller_privacy_csr_ucfg 00000004  10052832  10052832  00022832  2**1
                  CONTENTS, ALLOC, LOAD, READONLY, CODE
104 i.data_length_extension_csr_ucfg 00000004  10052836  10052836  00022836  2**1
                  CONTENTS, ALLOC, LOAD, READONLY, CODE
105 i.hci_acl_Process_Q 0000006c  1005283c  1005283c  0002283c  2**2
                  CONTENTS, ALLOC, LOAD, READONLY, CODE
106 i.hci_le_encrypt 0000000a  100528a8  100528a8  000228a8  2**1
                  CONTENTS, ALLOC, LOAD, READONLY, CODE
107 i.hci_le_long_term_key_request_reply 0000000e  100528b2  100528b2  000228b2  2**1
                  CONTENTS, ALLOC, LOAD, READONLY, CODE
108 i.hci_le_long_term_key_requested_negative_reply 0000000e  100528c0  100528c0  000228c0  2**1
                  CONTENTS, ALLOC, LOAD, READONLY, CODE
109 i.hci_le_set_scan_response_data 00000016  100528ce  100528ce  000228ce  2**1
                  CONTENTS, ALLOC, LOAD, READONLY, CODE
110 i.hci_rx_acl_data 0000006c  100528e4  100528e4  000228e4  2**2
                  CONTENTS, ALLOC, LOAD, READONLY, CODE
111 i.hci_tx_acl_data_done 00000044  10052950  10052950  00022950  2**2
                  CONTENTS, ALLOC, LOAD, READONLY, CODE
112 i.HAL_VTimerAcc_sysT32_ms 00000024  10052994  10052994  00022994  2**2
                  CONTENTS, ALLOC, LOAD, READONLY, CODE
113 i.HAL_VTimerDiff_ms_sysT32 0000000c  100529b8  100529b8  000229b8  2**1
                  CONTENTS, ALLOC, LOAD, READONLY, CODE
114 i.HAL_VTimerGetCurrentTime_sysT32 00000012  100529c4  100529c4  000229c4  2**1
                  CONTENTS, ALLOC, LOAD, READONLY, CODE
115 i.HAL_VTimerStart_ms 0000001a  100529d6  100529d6  000229d6  2**1
                  CONTENTS, ALLOC, LOAD, READONLY, CODE
116 i.HAL_VTimerStart_sysT32 0000001a  100529f0  100529f0  000229f0  2**1
                  CONTENTS, ALLOC, LOAD, READONLY, CODE
117 i.HAL_VTimer_Stop 00000010  10052a0a  10052a0a  00022a0a  2**1
                  CONTENTS, ALLOC, LOAD, READONLY, CODE
118 i.Set_Host_Timer_value 00000050  10052a1c  10052a1c  00022a1c  2**2
                  CONTENTS, ALLOC, LOAD, READONLY, CODE
119 i.TimerCallback 0000007c  10052a6c  10052a6c  00022a6c  2**1
                  CONTENTS, ALLOC, LOAD, READONLY, CODE
120 i.Timer_ExpiryCallback 00000014  10052ae8  10052ae8  00022ae8  2**2
                  CONTENTS, ALLOC, LOAD, READONLY, CODE
121 i.Timer_Init  00000034  10052afc  10052afc  00022afc  2**2
                  CONTENTS, ALLOC, LOAD, READONLY, CODE
122 i.Timer_ProcessQ 0000011c  10052b30  10052b30  00022b30  2**2
                  CONTENTS, ALLOC, LOAD, READONLY, CODE
123 i.Timer_StartOneShot 00000022  10052c4c  10052c4c  00022c4c  2**1
                  CONTENTS, ALLOC, LOAD, READONLY, CODE
124 i.Timer_StartOneShot_sysTime32 00000074  10052c70  10052c70  00022c70  2**2
                  CONTENTS, ALLOC, LOAD, READONLY, CODE
125 i.Timer_StopOneShot 00000058  10052ce4  10052ce4  00022ce4  2**2
                  CONTENTS, ALLOC, LOAD, READONLY, CODE
126 i.Timer_sysTime32_convMachineTime 00000024  10052d3c  10052d3c  00022d3c  2**2
                  CONTENTS, ALLOC, LOAD, READONLY, CODE
127 i.L2C_Build_Command_Reject_Pdu 0000007c  10052d60  10052d60  00022d60  2**1
                  CONTENTS, ALLOC, LOAD, READONLY, CODE
128 i.L2C_Build_Connect_Update_Req 000000f4  10052ddc  10052ddc  00022ddc  2**2
                  CONTENTS, ALLOC, LOAD, READONLY, CODE
129 i.L2C_Connection_Complete_Handler 0000004a  10052ed0  10052ed0  00022ed0  2**1
                  CONTENTS, ALLOC, LOAD, READONLY, CODE
130 i.L2C_Connection_Complete_Signal_Handler 0000002a  10052f1a  10052f1a  00022f1a  2**1
                  CONTENTS, ALLOC, LOAD, READONLY, CODE
131 i.L2C_Get_Connection_Info 00000034  10052f44  10052f44  00022f44  2**2
                  CONTENTS, ALLOC, LOAD, READONLY, CODE
132 i.L2C_Get_Connection_Info_Index 00000030  10052f78  10052f78  00022f78  2**2
                  CONTENTS, ALLOC, LOAD, READONLY, CODE
133 i.L2C_Get_PDU_Len 0000000e  10052fa8  10052fa8  00022fa8  2**1
                  CONTENTS, ALLOC, LOAD, READONLY, CODE
134 i.L2C_Init    00000058  10052fb8  10052fb8  00022fb8  2**2
                  CONTENTS, ALLOC, LOAD, READONLY, CODE
135 i.L2C_Mux_Acl_Packet 00000058  10053010  10053010  00023010  2**1
                  CONTENTS, ALLOC, LOAD, READONLY, CODE
136 i.L2C_Rcv_Data 000000cc  10053068  10053068  00023068  2**1
                  CONTENTS, ALLOC, LOAD, READONLY, CODE
137 i.L2C_Rcv_Event_Handler 0000001e  10053134  10053134  00023134  2**1
                  CONTENTS, ALLOC, LOAD, READONLY, CODE
138 i.L2C_Rcv_Event_Handler_ISR 00000054  10053152  10053152  00023152  2**1
                  CONTENTS, ALLOC, LOAD, READONLY, CODE
139 i.L2C_Reset_To_Closed_State 0000007c  100531a8  100531a8  000231a8  2**2
                  CONTENTS, ALLOC, LOAD, READONLY, CODE
140 i.L2C_Send_Data 0000004c  10053224  10053224  00023224  2**1
                  CONTENTS, ALLOC, LOAD, READONLY, CODE
141 i.L2C_SigChan_Req_TimeOut_Handler 00000060  10053270  10053270  00023270  2**2
                  CONTENTS, ALLOC, LOAD, READONLY, CODE
142 i.L2C_Signal_Channel_Handler 000001b0  100532d0  100532d0  000232d0  2**2
                  CONTENTS, ALLOC, LOAD, READONLY, CODE
143 i.L2C_Signal_Channel_Handler_ISR 00000024  10053480  10053480  00023480  2**1
                  CONTENTS, ALLOC, LOAD, READONLY, CODE
144 i.L2C_discard_accumulated_acl_data 0000005c  100534a4  100534a4  000234a4  2**2
                  CONTENTS, ALLOC, LOAD, READONLY, CODE
145 i.aci_l2cap_connection_update_req_event_push 00000098  10053500  10053500  00023500  2**2
                  CONTENTS, ALLOC, LOAD, READONLY, CODE
146 i.Data_Length_Update_Control_ISR_ucfg 00000004  10053598  10053598  00023598  2**1
                  CONTENTS, ALLOC, LOAD, READONLY, CODE
147 i.RAL_Isr     00000218  1005359c  1005359c  0002359c  2**2
                  CONTENTS, ALLOC, LOAD, READONLY, CODE
148 i.copy_4_u32  00000012  100537b4  100537b4  000237b4  2**1
                  CONTENTS, ALLOC, LOAD, READONLY, CODE
149 i.copy_tx_data_packet 00000084  100537c8  100537c8  000237c8  2**2
                  CONTENTS, ALLOC, LOAD, READONLY, CODE
150 i.encrypt     00000074  1005384c  1005384c  0002384c  2**2
                  CONTENTS, ALLOC, LOAD, READONLY, CODE
151 i.isr_advertise_state 00000398  100538c0  100538c0  000238c0  2**2
                  CONTENTS, ALLOC, LOAD, READONLY, CODE
152 i.isr_connect_slave_state 000007e4  10053c58  10053c58  00023c58  2**2
                  CONTENTS, ALLOC, LOAD, READONLY, CODE
153 i.isr_test_rx_state 00000034  1005443c  1005443c  0002443c  2**2
                  CONTENTS, ALLOC, LOAD, READONLY, CODE
154 i.isr_test_tx_state 00000064  10054470  10054470  00024470  2**2
                  CONTENTS, ALLOC, LOAD, READONLY, CODE
155 i.isr_unknown_state 0000002c  100544d4  100544d4  000244d4  2**2
                  CONTENTS, ALLOC, LOAD, READONLY, CODE
156 i.state_func_call_init_csr_ucfg 00000002  10054500  10054500  00024500  2**1
                  CONTENTS, ALLOC, LOAD, READONLY, CODE
157 i.__ARM_common_memcpy1_6 0000001a  10054502  10054502  00024502  2**1
                  CONTENTS, ALLOC, LOAD, READONLY, CODE
158 i.LL_LE_Clear_White_List 00000028  1005451c  1005451c  0002451c  2**2
                  CONTENTS, ALLOC, LOAD, READONLY, CODE
159 i.PRIVWHIT_u8SearchAddrInList 00000084  10054544  10054544  00024544  2**2
                  CONTENTS, ALLOC, LOAD, READONLY, CODE
160 i.PRIVWHIT_vInit_Struct 000000b8  100545c8  100545c8  000245c8  2**2
                  CONTENTS, ALLOC, LOAD, READONLY, CODE
161 i.PRIV_SearchAddrInWhiteList 00000058  10054680  10054680  00024680  2**2
                  CONTENTS, ALLOC, LOAD, READONLY, CODE
162 i.PRIV_u32ProcessAdvPacket_ucfg 00000004  100546d8  100546d8  000246d8  2**1
                  CONTENTS, ALLOC, LOAD, READONLY, CODE
163 i.PRIV_u8OfflineProcessing_ucfg 00000004  100546dc  100546dc  000246dc  2**1
                  CONTENTS, ALLOC, LOAD, READONLY, CODE
164 i.PRIV_vGeneratePrivateAddress_ucfg 00000002  100546e0  100546e0  000246e0  2**1
                  CONTENTS, ALLOC, LOAD, READONLY, CODE
165 i.PRIV_vGenerate_hci_le_enhanced_connection_complete_event_ucfg 00000002  100546e2  100546e2  000246e2  2**1
                  CONTENTS, ALLOC, LOAD, READONLY, CODE
166 i.Data_Len_Update_Offline_Processing_ucfg 00000002  100546e4  100546e4  000246e4  2**1
                  CONTENTS, ALLOC, LOAD, READONLY, CODE
167 i.Disconnection_Offline_Processing 00000048  100546e8  100546e8  000246e8  2**2
                  CONTENTS, ALLOC, LOAD, READONLY, CODE
168 i.LL_Data_Length_Change_Event_ucfg 00000004  10054730  10054730  00024730  2**1
                  CONTENTS, ALLOC, LOAD, READONLY, CODE
169 i.LL_Send_Disconnection_Req 000000a4  10054734  10054734  00024734  2**2
                  CONTENTS, ALLOC, LOAD, READONLY, CODE
170 i.LL_Send_Length_Resp_ucfg 00000004  100547d8  100547d8  000247d8  2**1
                  CONTENTS, ALLOC, LOAD, READONLY, CODE
171 i.read_rssi   0000007c  100547dc  100547dc  000247dc  2**2
                  CONTENTS, ALLOC, LOAD, READONLY, CODE
172 i.Reclassify_All_Channels_ucfg 00000002  10054858  10054858  00024858  2**1
                  CONTENTS, ALLOC, LOAD, READONLY, CODE
173 i.hci_encryption_change_event_push 0000005c  1005485c  1005485c  0002485c  2**2
                  CONTENTS, ALLOC, LOAD, READONLY, CODE
174 i.hci_encryption_key_refresh_complete_event_push 00000058  100548b8  100548b8  000248b8  2**2
                  CONTENTS, ALLOC, LOAD, READONLY, CODE
175 i.hci_le_connection_complete_event_push 00000088  10054910  10054910  00024910  2**2
                  CONTENTS, ALLOC, LOAD, READONLY, CODE
176 i.hci_le_connection_update_complete_event_push 0000006c  10054998  10054998  00024998  2**2
                  CONTENTS, ALLOC, LOAD, READONLY, CODE
177 i.isr_event_handler 000005fc  10054a04  10054a04  00024a04  2**2
                  CONTENTS, ALLOC, LOAD, READONLY, CODE
178 i.isr_event_handler_scan_data_ucfg 00000002  10055000  10055000  00025000  2**1
                  CONTENTS, ALLOC, LOAD, READONLY, CODE
179 i.LL_Encrypt_Plain_Data_ucfg 0000009c  10055004  10055004  00025004  2**2
                  CONTENTS, ALLOC, LOAD, READONLY, CODE
180 i.LL_Set_LTK  0000009c  100550a0  100550a0  000250a0  2**2
                  CONTENTS, ALLOC, LOAD, READONLY, CODE
181 i.Dynamic_allocator 00000264  1005513c  1005513c  0002513c  2**2
                  CONTENTS, ALLOC, LOAD, READONLY, CODE
182 i.Dynamic_allocator_noRet 00000002  100553a0  100553a0  000253a0  2**1
                  CONTENTS, ALLOC, LOAD, READONLY, CODE
183 i.Mem_assign  00000016  100553a2  100553a2  000253a2  2**1
                  CONTENTS, ALLOC, LOAD, READONLY, CODE
184 i.mem_alloc_ctx_init 000000a8  100553b8  100553b8  000253b8  2**2
                  CONTENTS, ALLOC, LOAD, READONLY, CODE
185 i.Mem_Buff_Append 00000012  10055460  10055460  00025460  2**1
                  CONTENTS, ALLOC, LOAD, READONLY, CODE
186 i.Mem_Buff_Block_Copy 00000048  10055472  10055472  00025472  2**1
                  CONTENTS, ALLOC, LOAD, READONLY, CODE
187 i.Mem_Buff_Block_Write 00000056  100554ba  100554ba  000254ba  2**1
                  CONTENTS, ALLOC, LOAD, READONLY, CODE
188 i.Mem_Buff_Clone 00000032  10055510  10055510  00025510  2**1
                  CONTENTS, ALLOC, LOAD, READONLY, CODE
189 i.Mem_Buff_Cmp 00000078  10055542  10055542  00025542  2**1
                  CONTENTS, ALLOC, LOAD, READONLY, CODE
190 i.Mem_Buff_Compact 000000ba  100555ba  100555ba  000255ba  2**1
                  CONTENTS, ALLOC, LOAD, READONLY, CODE
191 i.Mem_Buff_Get 0000002e  10055674  10055674  00025674  2**1
                  CONTENTS, ALLOC, LOAD, READONLY, CODE
192 i.Mem_Buff_Get_Chain_Count 00000014  100556a2  100556a2  000256a2  2**1
                  CONTENTS, ALLOC, LOAD, READONLY, CODE
193 i.Mem_Buff_Get_Chain_Size 00000014  100556b6  100556b6  000256b6  2**1
                  CONTENTS, ALLOC, LOAD, READONLY, CODE
194 i.Mem_Buff_Init 0000006a  100556ca  100556ca  000256ca  2**1
                  CONTENTS, ALLOC, LOAD, READONLY, CODE
195 i.Mem_Buff_Read 00000062  10055734  10055734  00025734  2**1
                  CONTENTS, ALLOC, LOAD, READONLY, CODE
196 i.Mem_Buff_Release 00000036  10055796  10055796  00025796  2**1
                  CONTENTS, ALLOC, LOAD, READONLY, CODE
197 i.Mem_Buff_Resize 0000008e  100557cc  100557cc  000257cc  2**1
                  CONTENTS, ALLOC, LOAD, READONLY, CODE
198 i.Mem_Buff_Write 00000068  1005585a  1005585a  0002585a  2**1
                  CONTENTS, ALLOC, LOAD, READONLY, CODE
199 i.adapt_slot  00000260  100558c4  100558c4  000258c4  2**2
                  CONTENTS, ALLOC, LOAD, READONLY, CODE
200 i.advance_slave_timing_MultiSlave 000002cc  10055b24  10055b24  00025b24  2**2
                  CONTENTS, ALLOC, LOAD, READONLY, CODE
201 i.cancel_current_master 000001a8  10055df0  10055df0  00025df0  2**2
                  CONTENTS, ALLOC, LOAD, READONLY, CODE
202 i.get_advertiser 00000048  10055f98  10055f98  00025f98  2**2
                  CONTENTS, ALLOC, LOAD, READONLY, CODE
203 i.get_connection_no 00000088  10055fe0  10055fe0  00025fe0  2**2
                  CONTENTS, ALLOC, LOAD, READONLY, CODE
204 i.get_next_free_slot 00000034  10056068  10056068  00026068  2**2
                  CONTENTS, ALLOC, LOAD, READONLY, CODE
205 i.get_scan_connection 00000048  1005609c  1005609c  0002609c  2**2
                  CONTENTS, ALLOC, LOAD, READONLY, CODE
206 i.is_slave    00000034  100560e4  100560e4  000260e4  2**2
                  CONTENTS, ALLOC, LOAD, READONLY, CODE
207 i.nsar_init   00000018  10056118  10056118  00026118  2**2
                  CONTENTS, ALLOC, LOAD, READONLY, CODE
208 i.nsar_insertSlotListEntry 0000001c  10056130  10056130  00026130  2**2
                  CONTENTS, ALLOC, LOAD, READONLY, CODE
209 i.nsar_searchBestFreeSlot 000000c0  1005614c  1005614c  0002614c  2**2
                  CONTENTS, ALLOC, LOAD, READONLY, CODE
210 i.nsar_updateBestFreeSlot 00000022  1005620c  1005620c  0002620c  2**1
                  CONTENTS, ALLOC, LOAD, READONLY, CODE
211 i.nsar_updateSlotListEntry 0000006c  10056230  10056230  00026230  2**2
                  CONTENTS, ALLOC, LOAD, READONLY, CODE
212 i.schedule_advertise_slot 000000b0  1005629c  1005629c  0002629c  2**2
                  CONTENTS, ALLOC, LOAD, READONLY, CODE
213 i.start_timebase 000000d0  1005634c  1005634c  0002634c  2**2
                  CONTENTS, ALLOC, LOAD, READONLY, CODE
214 i.swap_u16    00000014  1005641c  1005641c  0002641c  2**1
                  CONTENTS, ALLOC, LOAD, READONLY, CODE
215 i.timebase_start_connect 00000038  10056430  10056430  00026430  2**2
                  CONTENTS, ALLOC, LOAD, READONLY, CODE
216 i.Flash_Write_Flagged 0000003c  10056468  10056468  00026468  2**2
                  CONTENTS, ALLOC, LOAD, READONLY, CODE
217 i.Is_Flash_Write_On_Going 00000010  100564a4  100564a4  000264a4  2**2
                  CONTENTS, ALLOC, LOAD, READONLY, CODE
218 i.PM_Check_And_Set 00000050  100564b4  100564b4  000264b4  2**2
                  CONTENTS, ALLOC, LOAD, READONLY, CODE
219 i.PM_Clone_Pckt 00000022  10056504  10056504  00026504  2**1
                  CONTENTS, ALLOC, LOAD, READONLY, CODE
220 i.PM_Compact  00000054  10056528  10056528  00026528  2**2
                  CONTENTS, ALLOC, LOAD, READONLY, CODE
221 i.PM_Copy_Pckt_Data 00000012  1005657c  1005657c  0002657c  2**1
                  CONTENTS, ALLOC, LOAD, READONLY, CODE
222 i.PM_Eng_Config 00000018  10056590  10056590  00026590  2**2
                  CONTENTS, ALLOC, LOAD, READONLY, CODE
223 i.PM_Extract_Pdu_MBuff 0000000c  100565a8  100565a8  000265a8  2**1
                  CONTENTS, ALLOC, LOAD, READONLY, CODE
224 i.PM_Get_Available_Buffer 0000003c  100565b4  100565b4  000265b4  2**2
                  CONTENTS, ALLOC, LOAD, READONLY, CODE
225 i.PM_Get_Mem_Buff_Count 0000000a  100565f0  100565f0  000265f0  2**1
                  CONTENTS, ALLOC, LOAD, READONLY, CODE
226 i.PM_Get_Pckt 00000044  100565fc  100565fc  000265fc  2**2
                  CONTENTS, ALLOC, LOAD, READONLY, CODE
227 i.PM_Init     00000068  10056640  10056640  00026640  2**2
                  CONTENTS, ALLOC, LOAD, READONLY, CODE
228 i.PM_Pckt_Cmp 0000000a  100566a8  100566a8  000266a8  2**1
                  CONTENTS, ALLOC, LOAD, READONLY, CODE
229 i.PM_Release_Acl_Pckt 0000003c  100566b4  100566b4  000266b4  2**2
                  CONTENTS, ALLOC, LOAD, READONLY, CODE
230 i.PM_Resize_Pckt_Pdu_Size 0000006c  100566f0  100566f0  000266f0  2**2
                  CONTENTS, ALLOC, LOAD, READONLY, CODE
231 i.PM_Write_Pckt_Data 00000012  1005675c  1005675c  0002675c  2**1
                  CONTENTS, ALLOC, LOAD, READONLY, CODE
232 i.Accu_Handles_Requiring_Auth 0000006e  1005676e  1005676e  0002676e  2**1
                  CONTENTS, ALLOC, LOAD, READONLY, CODE
233 i.Accu_UuidTypes_Requiring_Auth 000000ea  100567dc  100567dc  000267dc  2**1
                  CONTENTS, ALLOC, LOAD, READONLY, CODE
234 i.GAP_Privacy1v2 000001e0  100568c8  100568c8  000268c8  2**2
                  CONTENTS, ALLOC, LOAD, READONLY, CODE
235 i.GAP_PrivateAddrTimercb 00000048  10056aa8  10056aa8  00026aa8  2**2
                  CONTENTS, ALLOC, LOAD, READONLY, CODE
236 i.GapIsPrivacySupported 00000014  10056af0  10056af0  00026af0  2**2
                  CONTENTS, ALLOC, LOAD, READONLY, CODE
237 i.Generate_Non_Resolvable_Private_Address 00000088  10056b04  10056b04  00026b04  2**2
                  CONTENTS, ALLOC, LOAD, READONLY, CODE
238 i.GAP_Delete_ADType 000000b0  10056b8c  10056b8c  00026b8c  2**2
                  CONTENTS, ALLOC, LOAD, READONLY, CODE
239 i.GAP_Notify_Add_Charac 00000070  10056c3c  10056c3c  00026c3c  2**2
                  CONTENTS, ALLOC, LOAD, READONLY, CODE
240 i.GAP_Update_Adv_Data 000000ce  10056cac  10056cac  00026cac  2**1
                  CONTENTS, ALLOC, LOAD, READONLY, CODE
241 i.Get_GAP_Handle 00000010  10056d7c  10056d7c  00026d7c  2**2
                  CONTENTS, ALLOC, LOAD, READONLY, CODE
242 i.Get_StaticRandAddr 00000014  10056d8c  10056d8c  00026d8c  2**2
                  CONTENTS, ALLOC, LOAD, READONLY, CODE
243 i.Check_Encry_Key_Size 00000018  10056da0  10056da0  00026da0  2**1
                  CONTENTS, ALLOC, LOAD, READONLY, CODE
244 i.GATT_Num_Charac_Present 0000003a  10056db8  10056db8  00026db8  2**1
                  CONTENTS, ALLOC, LOAD, READONLY, CODE
245 i.Start_Gatt_Timer 00000024  10056df4  10056df4  00026df4  2**2
                  CONTENTS, ALLOC, LOAD, READONLY, CODE
246 i.Stop_Gatt_Timer 0000001c  10056e18  10056e18  00026e18  2**1
                  CONTENTS, ALLOC, LOAD, READONLY, CODE
247 i.List_Circular_Get_Size 00000014  10056e34  10056e34  00026e34  2**1
                  CONTENTS, ALLOC, LOAD, READONLY, CODE
248 i.List_Circular_Insert_Tail 0000000e  10056e48  10056e48  00026e48  2**1
                  CONTENTS, ALLOC, LOAD, READONLY, CODE
249 i.List_Circular_Node_Present 00000016  10056e56  10056e56  00026e56  2**1
                  CONTENTS, ALLOC, LOAD, READONLY, CODE
250 i.List_Circular_Remove_Head 0000001a  10056e6c  10056e6c  00026e6c  2**1
                  CONTENTS, ALLOC, LOAD, READONLY, CODE
251 i.List_Circular_Remove_Node 00000020  10056e86  10056e86  00026e86  2**1
                  CONTENTS, ALLOC, LOAD, READONLY, CODE
252 i.isr_postproc1 00000110  10056ea8  10056ea8  00026ea8  2**2
                  CONTENTS, ALLOC, LOAD, READONLY, CODE
253 i.isr_postproc_encrypt_data 00000016  10056fb8  10056fb8  00026fb8  2**1
                  CONTENTS, ALLOC, LOAD, READONLY, CODE
254 i.wait_for_aes_ready 00000024  10056fce  10056fce  00026fce  2**1
                  CONTENTS, ALLOC, LOAD, READONLY, CODE
255 i.LL_update_proc 00000098  10056ff4  10056ff4  00026ff4  2**2
                  CONTENTS, ALLOC, LOAD, READONLY, CODE
256 i.addr_u32_from_u8 0000003e  1005708c  1005708c  0002708c  2**1
                  CONTENTS, ALLOC, LOAD, READONLY, CODE
257 i.cancel_connect_master_ucfg 00000004  100570ca  100570ca  000270ca  2**1
                  CONTENTS, ALLOC, LOAD, READONLY, CODE
258 i.cancel_master 0000007c  100570d0  100570d0  000270d0  2**2
                  CONTENTS, ALLOC, LOAD, READONLY, CODE
259 i.get_adv_addr 00000014  1005714c  1005714c  0002714c  2**1
                  CONTENTS, ALLOC, LOAD, READONLY, CODE
260 i.get_scan_addr 00000014  10057160  10057160  00027160  2**1
                  CONTENTS, ALLOC, LOAD, READONLY, CODE
261 i.go_to_connect 00000298  10057174  10057174  00027174  2**2
                  CONTENTS, ALLOC, LOAD, READONLY, CODE
262 i.le2ByteToInt16 0000000a  1005740c  1005740c  0002740c  2**1
                  CONTENTS, ALLOC, LOAD, READONLY, CODE
263 i.le4ByteToInt32 0000002c  10057416  10057416  00027416  2**1
                  CONTENTS, ALLOC, LOAD, READONLY, CODE
264 i.unpack_channel_map 0000002e  10057442  10057442  00027442  2**1
                  CONTENTS, ALLOC, LOAD, READONLY, CODE
265 i.unpack_update_request 00000048  10057470  10057470  00027470  2**1
                  CONTENTS, ALLOC, LOAD, READONLY, CODE
266 i.Is_Address_Initialized 00000018  100574b8  100574b8  000274b8  2**1
                  CONTENTS, ALLOC, LOAD, READONLY, CODE
267 i.LL_Allow_Address_Setting 00000042  100574d0  100574d0  000274d0  2**1
                  CONTENTS, ALLOC, LOAD, READONLY, CODE
268 i.LL_Check_And_Set_Addresses 000001fc  10057514  10057514  00027514  2**2
                  CONTENTS, ALLOC, LOAD, READONLY, CODE
269 i.LL_Enable_Disable_Adv 0000021c  10057710  10057710  00027710  2**2
                  CONTENTS, ALLOC, LOAD, READONLY, CODE
270 i.LL_Get_Address 0000002c  1005792c  1005792c  0002792c  2**2
                  CONTENTS, ALLOC, LOAD, READONLY, CODE
271 i.LL_Get_AdvAddress 00000040  10057958  10057958  00027958  2**2
                  CONTENTS, ALLOC, LOAD, READONLY, CODE
272 i.LL_Get_Adv_Data 00000038  10057998  10057998  00027998  2**2
                  CONTENTS, ALLOC, LOAD, READONLY, CODE
273 i.LL_Get_ScanAddress 00000040  100579d0  100579d0  000279d0  2**2
                  CONTENTS, ALLOC, LOAD, READONLY, CODE
274 i.LL_Init     0000018c  10057a10  10057a10  00027a10  2**2
                  CONTENTS, ALLOC, LOAD, READONLY, CODE
275 i.LL_Send_ACL_Data 00000050  10057b9c  10057b9c  00027b9c  2**2
                  CONTENTS, ALLOC, LOAD, READONLY, CODE
276 i.LL_Set_Adv_Data 00000078  10057bec  10057bec  00027bec  2**2
                  CONTENTS, ALLOC, LOAD, READONLY, CODE
277 i.LL_Set_Adv_PDU_Format 000000cc  10057c64  10057c64  00027c64  2**2
                  CONTENTS, ALLOC, LOAD, READONLY, CODE
278 i.LL_Set_Adv_Params 0000014c  10057d30  10057d30  00027d30  2**2
                  CONTENTS, ALLOC, LOAD, READONLY, CODE
279 i.LL_Set_Advertising_Buffers 00000088  10057e7c  10057e7c  00027e7c  2**2
                  CONTENTS, ALLOC, LOAD, READONLY, CODE
280 i.LL_Set_DirectAddress 00000038  10057f04  10057f04  00027f04  2**2
                  CONTENTS, ALLOC, LOAD, READONLY, CODE
281 i.LL_Set_OwnAddress 00000024  10057f3c  10057f3c  00027f3c  2**2
                  CONTENTS, ALLOC, LOAD, READONLY, CODE
282 i.LL_Set_Scan_Resp_Data 0000005c  10057f60  10057f60  00027f60  2**2
                  CONTENTS, ALLOC, LOAD, READONLY, CODE
283 i.LL_Update_Advertising_Buffers 00000048  10057fbc  10057fbc  00027fbc  2**2
                  CONTENTS, ALLOC, LOAD, READONLY, CODE
284 i.LL_Update_Scanning_Initiating_Buffers 00000048  10058004  10058004  00028004  2**2
                  CONTENTS, ALLOC, LOAD, READONLY, CODE
285 i.int32ToLe4Byte 00000030  1005804c  1005804c  0002804c  2**1
                  CONTENTS, ALLOC, LOAD, READONLY, CODE
286 i.wait_for_prescheduled_slot_cancellation 0000007c  1005807c  1005807c  0002807c  2**2
                  CONTENTS, ALLOC, LOAD, READONLY, CODE
287 i.Blue_Set_Radio_Config_Data 00000024  100580f8  100580f8  000280f8  2**2
                  CONTENTS, ALLOC, LOAD, READONLY, CODE
288 i.LL_Get_Adv_Tx_Power_Level 00000018  1005811c  1005811c  0002811c  2**2
                  CONTENTS, ALLOC, LOAD, READONLY, CODE
289 i.convert_power 00000024  10058134  10058134  00028134  2**2
                  CONTENTS, ALLOC, LOAD, READONLY, CODE
290 i.modulo_37   0000001c  10058158  10058158  00028158  2**2
                  CONTENTS, ALLOC, LOAD, READONLY, CODE
291 i.WindowWiden1 0000000a  10058174  10058174  00028174  2**1
                  CONTENTS, ALLOC, LOAD, READONLY, CODE
292 i.WindowWiden2 00000010  1005817e  1005817e  0002817e  2**1
                  CONTENTS, ALLOC, LOAD, READONLY, CODE
293 i.machine_time_trans 00000020  10058190  10058190  00028190  2**2
                  CONTENTS, ALLOC, LOAD, READONLY, CODE
294 i.set_freq    00000088  100581b0  100581b0  000281b0  2**2
                  CONTENTS, ALLOC, LOAD, READONLY, CODE
295 i.set_sca     0000001c  10058238  10058238  00028238  2**2
                  CONTENTS, ALLOC, LOAD, READONLY, CODE
296 i.system_time_trans 00000010  10058254  10058254  00028254  2**1
                  CONTENTS, ALLOC, LOAD, READONLY, CODE
297 i.system_time_trans_ext 00000030  10058264  10058264  00028264  2**2
                  CONTENTS, ALLOC, LOAD, READONLY, CODE
298 i.time_offset1 0000000e  10058294  10058294  00028294  2**1
                  CONTENTS, ALLOC, LOAD, READONLY, CODE
299 i.time_offset2 00000010  100582a4  100582a4  000282a4  2**2
                  CONTENTS, ALLOC, LOAD, READONLY, CODE
300 i.Blue_Init_Global 00000098  100582b4  100582b4  000282b4  2**2
                  CONTENTS, ALLOC, LOAD, READONLY, CODE
301 i.advance_transmit 00000158  1005834c  1005834c  0002834c  2**2
                  CONTENTS, ALLOC, LOAD, READONLY, CODE
302 i.microseconds_to_machine_time 00000008  100584a4  100584a4  000284a4  2**1
                  CONTENTS, ALLOC, LOAD, READONLY, CODE
303 i.slave_advance 00000200  100584ac  100584ac  000284ac  2**2
                  CONTENTS, ALLOC, LOAD, READONLY, CODE
304 i.swap_slaves 0000013c  100586ac  100586ac  000286ac  2**2
                  CONTENTS, ALLOC, LOAD, READONLY, CODE
305 i.swap_u32    0000000a  100587e8  100587e8  000287e8  2**1
                  CONTENTS, ALLOC, LOAD, READONLY, CODE
306 i.swap_u8     0000000a  100587f2  100587f2  000287f2  2**1
                  CONTENTS, ALLOC, LOAD, READONLY, CODE
307 i.Erase_Sector 0000000e  100587fc  100587fc  000287fc  2**1
                  CONTENTS, ALLOC, LOAD, READONLY, CODE
308 i.SDB_Add_Record 00000184  1005880c  1005880c  0002880c  2**2
                  CONTENTS, ALLOC, LOAD, READONLY, CODE
309 i.SDB_Find_Matching_LTK 000000a0  10058990  10058990  00028990  2**2
                  CONTENTS, ALLOC, LOAD, READONLY, CODE
310 i.SDB_Find_Record 000000c4  10058a30  10058a30  00028a30  2**2
                  CONTENTS, ALLOC, LOAD, READONLY, CODE
311 i.SDB_Get_Number_Of_Valid_Records 00000044  10058af4  10058af4  00028af4  2**2
                  CONTENTS, ALLOC, LOAD, READONLY, CODE
312 i.SDB_flash_write_client_data 000000b8  10058b38  10058b38  00028b38  2**2
                  CONTENTS, ALLOC, LOAD, READONLY, CODE
313 i.SDB_get_security_data_record 000000d8  10058bf0  10058bf0  00028bf0  2**1
                  CONTENTS, ALLOC, LOAD, READONLY, CODE
314 i.SDB_read_peer_bonded_data 0000003c  10058cc8  10058cc8  00028cc8  2**1
                  CONTENTS, ALLOC, LOAD, READONLY, CODE
315 i.Write_Client_Data 000001b0  10058d04  10058d04  00028d04  2**2
                  CONTENTS, ALLOC, LOAD, READONLY, CODE
316 i.sdb_delete  00000164  10058eb4  10058eb4  00028eb4  2**2
                  CONTENTS, ALLOC, LOAD, READONLY, CODE
317 i.sdb_find_client_data 000000c8  10059018  10059018  00029018  2**2
                  CONTENTS, ALLOC, LOAD, READONLY, CODE
318 i.sdb_get_gatt_db_start_address 00000018  100590e0  100590e0  000290e0  2**2
                  CONTENTS, ALLOC, LOAD, READONLY, CODE
319 i.sdb_invalidate_record 00000020  100590f8  100590f8  000290f8  2**2
                  CONTENTS, ALLOC, LOAD, READONLY, CODE
320 i.sdb_read_record 00000024  10059118  10059118  00029118  2**2
                  CONTENTS, ALLOC, LOAD, READONLY, CODE
321 i.sdb_read_record_validity 00000010  1005913c  1005913c  0002913c  2**2
                  CONTENTS, ALLOC, LOAD, READONLY, CODE
322 i.sdb_write_record 0000007c  1005914c  1005914c  0002914c  2**2
                  CONTENTS, ALLOC, LOAD, READONLY, CODE
323 i.SMP_Process_Q 0000019c  100591c8  100591c8  000291c8  2**2
                  CONTENTS, ALLOC, LOAD, READONLY, CODE
324 i.smp_Build_AuthReq_Field 00000018  10059364  10059364  00029364  2**1
                  CONTENTS, ALLOC, LOAD, READONLY, CODE
325 i.smp_Build_Pairing_ReqResp_Packet 00000038  1005937c  1005937c  0002937c  2**2
                  CONTENTS, ALLOC, LOAD, READONLY, CODE
326 i.smp_Check_Incoming_Pairing_Parameters 00000034  100593b4  100593b4  000293b4  2**2
                  CONTENTS, ALLOC, LOAD, READONLY, CODE
327 i.smp_Determine_Key_Association_Method 0000009c  100593e8  100593e8  000293e8  2**2
                  CONTENTS, ALLOC, LOAD, READONLY, CODE
328 i.smp_Execute_Actions_wrt_Current_State 0000018c  10059484  10059484  00029484  2**2
                  CONTENTS, ALLOC, LOAD, READONLY, CODE
329 i.smp_Execute_Actions_wrt_Current_State_MI_excerpt_ucfg 00000002  10059610  10059610  00029610  2**1
                  CONTENTS, ALLOC, LOAD, READONLY, CODE
330 i.smp_Execute_Actions_wrt_Current_State_sc_excerpt_phase2as2_ucfg 00000002  10059612  10059612  00029612  2**1
                  CONTENTS, ALLOC, LOAD, READONLY, CODE
331 i.smp_Execute_Actions_wrt_Current_State_sc_excerpt_phase_1_to_2_ucfg 00000004  10059614  10059614  00029614  2**1
                  CONTENTS, ALLOC, LOAD, READONLY, CODE
332 i.smp_Get_Long_Term_Key 00000080  10059618  10059618  00029618  2**2
                  CONTENTS, ALLOC, LOAD, READONLY, CODE
333 i.smp_Get_Pairing_Parameters_From_Peer_Packet 00000088  10059698  10059698  00029698  2**2
                  CONTENTS, ALLOC, LOAD, READONLY, CODE
334 i.smp_Keys_Distribution_Send 0000011c  10059720  10059720  00029720  2**2
                  CONTENTS, ALLOC, LOAD, READONLY, CODE
335 i.smp_LP_SR_Compute_c1_Confirm_Value 00000150  1005983c  1005983c  0002983c  2**2
                  CONTENTS, ALLOC, LOAD, READONLY, CODE
336 i.smp_MI_Start_Encryption_ucfg 00000004  1005998c  1005998c  0002998c  2**1
                  CONTENTS, ALLOC, LOAD, READONLY, CODE
337 i.smp_Process_Rx_Packet_Exception_Cases_sc_excerpt_ucfg 00000004  10059990  10059990  00029990  2**1
                  CONTENTS, ALLOC, LOAD, READONLY, CODE
338 i.smp_Process_Rx_Packet_wrt_Current_State 00000130  10059994  10059994  00029994  2**2
                  CONTENTS, ALLOC, LOAD, READONLY, CODE
339 i.smp_Process_Rx_Packet_wrt_Current_State_MI_excerpt_ucfg 00000004  10059ac4  10059ac4  00029ac4  2**1
                  CONTENTS, ALLOC, LOAD, READONLY, CODE
340 i.smp_Process_Rx_Packet_wrt_Current_State_sc_excerpt_ucfg 00000004  10059ac8  10059ac8  00029ac8  2**1
                  CONTENTS, ALLOC, LOAD, READONLY, CODE
341 i.smp_Set_Key_Association_Method 00000078  10059acc  10059acc  00029acc  2**2
                  CONTENTS, ALLOC, LOAD, READONLY, CODE
342 i.smp____SR_PairingConfirm_Receive 0000007a  10059b44  10059b44  00029b44  2**1
                  CONTENTS, ALLOC, LOAD, READONLY, CODE
343 i.smp____SR_PairingRandom_Receive 00000120  10059bc0  10059bc0  00029bc0  2**2
                  CONTENTS, ALLOC, LOAD, READONLY, CODE
344 i.smp____SR_PairingRequest_Receive 0000017c  10059ce0  10059ce0  00029ce0  2**2
                  CONTENTS, ALLOC, LOAD, READONLY, CODE
345 i.smp_sc_SR_PairingConfirm_Receive_sc_excerpt_ucfg 00000002  10059e5c  10059e5c  00029e5c  2**1
                  CONTENTS, ALLOC, LOAD, READONLY, CODE
346 i.smp_sc_SR_PairingRandom_Receive_sc_excerpt_ucfg 00000002  10059e5e  10059e5e  00029e5e  2**1
                  CONTENTS, ALLOC, LOAD, READONLY, CODE
347 i.smp_sc_SR_Pairing_Phase_2AS1_Start_sc_excerpt_ucfg 00000002  10059e60  10059e60  00029e60  2**1
                  CONTENTS, ALLOC, LOAD, READONLY, CODE
348 i.smp_send_packet 00000038  10059e64  10059e64  00029e64  2**2
                  CONTENTS, ALLOC, LOAD, READONLY, CODE
349 i.SMA_Diversify 00000028  10059e9c  10059e9c  00029e9c  2**1
                  CONTENTS, ALLOC, LOAD, READONLY, CODE
350 i.SMA_Generate_CSRK 00000028  10059ec4  10059ec4  00029ec4  2**2
                  CONTENTS, ALLOC, LOAD, READONLY, CODE
351 i.SMA_Generate_IRK 00000028  10059eec  10059eec  00029eec  2**2
                  CONTENTS, ALLOC, LOAD, READONLY, CODE
352 i.SMA_LP_s1_Generate_STK 00000026  10059f14  10059f14  00029f14  2**1
                  CONTENTS, ALLOC, LOAD, READONLY, CODE
353 i.SMA_generate_EDIV_recovery_DIV 00000074  10059f3c  10059f3c  00029f3c  2**2
                  CONTENTS, ALLOC, LOAD, READONLY, CODE
354 i.SM_Generate_Resolvable_Private_Address 0000004e  10059fb0  10059fb0  00029fb0  2**1
                  CONTENTS, ALLOC, LOAD, READONLY, CODE
355 i.SM_Resolve_Private_Address 00000022  10059ffe  10059ffe  00029ffe  2**1
                  CONTENTS, ALLOC, LOAD, READONLY, CODE
356 i.sma_CMAC_generate_tag 000000c6  1005a020  1005a020  0002a020  2**1
                  CONTENTS, ALLOC, LOAD, READONLY, CODE
357 i.sma_Calculate_Hash 00000036  1005a0e6  1005a0e6  0002a0e6  2**1
                  CONTENTS, ALLOC, LOAD, READONLY, CODE
358 i.sma_generate_subkeys 0000007e  1005a11c  1005a11c  0002a11c  2**1
                  CONTENTS, ALLOC, LOAD, READONLY, CODE
359 i.sma_left_shift 0000002c  1005a19a  1005a19a  0002a19a  2**1
                  CONTENTS, ALLOC, LOAD, READONLY, CODE
360 i.SMP_Init    0000003c  1005a1c8  1005a1c8  0002a1c8  2**2
                  CONTENTS, ALLOC, LOAD, READONLY, CODE
361 i.SMP_Protocol_Timer_cb 00000044  1005a204  1005a204  0002a204  2**2
                  CONTENTS, ALLOC, LOAD, READONLY, CODE
362 i.SMP_aci_passkey_response 00000030  1005a248  1005a248  0002a248  2**2
                  CONTENTS, ALLOC, LOAD, READONLY, CODE
363 i.SMP_acl_data_hndl 000000f8  1005a278  1005a278  0002a278  2**2
                  CONTENTS, ALLOC, LOAD, READONLY, CODE
364 i.SMP_check_encryption_key_size 00000020  1005a370  1005a370  0002a370  2**1
                  CONTENTS, ALLOC, LOAD, READONLY, CODE
365 i.SMP_check_is_device_bonded 00000048  1005a390  1005a390  0002a390  2**1
                  CONTENTS, ALLOC, LOAD, READONLY, CODE
366 i.SMP_connection_complete_handler 00000094  1005a3d8  1005a3d8  0002a3d8  2**2
                  CONTENTS, ALLOC, LOAD, READONLY, CODE
367 i.SMP_forget_device_by_conn_handle 0000001c  1005a46c  1005a46c  0002a46c  2**1
                  CONTENTS, ALLOC, LOAD, READONLY, CODE
368 i.SMP_get_link_status 0000002e  1005a488  1005a488  0002a488  2**1
                  CONTENTS, ALLOC, LOAD, READONLY, CODE
369 i.SMP_get_remote_device_list_item 0000004c  1005a4b8  1005a4b8  0002a4b8  2**2
                  CONTENTS, ALLOC, LOAD, READONLY, CODE
370 i.SMP_hci_disconnection_complete_evt_hndl 00000040  1005a504  1005a504  0002a504  2**2
                  CONTENTS, ALLOC, LOAD, READONLY, CODE
371 i.SMP_hci_encryption_change_evt_hndl 00000120  1005a544  1005a544  0002a544  2**2
                  CONTENTS, ALLOC, LOAD, READONLY, CODE
372 i.SMP_hci_le_connection_complete_evt_hndl 0000002e  1005a664  1005a664  0002a664  2**1
                  CONTENTS, ALLOC, LOAD, READONLY, CODE
373 i.SMP_hci_le_enhanced_connection_complete_evt_hndl 00000052  1005a692  1005a692  0002a692  2**1
                  CONTENTS, ALLOC, LOAD, READONLY, CODE
374 i.SMP_hci_le_long_term_key_request_evt_hndl 00000038  1005a6e4  1005a6e4  0002a6e4  2**1
                  CONTENTS, ALLOC, LOAD, READONLY, CODE
375 i.SMP_repeated_attacks_timer_cb 00000078  1005a71c  1005a71c  0002a71c  2**2
                  CONTENTS, ALLOC, LOAD, READONLY, CODE
376 i.SMP_reset_timer 00000040  1005a794  1005a794  0002a794  2**1
                  CONTENTS, ALLOC, LOAD, READONLY, CODE
377 i.SMP_set_authentication_req 00000028  1005a7d4  1005a7d4  0002a7d4  2**2
                  CONTENTS, ALLOC, LOAD, READONLY, CODE
378 i.SMP_validate_signed_packet 0000007a  1005a7fc  1005a7fc  0002a7fc  2**1
                  CONTENTS, ALLOC, LOAD, READONLY, CODE
379 i.aci_gap_authorization_req_event_push 00000054  1005a878  1005a878  0002a878  2**2
                  CONTENTS, ALLOC, LOAD, READONLY, CODE
380 i.aci_gap_pairing_complete_event_push 0000005c  1005a8cc  1005a8cc  0002a8cc  2**2
                  CONTENTS, ALLOC, LOAD, READONLY, CODE
381 i.smp_Keys_Distribution_Complete 00000032  1005a928  1005a928  0002a928  2**1
                  CONTENTS, ALLOC, LOAD, READONLY, CODE
382 i.smp_add_pairing_record_to_bonding_database 00000148  1005a95c  1005a95c  0002a95c  2**2
                  CONTENTS, ALLOC, LOAD, READONLY, CODE
383 i.smp_find_remote_device_index 00000044  1005aaa4  1005aaa4  0002aaa4  2**2
                  CONTENTS, ALLOC, LOAD, READONLY, CODE
384 i.smp_flush_rx_queues 00000038  1005aae8  1005aae8  0002aae8  2**2
                  CONTENTS, ALLOC, LOAD, READONLY, CODE
385 i.smp_get_CSRK 0000001e  1005ab20  1005ab20  0002ab20  2**1
                  CONTENTS, ALLOC, LOAD, READONLY, CODE
386 i.smp_get_local_identity_address 0000003c  1005ab40  1005ab40  0002ab40  2**2
                  CONTENTS, ALLOC, LOAD, READONLY, CODE
387 i.smp_is_any_pairing_ongoing 0000004c  1005ab7c  1005ab7c  0002ab7c  2**2
                  CONTENTS, ALLOC, LOAD, READONLY, CODE
388 i.smp_keys_distribution_start 00000038  1005abc8  1005abc8  0002abc8  2**1
                  CONTENTS, ALLOC, LOAD, READONLY, CODE
389 i.smp_keys_receiving 000000d6  1005ac00  1005ac00  0002ac00  2**1
                  CONTENTS, ALLOC, LOAD, READONLY, CODE
390 i.smp_oob_check_is_remote_data_present 0000003c  1005acd8  1005acd8  0002acd8  2**2
                  CONTENTS, ALLOC, LOAD, READONLY, CODE
391 i.smp_pairing_2octets_packet_send 00000034  1005ad14  1005ad14  0002ad14  2**1
                  CONTENTS, ALLOC, LOAD, READONLY, CODE
392 i.smp_pairing_completed 00000078  1005ad48  1005ad48  0002ad48  2**2
                  CONTENTS, ALLOC, LOAD, READONLY, CODE
393 i.smp_pairing_failed_receive 00000010  1005adc0  1005adc0  0002adc0  2**1
                  CONTENTS, ALLOC, LOAD, READONLY, CODE
394 i.smp_pairing_failed_send 0000002a  1005add0  1005add0  0002add0  2**1
                  CONTENTS, ALLOC, LOAD, READONLY, CODE
395 i.smp_pairing_process_abort 00000064  1005adfc  1005adfc  0002adfc  2**2
                  CONTENTS, ALLOC, LOAD, READONLY, CODE
396 i.smp_repeated_attacks_protection 000000f0  1005ae60  1005ae60  0002ae60  2**2
                  CONTENTS, ALLOC, LOAD, READONLY, CODE
397 i.smp_update_statistics_on_pairing_complete 00000038  1005af50  1005af50  0002af50  2**2
                  CONTENTS, ALLOC, LOAD, READONLY, CODE
398 i.smp_sc_check_for_ecc_pk_generation_request_ucfg 00000002  1005af88  1005af88  0002af88  2**1
                  CONTENTS, ALLOC, LOAD, READONLY, CODE
399 i.smp_sc_continue_on_exclusive_sc_pairing_ucfg 00000004  1005af8a  1005af8a  0002af8a  2**1
                  CONTENTS, ALLOC, LOAD, READONLY, CODE
400 i.smp_sc_init_ucfg 00000002  1005af8e  1005af8e  0002af8e  2**1
                  CONTENTS, ALLOC, LOAD, READONLY, CODE
401 i.smp_sc_update_statistics_on_pairing_complete_ucfg 00000002  1005af90  1005af90  0002af90  2**1
                  CONTENTS, ALLOC, LOAD, READONLY, CODE
402 i.secure_connections_csr_ucfg 00000004  1005af92  1005af92  0002af92  2**1
                  CONTENTS, ALLOC, LOAD, READONLY, CODE
403 i.smp_sc_hci_le_generate_dhkey_complete_evt_hndl_ucfg 00000002  1005af96  1005af96  0002af96  2**1
                  CONTENTS, ALLOC, LOAD, READONLY, CODE
404 i.smp_sc_hci_le_read_local_p256_public_key_complete_evt_hndl_ucfg 00000002  1005af98  1005af98  0002af98  2**1
                  CONTENTS, ALLOC, LOAD, READONLY, CODE
405 i.Delay_With_NOP_Cycles 0000000e  1005af9a  1005af9a  0002af9a  2**1
                  CONTENTS, ALLOC, LOAD, READONLY, CODE
406 i.is_Buffer_All_Set_To 0000001e  1005afa8  1005afa8  0002afa8  2**1
                  CONTENTS, ALLOC, LOAD, READONLY, CODE
407 i.Events_Process_Q 0000010c  1005afc8  1005afc8  0002afc8  2**2
                  CONTENTS, ALLOC, LOAD, READONLY, CODE
408 i.Events_Process_init 0000004c  1005b0d4  1005b0d4  0002b0d4  2**2
                  CONTENTS, ALLOC, LOAD, READONLY, CODE
409 i.aci_att_exchange_mtu_resp_event 00000002  1005b120  1005b120  0002b120  2**1
                  CONTENTS, ALLOC, LOAD, READONLY, CODE
410 i.aci_att_exec_write_resp_event 00000002  1005b122  1005b122  0002b122  2**1
                  CONTENTS, ALLOC, LOAD, READONLY, CODE
411 i.aci_att_find_by_type_value_resp_event 00000002  1005b124  1005b124  0002b124  2**1
                  CONTENTS, ALLOC, LOAD, READONLY, CODE
412 i.aci_att_find_info_resp_event 00000002  1005b126  1005b126  0002b126  2**1
                  CONTENTS, ALLOC, LOAD, READONLY, CODE
413 i.aci_att_prepare_write_resp_event 00000002  1005b128  1005b128  0002b128  2**1
                  CONTENTS, ALLOC, LOAD, READONLY, CODE
414 i.aci_att_read_blob_resp_event 00000002  1005b12a  1005b12a  0002b12a  2**1
                  CONTENTS, ALLOC, LOAD, READONLY, CODE
415 i.aci_att_read_by_group_type_resp_event 00000002  1005b12c  1005b12c  0002b12c  2**1
                  CONTENTS, ALLOC, LOAD, READONLY, CODE
416 i.aci_att_read_by_type_resp_event 00000002  1005b12e  1005b12e  0002b12e  2**1
                  CONTENTS, ALLOC, LOAD, READONLY, CODE
417 i.aci_att_read_multiple_resp_event 00000002  1005b130  1005b130  0002b130  2**1
                  CONTENTS, ALLOC, LOAD, READONLY, CODE
418 i.aci_att_read_resp_event 00000002  1005b132  1005b132  0002b132  2**1
                  CONTENTS, ALLOC, LOAD, READONLY, CODE
419 i.aci_att_write_resp_event 00000002  1005b134  1005b134  0002b134  2**1
                  CONTENTS, ALLOC, LOAD, READONLY, CODE
420 i.aci_event_fifo_push 00000028  1005b138  1005b138  0002b138  2**2
                  CONTENTS, ALLOC, LOAD, READONLY, CODE
421 i.aci_event_fifo_push_header 000000bc  1005b160  1005b160  0002b160  2**2
                  CONTENTS, ALLOC, LOAD, READONLY, CODE
422 i.aci_gap_addr_not_resolved_event 00000002  1005b21c  1005b21c  0002b21c  2**1
                  CONTENTS, ALLOC, LOAD, READONLY, CODE
423 i.aci_gap_authorization_req_event 00000002  1005b21e  1005b21e  0002b21e  2**1
                  CONTENTS, ALLOC, LOAD, READONLY, CODE
424 i.aci_gap_bond_lost_event 00000002  1005b220  1005b220  0002b220  2**1
                  CONTENTS, ALLOC, LOAD, READONLY, CODE
425 i.aci_gap_device_found_event 00000002  1005b222  1005b222  0002b222  2**1
                  CONTENTS, ALLOC, LOAD, READONLY, CODE
426 i.aci_gap_keypress_notification_event 00000002  1005b224  1005b224  0002b224  2**1
                  CONTENTS, ALLOC, LOAD, READONLY, CODE
427 i.aci_gap_limited_discoverable_event 00000002  1005b226  1005b226  0002b226  2**1
                  CONTENTS, ALLOC, LOAD, READONLY, CODE
428 i.aci_gap_numeric_comparison_value_event 00000002  1005b228  1005b228  0002b228  2**1
                  CONTENTS, ALLOC, LOAD, READONLY, CODE
429 i.aci_gap_proc_complete_event 00000002  1005b22a  1005b22a  0002b22a  2**1
                  CONTENTS, ALLOC, LOAD, READONLY, CODE
430 i.aci_gap_slave_security_initiated_event 00000002  1005b22c  1005b22c  0002b22c  2**1
                  CONTENTS, ALLOC, LOAD, READONLY, CODE
431 i.aci_gatt_disc_read_char_by_uuid_resp_event 00000002  1005b22e  1005b22e  0002b22e  2**1
                  CONTENTS, ALLOC, LOAD, READONLY, CODE
432 i.aci_gatt_error_resp_event 00000002  1005b230  1005b230  0002b230  2**1
                  CONTENTS, ALLOC, LOAD, READONLY, CODE
433 i.aci_gatt_indication_event 00000002  1005b232  1005b232  0002b232  2**1
                  CONTENTS, ALLOC, LOAD, READONLY, CODE
434 i.aci_gatt_notification_event 00000002  1005b234  1005b234  0002b234  2**1
                  CONTENTS, ALLOC, LOAD, READONLY, CODE
435 i.aci_gatt_prepare_write_permit_req_event 00000002  1005b236  1005b236  0002b236  2**1
                  CONTENTS, ALLOC, LOAD, READONLY, CODE
436 i.aci_gatt_proc_complete_event 00000002  1005b238  1005b238  0002b238  2**1
                  CONTENTS, ALLOC, LOAD, READONLY, CODE
437 i.aci_gatt_proc_timeout_event 00000002  1005b23a  1005b23a  0002b23a  2**1
                  CONTENTS, ALLOC, LOAD, READONLY, CODE
438 i.aci_gatt_read_multi_permit_req_event 00000002  1005b23c  1005b23c  0002b23c  2**1
                  CONTENTS, ALLOC, LOAD, READONLY, CODE
439 i.aci_gatt_server_confirmation_event 00000002  1005b23e  1005b23e  0002b23e  2**1
                  CONTENTS, ALLOC, LOAD, READONLY, CODE
440 i.aci_gatt_write_permit_req_event 00000002  1005b240  1005b240  0002b240  2**1
                  CONTENTS, ALLOC, LOAD, READONLY, CODE
441 i.aci_hal_fw_error_event 00000002  1005b242  1005b242  0002b242  2**1
                  CONTENTS, ALLOC, LOAD, READONLY, CODE
442 i.aci_hal_scan_req_report_event 00000002  1005b244  1005b244  0002b244  2**1
                  CONTENTS, ALLOC, LOAD, READONLY, CODE
443 i.aci_l2cap_command_reject_event 00000002  1005b246  1005b246  0002b246  2**1
                  CONTENTS, ALLOC, LOAD, READONLY, CODE
444 i.aci_l2cap_connection_update_req_event 00000002  1005b248  1005b248  0002b248  2**1
                  CONTENTS, ALLOC, LOAD, READONLY, CODE
445 i.aci_l2cap_connection_update_resp_event 00000002  1005b24a  1005b24a  0002b24a  2**1
                  CONTENTS, ALLOC, LOAD, READONLY, CODE
446 i.aci_l2cap_proc_timeout_event 00000002  1005b24c  1005b24c  0002b24c  2**1
                  CONTENTS, ALLOC, LOAD, READONLY, CODE
447 i.cb_aci_att_exchange_mtu_resp_event 00000024  1005b250  1005b250  0002b250  2**2
                  CONTENTS, ALLOC, LOAD, READONLY, CODE
448 i.cb_aci_att_exec_write_resp_event 00000020  1005b274  1005b274  0002b274  2**2
                  CONTENTS, ALLOC, LOAD, READONLY, CODE
449 i.cb_aci_att_find_by_type_value_resp_event 00000024  1005b294  1005b294  0002b294  2**2
                  CONTENTS, ALLOC, LOAD, READONLY, CODE
450 i.cb_aci_att_find_info_resp_event 00000028  1005b2b8  1005b2b8  0002b2b8  2**2
                  CONTENTS, ALLOC, LOAD, READONLY, CODE
451 i.cb_aci_att_prepare_write_resp_event 0000002c  1005b2e0  1005b2e0  0002b2e0  2**2
                  CONTENTS, ALLOC, LOAD, READONLY, CODE
452 i.cb_aci_att_read_blob_resp_event 00000024  1005b30c  1005b30c  0002b30c  2**2
                  CONTENTS, ALLOC, LOAD, READONLY, CODE
453 i.cb_aci_att_read_by_group_type_resp_event 00000028  1005b330  1005b330  0002b330  2**2
                  CONTENTS, ALLOC, LOAD, READONLY, CODE
454 i.cb_aci_att_read_by_type_resp_event 00000028  1005b358  1005b358  0002b358  2**2
                  CONTENTS, ALLOC, LOAD, READONLY, CODE
455 i.cb_aci_att_read_multiple_resp_event 00000024  1005b380  1005b380  0002b380  2**2
                  CONTENTS, ALLOC, LOAD, READONLY, CODE
456 i.cb_aci_att_read_resp_event 00000024  1005b3a4  1005b3a4  0002b3a4  2**2
                  CONTENTS, ALLOC, LOAD, READONLY, CODE
457 i.cb_aci_att_write_resp_event 00000024  1005b3c8  1005b3c8  0002b3c8  2**2
                  CONTENTS, ALLOC, LOAD, READONLY, CODE
458 i.cb_aci_gap_addr_not_resolved_event 00000020  1005b3ec  1005b3ec  0002b3ec  2**2
                  CONTENTS, ALLOC, LOAD, READONLY, CODE
459 i.cb_aci_gap_authorization_req_event 00000020  1005b40c  1005b40c  0002b40c  2**2
                  CONTENTS, ALLOC, LOAD, READONLY, CODE
460 i.cb_aci_gap_bond_lost_event 0000001c  1005b42c  1005b42c  0002b42c  2**2
                  CONTENTS, ALLOC, LOAD, READONLY, CODE
461 i.cb_aci_gap_device_found_event 00000020  1005b448  1005b448  0002b448  2**2
                  CONTENTS, ALLOC, LOAD, READONLY, CODE
462 i.cb_aci_gap_keypress_notification_event 00000024  1005b468  1005b468  0002b468  2**2
                  CONTENTS, ALLOC, LOAD, READONLY, CODE
463 i.cb_aci_gap_limited_discoverable_event 0000001c  1005b48c  1005b48c  0002b48c  2**2
                  CONTENTS, ALLOC, LOAD, READONLY, CODE
464 i.cb_aci_gap_numeric_comparison_value_event 00000024  1005b4a8  1005b4a8  0002b4a8  2**2
                  CONTENTS, ALLOC, LOAD, READONLY, CODE
465 i.cb_aci_gap_pairing_complete_event 00000024  1005b4cc  1005b4cc  0002b4cc  2**2
                  CONTENTS, ALLOC, LOAD, READONLY, CODE
466 i.cb_aci_gap_pass_key_req_event 00000020  1005b4f0  1005b4f0  0002b4f0  2**2
                  CONTENTS, ALLOC, LOAD, READONLY, CODE
467 i.cb_aci_gap_proc_complete_event 00000028  1005b510  1005b510  0002b510  2**2
                  CONTENTS, ALLOC, LOAD, READONLY, CODE
468 i.cb_aci_gap_slave_security_initiated_event 0000001c  1005b538  1005b538  0002b538  2**2
                  CONTENTS, ALLOC, LOAD, READONLY, CODE
469 i.cb_aci_gatt_attribute_modified_event 0000002c  1005b554  1005b554  0002b554  2**2
                  CONTENTS, ALLOC, LOAD, READONLY, CODE
470 i.cb_aci_gatt_disc_read_char_by_uuid_resp_event 00000028  1005b580  1005b580  0002b580  2**2
                  CONTENTS, ALLOC, LOAD, READONLY, CODE
471 i.cb_aci_gatt_error_resp_event 00000028  1005b5a8  1005b5a8  0002b5a8  2**2
                  CONTENTS, ALLOC, LOAD, READONLY, CODE
472 i.cb_aci_gatt_indication_event 00000028  1005b5d0  1005b5d0  0002b5d0  2**2
                  CONTENTS, ALLOC, LOAD, READONLY, CODE
473 i.cb_aci_gatt_notification_event 00000028  1005b5f8  1005b5f8  0002b5f8  2**2
                  CONTENTS, ALLOC, LOAD, READONLY, CODE
474 i.cb_aci_gatt_prepare_write_permit_req_event 00000016  1005b620  1005b620  0002b620  2**1
                  CONTENTS, ALLOC, LOAD, READONLY, CODE
475 i.cb_aci_gatt_proc_complete_event 00000024  1005b638  1005b638  0002b638  2**2
                  CONTENTS, ALLOC, LOAD, READONLY, CODE
476 i.cb_aci_gatt_proc_timeout_event 00000020  1005b65c  1005b65c  0002b65c  2**2
                  CONTENTS, ALLOC, LOAD, READONLY, CODE
477 i.cb_aci_gatt_read_multi_permit_req_event 00000010  1005b67c  1005b67c  0002b67c  2**1
                  CONTENTS, ALLOC, LOAD, READONLY, CODE
478 i.cb_aci_gatt_read_permit_req_event 00000010  1005b68c  1005b68c  0002b68c  2**1
                  CONTENTS, ALLOC, LOAD, READONLY, CODE
479 i.cb_aci_gatt_server_confirmation_event 0000000a  1005b69c  1005b69c  0002b69c  2**1
                  CONTENTS, ALLOC, LOAD, READONLY, CODE
480 i.cb_aci_gatt_tx_pool_available_event 0000000e  1005b6a6  1005b6a6  0002b6a6  2**1
                  CONTENTS, ALLOC, LOAD, READONLY, CODE
481 i.cb_aci_gatt_write_permit_req_event 00000012  1005b6b4  1005b6b4  0002b6b4  2**1
                  CONTENTS, ALLOC, LOAD, READONLY, CODE
482 i.cb_aci_hal_fw_error_event 00000010  1005b6c6  1005b6c6  0002b6c6  2**1
                  CONTENTS, ALLOC, LOAD, READONLY, CODE
483 i.cb_aci_hal_scan_req_report_event 00000028  1005b6d8  1005b6d8  0002b6d8  2**2
                  CONTENTS, ALLOC, LOAD, READONLY, CODE
484 i.cb_aci_l2cap_command_reject_event 00000016  1005b700  1005b700  0002b700  2**1
                  CONTENTS, ALLOC, LOAD, READONLY, CODE
485 i.cb_aci_l2cap_connection_update_req_event 00000034  1005b718  1005b718  0002b718  2**2
                  CONTENTS, ALLOC, LOAD, READONLY, CODE
486 i.cb_aci_l2cap_connection_update_resp_event 00000024  1005b74c  1005b74c  0002b74c  2**2
                  CONTENTS, ALLOC, LOAD, READONLY, CODE
487 i.cb_aci_l2cap_proc_timeout_event 00000024  1005b770  1005b770  0002b770  2**2
                  CONTENTS, ALLOC, LOAD, READONLY, CODE
488 i.cb_hci_data_buffer_overflow_event 00000002  1005b794  1005b794  0002b794  2**1
                  CONTENTS, ALLOC, LOAD, READONLY, CODE
489 i.cb_hci_disconnection_complete_event 00000024  1005b798  1005b798  0002b798  2**2
                  CONTENTS, ALLOC, LOAD, READONLY, CODE
490 i.cb_hci_encryption_change_event 00000024  1005b7bc  1005b7bc  0002b7bc  2**2
                  CONTENTS, ALLOC, LOAD, READONLY, CODE
491 i.cb_hci_encryption_key_refresh_complete_event 00000024  1005b7e0  1005b7e0  0002b7e0  2**2
                  CONTENTS, ALLOC, LOAD, READONLY, CODE
492 i.cb_hci_le_advertising_report_event 00000024  1005b804  1005b804  0002b804  2**2
                  CONTENTS, ALLOC, LOAD, READONLY, CODE
493 i.cb_hci_le_connection_complete_event 00000044  1005b828  1005b828  0002b828  2**2
                  CONTENTS, ALLOC, LOAD, READONLY, CODE
494 i.cb_hci_le_connection_update_complete_event 00000030  1005b86c  1005b86c  0002b86c  2**2
                  CONTENTS, ALLOC, LOAD, READONLY, CODE
495 i.cb_hci_le_data_length_change_event 00000030  1005b89c  1005b89c  0002b89c  2**2
                  CONTENTS, ALLOC, LOAD, READONLY, CODE
496 i.cb_hci_le_direct_advertising_report_event 00000024  1005b8cc  1005b8cc  0002b8cc  2**2
                  CONTENTS, ALLOC, LOAD, READONLY, CODE
497 i.cb_hci_le_enhanced_connection_complete_event 0000004c  1005b8f0  1005b8f0  0002b8f0  2**2
                  CONTENTS, ALLOC, LOAD, READONLY, CODE
498 i.cb_hci_le_generate_dhkey_complete_event 00000028  1005b93c  1005b93c  0002b93c  2**2
                  CONTENTS, ALLOC, LOAD, READONLY, CODE
499 i.cb_hci_le_long_term_key_request_event 00000028  1005b964  1005b964  0002b964  2**2
                  CONTENTS, ALLOC, LOAD, READONLY, CODE
500 i.cb_hci_le_read_local_p256_public_key_complete_event 00000028  1005b98c  1005b98c  0002b98c  2**2
                  CONTENTS, ALLOC, LOAD, READONLY, CODE
501 i.cb_hci_le_read_remote_used_features_complete_event 0000002c  1005b9b4  1005b9b4  0002b9b4  2**2
                  CONTENTS, ALLOC, LOAD, READONLY, CODE
502 i.cb_hci_number_of_completed_packets_event 0000000a  1005b9e0  1005b9e0  0002b9e0  2**1
                  CONTENTS, ALLOC, LOAD, READONLY, CODE
503 i.cb_hci_read_remote_version_information_complete_event 00000028  1005b9ec  1005b9ec  0002b9ec  2**2
                  CONTENTS, ALLOC, LOAD, READONLY, CODE
504 i.cb_hci_rx_acl_data_event 00000016  1005ba14  1005ba14  0002ba14  2**1
                  CONTENTS, ALLOC, LOAD, READONLY, CODE
505 i.fifoBuf_getFreeHeader 0000006c  1005ba2a  1005ba2a  0002ba2a  2**1
                  CONTENTS, ALLOC, LOAD, READONLY, CODE
506 i.fifoCtrl_init 0000000a  1005ba96  1005ba96  0002ba96  2**1
                  CONTENTS, ALLOC, LOAD, READONLY, CODE
507 i.hci_encryption_change_event 00000002  1005baa0  1005baa0  0002baa0  2**1
                  CONTENTS, ALLOC, LOAD, READONLY, CODE
508 i.hci_encryption_key_refresh_complete_event 00000002  1005baa2  1005baa2  0002baa2  2**1
                  CONTENTS, ALLOC, LOAD, READONLY, CODE
509 i.hci_hardware_error_event 00000002  1005baa4  1005baa4  0002baa4  2**1
                  CONTENTS, ALLOC, LOAD, READONLY, CODE
510 i.hci_le_advertising_report_event 00000002  1005baa6  1005baa6  0002baa6  2**1
                  CONTENTS, ALLOC, LOAD, READONLY, CODE
511 i.hci_le_connection_update_complete_event 00000002  1005baa8  1005baa8  0002baa8  2**1
                  CONTENTS, ALLOC, LOAD, READONLY, CODE
512 i.hci_le_data_length_change_event 00000002  1005baaa  1005baaa  0002baaa  2**1
                  CONTENTS, ALLOC, LOAD, READONLY, CODE
513 i.hci_le_direct_advertising_report_event 00000002  1005baac  1005baac  0002baac  2**1
                  CONTENTS, ALLOC, LOAD, READONLY, CODE
514 i.hci_le_enhanced_connection_complete_event 00000002  1005baae  1005baae  0002baae  2**1
                  CONTENTS, ALLOC, LOAD, READONLY, CODE
515 i.hci_le_generate_dhkey_complete_event 00000002  1005bab0  1005bab0  0002bab0  2**1
                  CONTENTS, ALLOC, LOAD, READONLY, CODE
516 i.hci_le_long_term_key_request_event 00000002  1005bab2  1005bab2  0002bab2  2**1
                  CONTENTS, ALLOC, LOAD, READONLY, CODE
517 i.hci_le_read_local_p256_public_key_complete_event 00000002  1005bab4  1005bab4  0002bab4  2**1
                  CONTENTS, ALLOC, LOAD, READONLY, CODE
518 i.hci_le_read_remote_used_features_complete_event 00000002  1005bab6  1005bab6  0002bab6  2**1
                  CONTENTS, ALLOC, LOAD, READONLY, CODE
519 i.hci_number_of_completed_packets_event 00000002  1005bab8  1005bab8  0002bab8  2**1
                  CONTENTS, ALLOC, LOAD, READONLY, CODE
520 i.hci_read_remote_version_information_complete_event 00000002  1005baba  1005baba  0002baba  2**1
                  CONTENTS, ALLOC, LOAD, READONLY, CODE
521 i.hci_rx_acl_data_event 00000004  1005babc  1005babc  0002babc  2**1
                  CONTENTS, ALLOC, LOAD, READONLY, CODE
522 i.int_cb_hci_disconnection_complete_event 00000026  1005bac0  1005bac0  0002bac0  2**1
                  CONTENTS, ALLOC, LOAD, READONLY, CODE
523 i.int_cb_hci_encryption_change_event 0000001a  1005bae6  1005bae6  0002bae6  2**1
                  CONTENTS, ALLOC, LOAD, READONLY, CODE
524 i.int_cb_hci_encryption_key_refresh_complete_event 0000001a  1005bb00  1005bb00  0002bb00  2**1
                  CONTENTS, ALLOC, LOAD, READONLY, CODE
525 i.int_cb_hci_le_advertising_report_event 0000001e  1005bb1a  1005bb1a  0002bb1a  2**1
                  CONTENTS, ALLOC, LOAD, READONLY, CODE
526 i.int_cb_hci_le_connection_complete_event 00000026  1005bb38  1005bb38  0002bb38  2**1
                  CONTENTS, ALLOC, LOAD, READONLY, CODE
527 i.int_cb_hci_le_data_length_change_event 00000010  1005bb5e  1005bb5e  0002bb5e  2**1
                  CONTENTS, ALLOC, LOAD, READONLY, CODE
528 i.int_cb_hci_le_direct_advertising_report_event 0000001e  1005bb6e  1005bb6e  0002bb6e  2**1
                  CONTENTS, ALLOC, LOAD, READONLY, CODE
529 i.int_cb_hci_le_enhanced_connection_complete_event 00000026  1005bb8c  1005bb8c  0002bb8c  2**1
                  CONTENTS, ALLOC, LOAD, READONLY, CODE
530 i.int_cb_hci_le_generate_dhkey_complete_event 0000001a  1005bbb2  1005bbb2  0002bbb2  2**1
                  CONTENTS, ALLOC, LOAD, READONLY, CODE
531 i.int_cb_hci_le_long_term_key_request_event 0000000c  1005bbcc  1005bbcc  0002bbcc  2**1
                  CONTENTS, ALLOC, LOAD, READONLY, CODE
532 i.int_cb_hci_le_read_local_p256_public_key_complete_event 0000001a  1005bbd8  1005bbd8  0002bbd8  2**1
                  CONTENTS, ALLOC, LOAD, READONLY, CODE
533 i.Acl_Init    00000020  1005bbf4  1005bbf4  0002bbf4  2**2
                  CONTENTS, ALLOC, LOAD, READONLY, CODE
534 i.Acl_Rcv_Pkt_Handler 0000003c  1005bc14  1005bc14  0002bc14  2**2
                  CONTENTS, ALLOC, LOAD, READONLY, CODE
535 i.Acl_Transmit_Data 00000064  1005bc50  1005bc50  0002bc50  2**2
                  CONTENTS, ALLOC, LOAD, READONLY, CODE
536 i.Acl_Tx_Cmpl_Pkt_Handler 00000044  1005bcb4  1005bcb4  0002bcb4  2**2
                  CONTENTS, ALLOC, LOAD, READONLY, CODE
537 i.int_cb_hci_acl_data_ind_event 00000040  1005bcf8  1005bcf8  0002bcf8  2**2
                  CONTENTS, ALLOC, LOAD, READONLY, CODE
538 i.int_cb_hci_acl_data_tx_cmpl_event 00000054  1005bd38  1005bd38  0002bd38  2**2
                  CONTENTS, ALLOC, LOAD, READONLY, CODE
539 i.isr_Acl_Data_Indication_Queue_Full 00000020  1005bd8c  1005bd8c  0002bd8c  2**2
                  CONTENTS, ALLOC, LOAD, READONLY, CODE
540 i.isr_Acl_Data_TX_Cmpl_Queue_Full 00000020  1005bdac  1005bdac  0002bdac  2**2
                  CONTENTS, ALLOC, LOAD, READONLY, CODE
541 i.acl_list_first 00000004  1005bdcc  1005bdcc  0002bdcc  2**1
                  CONTENTS, ALLOC, LOAD, READONLY, CODE
542 i.acl_list_full_on_packt 00000026  1005bdd0  1005bdd0  0002bdd0  2**1
                  CONTENTS, ALLOC, LOAD, READONLY, CODE
543 i.acl_list_init 00000010  1005bdf6  1005bdf6  0002bdf6  2**1
                  CONTENTS, ALLOC, LOAD, READONLY, CODE
544 i.acl_list_insert_head 00000026  1005be06  1005be06  0002be06  2**1
                  CONTENTS, ALLOC, LOAD, READONLY, CODE
545 i.acl_list_insert_tail 0000002c  1005be2c  1005be2c  0002be2c  2**1
                  CONTENTS, ALLOC, LOAD, READONLY, CODE
546 i.acl_list_is_empty 0000000e  1005be58  1005be58  0002be58  2**1
                  CONTENTS, ALLOC, LOAD, READONLY, CODE
547 i.acl_list_remove 00000044  1005be66  1005be66  0002be66  2**1
                  CONTENTS, ALLOC, LOAD, READONLY, CODE
548 i.acl_list_remove_head 0000002e  1005beaa  1005beaa  0002beaa  2**1
                  CONTENTS, ALLOC, LOAD, READONLY, CODE
549 i.advance_wakeup_timer 0000068c  1005bed8  1005bed8  0002bed8  2**2
                  CONTENTS, ALLOC, LOAD, READONLY, CODE
550 i.ATT_fill_error_resp 00000026  1005c564  1005c564  0002c564  2**1
                  CONTENTS, ALLOC, LOAD, READONLY, CODE
551 i.ATT_fill_type_val_entry 00000034  1005c58a  1005c58a  0002c58a  2**1
                  CONTENTS, ALLOC, LOAD, READONLY, CODE
552 i.ATT_validate_prepare_req 000000a2  1005c5be  1005c5be  0002c5be  2**1
                  CONTENTS, ALLOC, LOAD, READONLY, CODE
553 i.Att_Check_Perms 00000050  1005c660  1005c660  0002c660  2**1
                  CONTENTS, ALLOC, LOAD, READONLY, CODE
554 i.CheckSecForSignedWrite 0000002c  1005c6b0  1005c6b0  0002c6b0  2**1
                  CONTENTS, ALLOC, LOAD, READONLY, CODE
555 i.Check_Permission 000000a0  1005c6dc  1005c6dc  0002c6dc  2**1
                  CONTENTS, ALLOC, LOAD, READONLY, CODE
556 i.Exchg_Mtu_Resp 000000b4  1005c77c  1005c77c  0002c77c  2**2
                  CONTENTS, ALLOC, LOAD, READONLY, CODE
557 i.Exec_Write_Resp 000001c0  1005c830  1005c830  0002c830  2**2
                  CONTENTS, ALLOC, LOAD, READONLY, CODE
558 i.Find_By_Type_Val_Resp 000001f0  1005c9f0  1005c9f0  0002c9f0  2**2
                  CONTENTS, ALLOC, LOAD, READONLY, CODE
559 i.Find_Info_Resp 000001e8  1005cbe0  1005cbe0  0002cbe0  2**1
                  CONTENTS, ALLOC, LOAD, READONLY, CODE
560 i.Prepare_Write_Resp 00000178  1005cdc8  1005cdc8  0002cdc8  2**2
                  CONTENTS, ALLOC, LOAD, READONLY, CODE
561 i.Read_Blob_Resp 00000140  1005cf40  1005cf40  0002cf40  2**1
                  CONTENTS, ALLOC, LOAD, READONLY, CODE
562 i.Read_By_Grp_Type_Resp 000001e4  1005d080  1005d080  0002d080  2**2
                  CONTENTS, ALLOC, LOAD, READONLY, CODE
563 i.Read_By_Type_Resp 000002d4  1005d264  1005d264  0002d264  2**2
                  CONTENTS, ALLOC, LOAD, READONLY, CODE
564 i.Read_Multi_Resp 00000194  1005d538  1005d538  0002d538  2**2
                  CONTENTS, ALLOC, LOAD, READONLY, CODE
565 i.Read_Resp   0000012a  1005d6cc  1005d6cc  0002d6cc  2**1
                  CONTENTS, ALLOC, LOAD, READONLY, CODE
566 i.Write_Cmd   0000012c  1005d7f6  1005d7f6  0002d7f6  2**1
                  CONTENTS, ALLOC, LOAD, READONLY, CODE
567 i.Write_Resp  0000013c  1005d922  1005d922  0002d922  2**1
                  CONTENTS, ALLOC, LOAD, READONLY, CODE
568 i.aci_gatt_attribute_modified_event_push 00000078  1005da60  1005da60  0002da60  2**2
                  CONTENTS, ALLOC, LOAD, READONLY, CODE
569 i.aci_gatt_read_multi_permit_req_event_push 00000068  1005dad8  1005dad8  0002dad8  2**2
                  CONTENTS, ALLOC, LOAD, READONLY, CODE
570 i.aci_gatt_read_permit_req_event_push 00000050  1005db40  1005db40  0002db40  2**2
                  CONTENTS, ALLOC, LOAD, READONLY, CODE
571 i.aci_gatt_write_permit_req_event_push 0000006c  1005db90  1005db90  0002db90  2**2
                  CONTENTS, ALLOC, LOAD, READONLY, CODE
572 i.BlueNRG_Stack_Perform_Deep_Sleep_Check 000000b4  1005dbfc  1005dbfc  0002dbfc  2**2
                  CONTENTS, ALLOC, LOAD, READONLY, CODE
573 i.LL_Sleep_Req 00000058  1005dcb0  1005dcb0  0002dcb0  2**2
                  CONTENTS, ALLOC, LOAD, READONLY, CODE
574 i.IDD_Initialize_Device_IDs 00000128  1005dd08  1005dd08  0002dd08  2**2
                  CONTENTS, ALLOC, LOAD, READONLY, CODE
575 i.isr_postproc 000001f4  1005de30  1005de30  0002de30  2**2
                  CONTENTS, ALLOC, LOAD, READONLY, CODE
576 i.LL_receive_data 00000094  1005e024  1005e024  0002e024  2**2
                  CONTENTS, ALLOC, LOAD, READONLY, CODE
577 i.cancel_slave 000000c4  1005e0b8  1005e0b8  0002e0b8  2**2
                  CONTENTS, ALLOC, LOAD, READONLY, CODE
578 .data         00000194  200026b8  1005e23c  000326b8  2**2
                  CONTENTS, ALLOC, LOAD, DATA
579 .BOR_config   00000007  2000284c  1005e3d0  0003284c  2**0
                  CONTENTS, ALLOC, LOAD, DATA
580 .flash_sw_lock 00000004  20002854  1005e3d7  00032854  2**2
                  CONTENTS, ALLOC, LOAD, DATA
581 .rfTimeout    00000004  20002858  1005e3db  00032858  2**2
                  CONTENTS, ALLOC, LOAD, DATA
582 .noinit       000027a4  2000285c  1005e3df  0003285c  2**2
                  CONTENTS, ALLOC, LOAD, DATA
583 .ram_preamble 000000c0  20000000  1005e17c  00030000  2**2
                  CONTENTS, ALLOC, LOAD, DATA
584 .bss          000025f8  200000c0  1005e23c  000300c0  2**2
                  ALLOC
585 BLOCK_STACKLIB_FLASH_DATA 00000838  1007f000  1007f000  0003f000  2**2
                  ALLOC
586 CSTACK        00000000  20005400  20005400  00035000  2**0
                  CONTENTS
587 .rom_info     00000000  10000000  10000000  00035000  2**0
                  CONTENTS
588 .ARM.attributes 00000031  00000000  00000000  00035000  2**0
                  CONTENTS, READONLY
589 .debug_info   00048ab2  00000000  00000000  00035031  2**0
                  CONTENTS, READONLY, DEBUGGING
590 .debug_abbrev 00005817  00000000  00000000  0007dae3  2**0
                  CONTENTS, READONLY, DEBUGGING
591 .debug_loc    0001f937  00000000  00000000  000832fa  2**0
                  CONTENTS, READONLY, DEBUGGING
592 .debug_aranges 00001ca8  00000000  00000000  000a2c38  2**3
                  CONTENTS, READONLY, DEBUGGING
593 .debug_ranges 00003ac8  00000000  00000000  000a48e0  2**0
                  CONTENTS, READONLY, DEBUGGING
594 .debug_line   0000c890  00000000  00000000  000a83a8  2**0
                  CONTENTS, READONLY, DEBUGGING
595 .debug_str    0000e737  00000000  00000000  000b4c38  2**0
                  CONTENTS, READONLY, DEBUGGING
596 .comment      000140d2  00000000  00000000  000c336f  2**0
                  CONTENTS, READONLY
597 .arm_vfe_header 000000c4  00000000  00000000  000d7444  2**2
                  CONTENTS, READONLY
598 .debug_frame  000068b8  00000000  00000000  000d7508  2**2
                  CONTENTS, READONLY, DEBUGGING

Disassembly of section .text:

10040234 <CS_contextSave>:
                 __IMPORT__ savedMSP
                 __IMPORT__ savedICSR
                 __IMPORT__ savedSHCSR
                 __IMPORT__ savedNVIC_ISPR
EXPORT_FUNC(CS_contextSave)
                 MRS    R2, CONTROL             /* load the CONTROL register into R2 */
10040234:	f3ef 8214 	mrs	r2, CONTROL
                 MRS    R1, PSP                 /* load the process stack pointer into R1 */
10040238:	f3ef 8109 	mrs	r1, PSP
                 LDR    R0, =0
1004023c:	2000      	movs	r0, #0
                 MSR    CONTROL, R0             /* Switch to Main Stack Pointer */
1004023e:	f380 8814 	msr	CONTROL, r0
                 ISB
10040242:	f3bf 8f6f 	isb	sy
                 SUB    SP, #0x44			    /* Move stack pointer in order to be sure that after wake up the __low_level_init()
                                                   will not corrupt data saved in the stack by CS_contextSave routine.
                                                   WARNING: this instruction breaks backward compatibility with previous CS_contextRestore. */ 
#endif

                 PUSH   { r4 - r7, lr }         /* store R4-R7 and LR (5 words) onto the stack */
10040246:	b5f0      	push	{r4, r5, r6, r7, lr}
                 MOV    R3, R8                  /* move {r8 - r12} to {r3 - r7} */    
10040248:	4643      	mov	r3, r8
                 MOV    R4, R9
1004024a:	464c      	mov	r4, r9
                 MOV    R5, R10
1004024c:	4655      	mov	r5, sl
                 MOV    R6, R11        
1004024e:	465e      	mov	r6, fp
                 MOV    R7, R12        
10040250:	4667      	mov	r7, ip
                 PUSH   {R3-R7}                 /* store R8-R12 (5 words) onto the stack */
10040252:	b4f8      	push	{r3, r4, r5, r6, r7}
                 
                 LDR    R4, =savedMSP           /* load address of savedMSP into R4 */
10040254:	4c16      	ldr	r4, [pc, #88]	; (100402b0 <CS_contextRestore+0x2a>)
                 MRS    R3, MSP                 /* load the stack pointer into R3 */
10040256:	f3ef 8308 	mrs	r3, MSP
                 STR    R3, [R4]                /* store the MSP into savedMSP */
1004025a:	6023      	str	r3, [r4, #0]

                 PUSH   { r1, r2 }               /*  store PSP, CONTROL */
1004025c:	b406      	push	{r1, r2}
                 
                 LDR    R4, =0xE000ED04         /* load address of ICSR register into R4 */
1004025e:	4c15      	ldr	r4, [pc, #84]	; (100402b4 <CS_contextRestore+0x2e>)
                 LDR    R0, [R4]                /* load the ICSR register value into R0 */
10040260:	6820      	ldr	r0, [r4, #0]
                 LDR    R4, =savedICSR          /* load address of savedICSR into R4 */
10040262:	4c15      	ldr	r4, [pc, #84]	; (100402b8 <CS_contextRestore+0x32>)
                 STR    R0, [R4]                /* store the ICSR register value into savedICSR */
10040264:	6020      	str	r0, [r4, #0]

                 LDR    R4, =0xE000ED24         /* load address of SHCSR register into R4 */
10040266:	4c15      	ldr	r4, [pc, #84]	; (100402bc <CS_contextRestore+0x36>)
                 LDR    R0, [R4]                /* load the SHCSR register value into R0 */
10040268:	6820      	ldr	r0, [r4, #0]
                 LDR    R4, =savedSHCSR         /* load address of savedSHCSR into R4 */
1004026a:	4c15      	ldr	r4, [pc, #84]	; (100402c0 <CS_contextRestore+0x3a>)
                 STR    R0, [R4]                /* store the SHCSR register value into savedSHCSR */
1004026c:	6020      	str	r0, [r4, #0]

                 LDR    R4, =0xE000E200         /* load address of NVIC_ISPR register into R4 */
1004026e:	4c15      	ldr	r4, [pc, #84]	; (100402c4 <CS_contextRestore+0x3e>)
                 LDR    R0, [R4]                /* load the NVIC_ISPR register value into R0 */
10040270:	6820      	ldr	r0, [r4, #0]
                 LDR    R4, =savedNVIC_ISPR     /* load address of savedNVIC_ISPR into R4 */
10040272:	4c15      	ldr	r4, [pc, #84]	; (100402c8 <CS_contextRestore+0x42>)
                 STR    R0, [R4]                /* store the NVIC_ISPR register value into savedNVIC_ISPR */
10040274:	6020      	str	r0, [r4, #0]

                 LDR    R4, =0x40200008         /* setup the  SYSTEM_CTRL->CTRL_b.MHZ32_SEL = 0 */
10040276:	4c15      	ldr	r4, [pc, #84]	; (100402cc <CS_contextRestore+0x46>)
                 LDR    R7, [R4]
10040278:	6827      	ldr	r7, [r4, #0]
                 MOVS   R0, #0                 
1004027a:	2000      	movs	r0, #0
                 STR    R0, [R4]
1004027c:	6020      	str	r0, [r4, #0]

                 DSB
1004027e:	f3bf 8f4f 	dsb	sy
                 WFI                            /* all saved, trigger deep sleep */
10040282:	bf30      	wfi
                 
                 STR    R7, [R4]                /* if WFI will be skipped restore the content of the 
10040284:	6027      	str	r7, [r4, #0]

10040286 <CS_contextRestore>:
EXPORT_FUNC(CS_contextRestore)
                /* Even if we fall through the WFI instruction, we will immediately
                 * execute a context restore and end up where we left off with no
                 * ill effects.  Normally at this point the core will either be
                 * powered off or reset (depending on the deep sleep level). */
                LDR    R4, =savedMSP            /* load address of savedMSP into R4 */
10040286:	4c0a      	ldr	r4, [pc, #40]	; (100402b0 <CS_contextRestore+0x2a>)
                LDR    R4, [R4]                 /* load the MSP from savedMSP */
10040288:	6824      	ldr	r4, [r4, #0]
                MSR    MSP, R4                  /* restore the MSP from R4 */
1004028a:	f384 8808 	msr	MSP, r4
              
                SUB    SP, #0x8               
1004028e:	b082      	sub	sp, #8
                POP    { R0, R1 }               /* load PSP from the stack in R0, and  load CONTROL register from the stack in R1 */
10040290:	bc03      	pop	{r0, r1}
                
                POP    { R3-R7 }                /* load R8-R12 (5 words) from the stack */
10040292:	bcf8      	pop	{r3, r4, r5, r6, r7}
                MOV    R8, R3                   /* mov {r3 - r7} to {r8 - r12} */
10040294:	4698      	mov	r8, r3
                MOV    R9, R4
10040296:	46a1      	mov	r9, r4
                MOV    R10, R5
10040298:	46aa      	mov	sl, r5
                MOV    R11, R6
1004029a:	46b3      	mov	fp, r6
                MOV    R12, R7
1004029c:	46bc      	mov	ip, r7
                POP    { R4 - R7 }              /* load R4-R7 (4 words) from the stack */
1004029e:	bcf0      	pop	{r4, r5, r6, r7}
                POP    { R2 }                   /* load LR from the stack */
100402a0:	bc04      	pop	{r2}
#ifdef CONTEXT_SAVE_V2
                ADD	   SP, #0x44                /* Restore MSP to the point where it was before pushing data to the stack in CS_contextSave */
#endif
                
                MSR    PSP, R0                   /* restore PSP from R0 */
100402a2:	f380 8809 	msr	PSP, r0
                MSR    CONTROL , R1              /* restore CONTROL register from R1 */
100402a6:	f381 8814 	msr	CONTROL, r1
                ISB
100402aa:	f3bf 8f6f 	isb	sy
 
                BX  R2                          /*load PC (1 words) from the stack */
100402ae:	4710      	bx	r2
                 LDR    R4, =savedMSP           /* load address of savedMSP into R4 */
100402b0:	20000008 	.word	0x20000008
                 LDR    R4, =0xE000ED04         /* load address of ICSR register into R4 */
100402b4:	e000ed04 	.word	0xe000ed04
                 LDR    R4, =savedICSR          /* load address of savedICSR into R4 */
100402b8:	20002150 	.word	0x20002150
                 LDR    R4, =0xE000ED24         /* load address of SHCSR register into R4 */
100402bc:	e000ed24 	.word	0xe000ed24
                 LDR    R4, =savedSHCSR         /* load address of savedSHCSR into R4 */
100402c0:	2000214c 	.word	0x2000214c
                 LDR    R4, =0xE000E200         /* load address of NVIC_ISPR register into R4 */
100402c4:	e000e200 	.word	0xe000e200
                 LDR    R4, =savedNVIC_ISPR     /* load address of savedNVIC_ISPR into R4 */
100402c8:	20002154 	.word	0x20002154
                 LDR    R4, =0x40200008         /* setup the  SYSTEM_CTRL->CTRL_b.MHZ32_SEL = 0 */
100402cc:	40200008 	.word	0x40200008

100402d0 <__gnu_thumb1_case_uqi>:
100402d0:	b402      	push	{r1}
100402d2:	4671      	mov	r1, lr
100402d4:	0849      	lsrs	r1, r1, #1
100402d6:	0049      	lsls	r1, r1, #1
100402d8:	5c09      	ldrb	r1, [r1, r0]
100402da:	0049      	lsls	r1, r1, #1
100402dc:	448e      	add	lr, r1
100402de:	bc02      	pop	{r1}
100402e0:	4770      	bx	lr
100402e2:	46c0      	nop			; (mov r8, r8)

100402e4 <__udivsi3>:
100402e4:	2200      	movs	r2, #0
100402e6:	0843      	lsrs	r3, r0, #1
100402e8:	428b      	cmp	r3, r1
100402ea:	d374      	bcc.n	100403d6 <__udivsi3+0xf2>
100402ec:	0903      	lsrs	r3, r0, #4
100402ee:	428b      	cmp	r3, r1
100402f0:	d35f      	bcc.n	100403b2 <__udivsi3+0xce>
100402f2:	0a03      	lsrs	r3, r0, #8
100402f4:	428b      	cmp	r3, r1
100402f6:	d344      	bcc.n	10040382 <__udivsi3+0x9e>
100402f8:	0b03      	lsrs	r3, r0, #12
100402fa:	428b      	cmp	r3, r1
100402fc:	d328      	bcc.n	10040350 <__udivsi3+0x6c>
100402fe:	0c03      	lsrs	r3, r0, #16
10040300:	428b      	cmp	r3, r1
10040302:	d30d      	bcc.n	10040320 <__udivsi3+0x3c>
10040304:	22ff      	movs	r2, #255	; 0xff
10040306:	0209      	lsls	r1, r1, #8
10040308:	ba12      	rev	r2, r2
1004030a:	0c03      	lsrs	r3, r0, #16
1004030c:	428b      	cmp	r3, r1
1004030e:	d302      	bcc.n	10040316 <__udivsi3+0x32>
10040310:	1212      	asrs	r2, r2, #8
10040312:	0209      	lsls	r1, r1, #8
10040314:	d065      	beq.n	100403e2 <__udivsi3+0xfe>
10040316:	0b03      	lsrs	r3, r0, #12
10040318:	428b      	cmp	r3, r1
1004031a:	d319      	bcc.n	10040350 <__udivsi3+0x6c>
1004031c:	e000      	b.n	10040320 <__udivsi3+0x3c>
1004031e:	0a09      	lsrs	r1, r1, #8
10040320:	0bc3      	lsrs	r3, r0, #15
10040322:	428b      	cmp	r3, r1
10040324:	d301      	bcc.n	1004032a <__udivsi3+0x46>
10040326:	03cb      	lsls	r3, r1, #15
10040328:	1ac0      	subs	r0, r0, r3
1004032a:	4152      	adcs	r2, r2
1004032c:	0b83      	lsrs	r3, r0, #14
1004032e:	428b      	cmp	r3, r1
10040330:	d301      	bcc.n	10040336 <__udivsi3+0x52>
10040332:	038b      	lsls	r3, r1, #14
10040334:	1ac0      	subs	r0, r0, r3
10040336:	4152      	adcs	r2, r2
10040338:	0b43      	lsrs	r3, r0, #13
1004033a:	428b      	cmp	r3, r1
1004033c:	d301      	bcc.n	10040342 <__udivsi3+0x5e>
1004033e:	034b      	lsls	r3, r1, #13
10040340:	1ac0      	subs	r0, r0, r3
10040342:	4152      	adcs	r2, r2
10040344:	0b03      	lsrs	r3, r0, #12
10040346:	428b      	cmp	r3, r1
10040348:	d301      	bcc.n	1004034e <__udivsi3+0x6a>
1004034a:	030b      	lsls	r3, r1, #12
1004034c:	1ac0      	subs	r0, r0, r3
1004034e:	4152      	adcs	r2, r2
10040350:	0ac3      	lsrs	r3, r0, #11
10040352:	428b      	cmp	r3, r1
10040354:	d301      	bcc.n	1004035a <__udivsi3+0x76>
10040356:	02cb      	lsls	r3, r1, #11
10040358:	1ac0      	subs	r0, r0, r3
1004035a:	4152      	adcs	r2, r2
1004035c:	0a83      	lsrs	r3, r0, #10
1004035e:	428b      	cmp	r3, r1
10040360:	d301      	bcc.n	10040366 <__udivsi3+0x82>
10040362:	028b      	lsls	r3, r1, #10
10040364:	1ac0      	subs	r0, r0, r3
10040366:	4152      	adcs	r2, r2
10040368:	0a43      	lsrs	r3, r0, #9
1004036a:	428b      	cmp	r3, r1
1004036c:	d301      	bcc.n	10040372 <__udivsi3+0x8e>
1004036e:	024b      	lsls	r3, r1, #9
10040370:	1ac0      	subs	r0, r0, r3
10040372:	4152      	adcs	r2, r2
10040374:	0a03      	lsrs	r3, r0, #8
10040376:	428b      	cmp	r3, r1
10040378:	d301      	bcc.n	1004037e <__udivsi3+0x9a>
1004037a:	020b      	lsls	r3, r1, #8
1004037c:	1ac0      	subs	r0, r0, r3
1004037e:	4152      	adcs	r2, r2
10040380:	d2cd      	bcs.n	1004031e <__udivsi3+0x3a>
10040382:	09c3      	lsrs	r3, r0, #7
10040384:	428b      	cmp	r3, r1
10040386:	d301      	bcc.n	1004038c <__udivsi3+0xa8>
10040388:	01cb      	lsls	r3, r1, #7
1004038a:	1ac0      	subs	r0, r0, r3
1004038c:	4152      	adcs	r2, r2
1004038e:	0983      	lsrs	r3, r0, #6
10040390:	428b      	cmp	r3, r1
10040392:	d301      	bcc.n	10040398 <__udivsi3+0xb4>
10040394:	018b      	lsls	r3, r1, #6
10040396:	1ac0      	subs	r0, r0, r3
10040398:	4152      	adcs	r2, r2
1004039a:	0943      	lsrs	r3, r0, #5
1004039c:	428b      	cmp	r3, r1
1004039e:	d301      	bcc.n	100403a4 <__udivsi3+0xc0>
100403a0:	014b      	lsls	r3, r1, #5
100403a2:	1ac0      	subs	r0, r0, r3
100403a4:	4152      	adcs	r2, r2
100403a6:	0903      	lsrs	r3, r0, #4
100403a8:	428b      	cmp	r3, r1
100403aa:	d301      	bcc.n	100403b0 <__udivsi3+0xcc>
100403ac:	010b      	lsls	r3, r1, #4
100403ae:	1ac0      	subs	r0, r0, r3
100403b0:	4152      	adcs	r2, r2
100403b2:	08c3      	lsrs	r3, r0, #3
100403b4:	428b      	cmp	r3, r1
100403b6:	d301      	bcc.n	100403bc <__udivsi3+0xd8>
100403b8:	00cb      	lsls	r3, r1, #3
100403ba:	1ac0      	subs	r0, r0, r3
100403bc:	4152      	adcs	r2, r2
100403be:	0883      	lsrs	r3, r0, #2
100403c0:	428b      	cmp	r3, r1
100403c2:	d301      	bcc.n	100403c8 <__udivsi3+0xe4>
100403c4:	008b      	lsls	r3, r1, #2
100403c6:	1ac0      	subs	r0, r0, r3
100403c8:	4152      	adcs	r2, r2
100403ca:	0843      	lsrs	r3, r0, #1
100403cc:	428b      	cmp	r3, r1
100403ce:	d301      	bcc.n	100403d4 <__udivsi3+0xf0>
100403d0:	004b      	lsls	r3, r1, #1
100403d2:	1ac0      	subs	r0, r0, r3
100403d4:	4152      	adcs	r2, r2
100403d6:	1a41      	subs	r1, r0, r1
100403d8:	d200      	bcs.n	100403dc <__udivsi3+0xf8>
100403da:	4601      	mov	r1, r0
100403dc:	4152      	adcs	r2, r2
100403de:	4610      	mov	r0, r2
100403e0:	4770      	bx	lr
100403e2:	e7ff      	b.n	100403e4 <__udivsi3+0x100>
100403e4:	b501      	push	{r0, lr}
100403e6:	2000      	movs	r0, #0
100403e8:	f000 f8f0 	bl	100405cc <__aeabi_idiv0>
100403ec:	bd02      	pop	{r1, pc}
100403ee:	46c0      	nop			; (mov r8, r8)

100403f0 <__aeabi_uidivmod>:
100403f0:	2900      	cmp	r1, #0
100403f2:	d0f7      	beq.n	100403e4 <__udivsi3+0x100>
100403f4:	e776      	b.n	100402e4 <__udivsi3>
100403f6:	4770      	bx	lr

100403f8 <__divsi3>:
100403f8:	4603      	mov	r3, r0
100403fa:	430b      	orrs	r3, r1
100403fc:	d47f      	bmi.n	100404fe <__divsi3+0x106>
100403fe:	2200      	movs	r2, #0
10040400:	0843      	lsrs	r3, r0, #1
10040402:	428b      	cmp	r3, r1
10040404:	d374      	bcc.n	100404f0 <__divsi3+0xf8>
10040406:	0903      	lsrs	r3, r0, #4
10040408:	428b      	cmp	r3, r1
1004040a:	d35f      	bcc.n	100404cc <__divsi3+0xd4>
1004040c:	0a03      	lsrs	r3, r0, #8
1004040e:	428b      	cmp	r3, r1
10040410:	d344      	bcc.n	1004049c <__divsi3+0xa4>
10040412:	0b03      	lsrs	r3, r0, #12
10040414:	428b      	cmp	r3, r1
10040416:	d328      	bcc.n	1004046a <__divsi3+0x72>
10040418:	0c03      	lsrs	r3, r0, #16
1004041a:	428b      	cmp	r3, r1
1004041c:	d30d      	bcc.n	1004043a <__divsi3+0x42>
1004041e:	22ff      	movs	r2, #255	; 0xff
10040420:	0209      	lsls	r1, r1, #8
10040422:	ba12      	rev	r2, r2
10040424:	0c03      	lsrs	r3, r0, #16
10040426:	428b      	cmp	r3, r1
10040428:	d302      	bcc.n	10040430 <__divsi3+0x38>
1004042a:	1212      	asrs	r2, r2, #8
1004042c:	0209      	lsls	r1, r1, #8
1004042e:	d065      	beq.n	100404fc <__divsi3+0x104>
10040430:	0b03      	lsrs	r3, r0, #12
10040432:	428b      	cmp	r3, r1
10040434:	d319      	bcc.n	1004046a <__divsi3+0x72>
10040436:	e000      	b.n	1004043a <__divsi3+0x42>
10040438:	0a09      	lsrs	r1, r1, #8
1004043a:	0bc3      	lsrs	r3, r0, #15
1004043c:	428b      	cmp	r3, r1
1004043e:	d301      	bcc.n	10040444 <__divsi3+0x4c>
10040440:	03cb      	lsls	r3, r1, #15
10040442:	1ac0      	subs	r0, r0, r3
10040444:	4152      	adcs	r2, r2
10040446:	0b83      	lsrs	r3, r0, #14
10040448:	428b      	cmp	r3, r1
1004044a:	d301      	bcc.n	10040450 <__divsi3+0x58>
1004044c:	038b      	lsls	r3, r1, #14
1004044e:	1ac0      	subs	r0, r0, r3
10040450:	4152      	adcs	r2, r2
10040452:	0b43      	lsrs	r3, r0, #13
10040454:	428b      	cmp	r3, r1
10040456:	d301      	bcc.n	1004045c <__divsi3+0x64>
10040458:	034b      	lsls	r3, r1, #13
1004045a:	1ac0      	subs	r0, r0, r3
1004045c:	4152      	adcs	r2, r2
1004045e:	0b03      	lsrs	r3, r0, #12
10040460:	428b      	cmp	r3, r1
10040462:	d301      	bcc.n	10040468 <__divsi3+0x70>
10040464:	030b      	lsls	r3, r1, #12
10040466:	1ac0      	subs	r0, r0, r3
10040468:	4152      	adcs	r2, r2
1004046a:	0ac3      	lsrs	r3, r0, #11
1004046c:	428b      	cmp	r3, r1
1004046e:	d301      	bcc.n	10040474 <__divsi3+0x7c>
10040470:	02cb      	lsls	r3, r1, #11
10040472:	1ac0      	subs	r0, r0, r3
10040474:	4152      	adcs	r2, r2
10040476:	0a83      	lsrs	r3, r0, #10
10040478:	428b      	cmp	r3, r1
1004047a:	d301      	bcc.n	10040480 <__divsi3+0x88>
1004047c:	028b      	lsls	r3, r1, #10
1004047e:	1ac0      	subs	r0, r0, r3
10040480:	4152      	adcs	r2, r2
10040482:	0a43      	lsrs	r3, r0, #9
10040484:	428b      	cmp	r3, r1
10040486:	d301      	bcc.n	1004048c <__divsi3+0x94>
10040488:	024b      	lsls	r3, r1, #9
1004048a:	1ac0      	subs	r0, r0, r3
1004048c:	4152      	adcs	r2, r2
1004048e:	0a03      	lsrs	r3, r0, #8
10040490:	428b      	cmp	r3, r1
10040492:	d301      	bcc.n	10040498 <__divsi3+0xa0>
10040494:	020b      	lsls	r3, r1, #8
10040496:	1ac0      	subs	r0, r0, r3
10040498:	4152      	adcs	r2, r2
1004049a:	d2cd      	bcs.n	10040438 <__divsi3+0x40>
1004049c:	09c3      	lsrs	r3, r0, #7
1004049e:	428b      	cmp	r3, r1
100404a0:	d301      	bcc.n	100404a6 <__divsi3+0xae>
100404a2:	01cb      	lsls	r3, r1, #7
100404a4:	1ac0      	subs	r0, r0, r3
100404a6:	4152      	adcs	r2, r2
100404a8:	0983      	lsrs	r3, r0, #6
100404aa:	428b      	cmp	r3, r1
100404ac:	d301      	bcc.n	100404b2 <__divsi3+0xba>
100404ae:	018b      	lsls	r3, r1, #6
100404b0:	1ac0      	subs	r0, r0, r3
100404b2:	4152      	adcs	r2, r2
100404b4:	0943      	lsrs	r3, r0, #5
100404b6:	428b      	cmp	r3, r1
100404b8:	d301      	bcc.n	100404be <__divsi3+0xc6>
100404ba:	014b      	lsls	r3, r1, #5
100404bc:	1ac0      	subs	r0, r0, r3
100404be:	4152      	adcs	r2, r2
100404c0:	0903      	lsrs	r3, r0, #4
100404c2:	428b      	cmp	r3, r1
100404c4:	d301      	bcc.n	100404ca <__divsi3+0xd2>
100404c6:	010b      	lsls	r3, r1, #4
100404c8:	1ac0      	subs	r0, r0, r3
100404ca:	4152      	adcs	r2, r2
100404cc:	08c3      	lsrs	r3, r0, #3
100404ce:	428b      	cmp	r3, r1
100404d0:	d301      	bcc.n	100404d6 <__divsi3+0xde>
100404d2:	00cb      	lsls	r3, r1, #3
100404d4:	1ac0      	subs	r0, r0, r3
100404d6:	4152      	adcs	r2, r2
100404d8:	0883      	lsrs	r3, r0, #2
100404da:	428b      	cmp	r3, r1
100404dc:	d301      	bcc.n	100404e2 <__divsi3+0xea>
100404de:	008b      	lsls	r3, r1, #2
100404e0:	1ac0      	subs	r0, r0, r3
100404e2:	4152      	adcs	r2, r2
100404e4:	0843      	lsrs	r3, r0, #1
100404e6:	428b      	cmp	r3, r1
100404e8:	d301      	bcc.n	100404ee <__divsi3+0xf6>
100404ea:	004b      	lsls	r3, r1, #1
100404ec:	1ac0      	subs	r0, r0, r3
100404ee:	4152      	adcs	r2, r2
100404f0:	1a41      	subs	r1, r0, r1
100404f2:	d200      	bcs.n	100404f6 <__divsi3+0xfe>
100404f4:	4601      	mov	r1, r0
100404f6:	4152      	adcs	r2, r2
100404f8:	4610      	mov	r0, r2
100404fa:	4770      	bx	lr
100404fc:	e05d      	b.n	100405ba <__divsi3+0x1c2>
100404fe:	0fca      	lsrs	r2, r1, #31
10040500:	d000      	beq.n	10040504 <__divsi3+0x10c>
10040502:	4249      	negs	r1, r1
10040504:	1003      	asrs	r3, r0, #32
10040506:	d300      	bcc.n	1004050a <__divsi3+0x112>
10040508:	4240      	negs	r0, r0
1004050a:	4053      	eors	r3, r2
1004050c:	2200      	movs	r2, #0
1004050e:	469c      	mov	ip, r3
10040510:	0903      	lsrs	r3, r0, #4
10040512:	428b      	cmp	r3, r1
10040514:	d32d      	bcc.n	10040572 <__divsi3+0x17a>
10040516:	0a03      	lsrs	r3, r0, #8
10040518:	428b      	cmp	r3, r1
1004051a:	d312      	bcc.n	10040542 <__divsi3+0x14a>
1004051c:	22fc      	movs	r2, #252	; 0xfc
1004051e:	0189      	lsls	r1, r1, #6
10040520:	ba12      	rev	r2, r2
10040522:	0a03      	lsrs	r3, r0, #8
10040524:	428b      	cmp	r3, r1
10040526:	d30c      	bcc.n	10040542 <__divsi3+0x14a>
10040528:	0189      	lsls	r1, r1, #6
1004052a:	1192      	asrs	r2, r2, #6
1004052c:	428b      	cmp	r3, r1
1004052e:	d308      	bcc.n	10040542 <__divsi3+0x14a>
10040530:	0189      	lsls	r1, r1, #6
10040532:	1192      	asrs	r2, r2, #6
10040534:	428b      	cmp	r3, r1
10040536:	d304      	bcc.n	10040542 <__divsi3+0x14a>
10040538:	0189      	lsls	r1, r1, #6
1004053a:	d03a      	beq.n	100405b2 <__divsi3+0x1ba>
1004053c:	1192      	asrs	r2, r2, #6
1004053e:	e000      	b.n	10040542 <__divsi3+0x14a>
10040540:	0989      	lsrs	r1, r1, #6
10040542:	09c3      	lsrs	r3, r0, #7
10040544:	428b      	cmp	r3, r1
10040546:	d301      	bcc.n	1004054c <__divsi3+0x154>
10040548:	01cb      	lsls	r3, r1, #7
1004054a:	1ac0      	subs	r0, r0, r3
1004054c:	4152      	adcs	r2, r2
1004054e:	0983      	lsrs	r3, r0, #6
10040550:	428b      	cmp	r3, r1
10040552:	d301      	bcc.n	10040558 <__divsi3+0x160>
10040554:	018b      	lsls	r3, r1, #6
10040556:	1ac0      	subs	r0, r0, r3
10040558:	4152      	adcs	r2, r2
1004055a:	0943      	lsrs	r3, r0, #5
1004055c:	428b      	cmp	r3, r1
1004055e:	d301      	bcc.n	10040564 <__divsi3+0x16c>
10040560:	014b      	lsls	r3, r1, #5
10040562:	1ac0      	subs	r0, r0, r3
10040564:	4152      	adcs	r2, r2
10040566:	0903      	lsrs	r3, r0, #4
10040568:	428b      	cmp	r3, r1
1004056a:	d301      	bcc.n	10040570 <__divsi3+0x178>
1004056c:	010b      	lsls	r3, r1, #4
1004056e:	1ac0      	subs	r0, r0, r3
10040570:	4152      	adcs	r2, r2
10040572:	08c3      	lsrs	r3, r0, #3
10040574:	428b      	cmp	r3, r1
10040576:	d301      	bcc.n	1004057c <__divsi3+0x184>
10040578:	00cb      	lsls	r3, r1, #3
1004057a:	1ac0      	subs	r0, r0, r3
1004057c:	4152      	adcs	r2, r2
1004057e:	0883      	lsrs	r3, r0, #2
10040580:	428b      	cmp	r3, r1
10040582:	d301      	bcc.n	10040588 <__divsi3+0x190>
10040584:	008b      	lsls	r3, r1, #2
10040586:	1ac0      	subs	r0, r0, r3
10040588:	4152      	adcs	r2, r2
1004058a:	d2d9      	bcs.n	10040540 <__divsi3+0x148>
1004058c:	0843      	lsrs	r3, r0, #1
1004058e:	428b      	cmp	r3, r1
10040590:	d301      	bcc.n	10040596 <__divsi3+0x19e>
10040592:	004b      	lsls	r3, r1, #1
10040594:	1ac0      	subs	r0, r0, r3
10040596:	4152      	adcs	r2, r2
10040598:	1a41      	subs	r1, r0, r1
1004059a:	d200      	bcs.n	1004059e <__divsi3+0x1a6>
1004059c:	4601      	mov	r1, r0
1004059e:	4663      	mov	r3, ip
100405a0:	4152      	adcs	r2, r2
100405a2:	105b      	asrs	r3, r3, #1
100405a4:	4610      	mov	r0, r2
100405a6:	d301      	bcc.n	100405ac <__divsi3+0x1b4>
100405a8:	4240      	negs	r0, r0
100405aa:	2b00      	cmp	r3, #0
100405ac:	d500      	bpl.n	100405b0 <__divsi3+0x1b8>
100405ae:	4249      	negs	r1, r1
100405b0:	4770      	bx	lr
100405b2:	4663      	mov	r3, ip
100405b4:	105b      	asrs	r3, r3, #1
100405b6:	d300      	bcc.n	100405ba <__divsi3+0x1c2>
100405b8:	4240      	negs	r0, r0
100405ba:	b501      	push	{r0, lr}
100405bc:	2000      	movs	r0, #0
100405be:	f000 f805 	bl	100405cc <__aeabi_idiv0>
100405c2:	bd02      	pop	{r1, pc}

100405c4 <__aeabi_idivmod>:
100405c4:	2900      	cmp	r1, #0
100405c6:	d0f8      	beq.n	100405ba <__divsi3+0x1c2>
100405c8:	e716      	b.n	100403f8 <__divsi3>
100405ca:	4770      	bx	lr

100405cc <__aeabi_idiv0>:
100405cc:	4770      	bx	lr
100405ce:	46c0      	nop			; (mov r8, r8)

100405d0 <__aeabi_cdrcmple>:
100405d0:	4684      	mov	ip, r0
100405d2:	1c10      	adds	r0, r2, #0
100405d4:	4662      	mov	r2, ip
100405d6:	468c      	mov	ip, r1
100405d8:	1c19      	adds	r1, r3, #0
100405da:	4663      	mov	r3, ip
100405dc:	e000      	b.n	100405e0 <__aeabi_cdcmpeq>
100405de:	46c0      	nop			; (mov r8, r8)

100405e0 <__aeabi_cdcmpeq>:
100405e0:	b51f      	push	{r0, r1, r2, r3, r4, lr}
100405e2:	f001 fecb 	bl	1004237c <__ledf2>
100405e6:	2800      	cmp	r0, #0
100405e8:	d401      	bmi.n	100405ee <__aeabi_cdcmpeq+0xe>
100405ea:	2100      	movs	r1, #0
100405ec:	42c8      	cmn	r0, r1
100405ee:	bd1f      	pop	{r0, r1, r2, r3, r4, pc}

100405f0 <__aeabi_dcmpeq>:
100405f0:	b510      	push	{r4, lr}
100405f2:	f001 fe25 	bl	10042240 <__eqdf2>
100405f6:	4240      	negs	r0, r0
100405f8:	3001      	adds	r0, #1
100405fa:	bd10      	pop	{r4, pc}

100405fc <__aeabi_dcmplt>:
100405fc:	b510      	push	{r4, lr}
100405fe:	f001 febd 	bl	1004237c <__ledf2>
10040602:	2800      	cmp	r0, #0
10040604:	db01      	blt.n	1004060a <__aeabi_dcmplt+0xe>
10040606:	2000      	movs	r0, #0
10040608:	bd10      	pop	{r4, pc}
1004060a:	2001      	movs	r0, #1
1004060c:	bd10      	pop	{r4, pc}
1004060e:	46c0      	nop			; (mov r8, r8)

10040610 <__aeabi_dcmple>:
10040610:	b510      	push	{r4, lr}
10040612:	f001 feb3 	bl	1004237c <__ledf2>
10040616:	2800      	cmp	r0, #0
10040618:	dd01      	ble.n	1004061e <__aeabi_dcmple+0xe>
1004061a:	2000      	movs	r0, #0
1004061c:	bd10      	pop	{r4, pc}
1004061e:	2001      	movs	r0, #1
10040620:	bd10      	pop	{r4, pc}
10040622:	46c0      	nop			; (mov r8, r8)

10040624 <__aeabi_dcmpgt>:
10040624:	b510      	push	{r4, lr}
10040626:	f001 fe45 	bl	100422b4 <__gedf2>
1004062a:	2800      	cmp	r0, #0
1004062c:	dc01      	bgt.n	10040632 <__aeabi_dcmpgt+0xe>
1004062e:	2000      	movs	r0, #0
10040630:	bd10      	pop	{r4, pc}
10040632:	2001      	movs	r0, #1
10040634:	bd10      	pop	{r4, pc}
10040636:	46c0      	nop			; (mov r8, r8)

10040638 <__aeabi_dcmpge>:
10040638:	b510      	push	{r4, lr}
1004063a:	f001 fe3b 	bl	100422b4 <__gedf2>
1004063e:	2800      	cmp	r0, #0
10040640:	da01      	bge.n	10040646 <__aeabi_dcmpge+0xe>
10040642:	2000      	movs	r0, #0
10040644:	bd10      	pop	{r4, pc}
10040646:	2001      	movs	r0, #1
10040648:	bd10      	pop	{r4, pc}
1004064a:	46c0      	nop			; (mov r8, r8)

1004064c <__aeabi_cfrcmple>:
1004064c:	4684      	mov	ip, r0
1004064e:	1c08      	adds	r0, r1, #0
10040650:	4661      	mov	r1, ip
10040652:	e7ff      	b.n	10040654 <__aeabi_cfcmpeq>

10040654 <__aeabi_cfcmpeq>:
10040654:	b51f      	push	{r0, r1, r2, r3, r4, lr}
10040656:	f000 fbe3 	bl	10040e20 <__lesf2>
1004065a:	2800      	cmp	r0, #0
1004065c:	d401      	bmi.n	10040662 <__aeabi_cfcmpeq+0xe>
1004065e:	2100      	movs	r1, #0
10040660:	42c8      	cmn	r0, r1
10040662:	bd1f      	pop	{r0, r1, r2, r3, r4, pc}

10040664 <__aeabi_fcmpeq>:
10040664:	b510      	push	{r4, lr}
10040666:	f000 fb75 	bl	10040d54 <__eqsf2>
1004066a:	4240      	negs	r0, r0
1004066c:	3001      	adds	r0, #1
1004066e:	bd10      	pop	{r4, pc}

10040670 <__aeabi_fcmplt>:
10040670:	b510      	push	{r4, lr}
10040672:	f000 fbd5 	bl	10040e20 <__lesf2>
10040676:	2800      	cmp	r0, #0
10040678:	db01      	blt.n	1004067e <__aeabi_fcmplt+0xe>
1004067a:	2000      	movs	r0, #0
1004067c:	bd10      	pop	{r4, pc}
1004067e:	2001      	movs	r0, #1
10040680:	bd10      	pop	{r4, pc}
10040682:	46c0      	nop			; (mov r8, r8)

10040684 <__aeabi_fcmple>:
10040684:	b510      	push	{r4, lr}
10040686:	f000 fbcb 	bl	10040e20 <__lesf2>
1004068a:	2800      	cmp	r0, #0
1004068c:	dd01      	ble.n	10040692 <__aeabi_fcmple+0xe>
1004068e:	2000      	movs	r0, #0
10040690:	bd10      	pop	{r4, pc}
10040692:	2001      	movs	r0, #1
10040694:	bd10      	pop	{r4, pc}
10040696:	46c0      	nop			; (mov r8, r8)

10040698 <__aeabi_fcmpgt>:
10040698:	b510      	push	{r4, lr}
1004069a:	f000 fb81 	bl	10040da0 <__gesf2>
1004069e:	2800      	cmp	r0, #0
100406a0:	dc01      	bgt.n	100406a6 <__aeabi_fcmpgt+0xe>
100406a2:	2000      	movs	r0, #0
100406a4:	bd10      	pop	{r4, pc}
100406a6:	2001      	movs	r0, #1
100406a8:	bd10      	pop	{r4, pc}
100406aa:	46c0      	nop			; (mov r8, r8)

100406ac <__aeabi_fcmpge>:
100406ac:	b510      	push	{r4, lr}
100406ae:	f000 fb77 	bl	10040da0 <__gesf2>
100406b2:	2800      	cmp	r0, #0
100406b4:	da01      	bge.n	100406ba <__aeabi_fcmpge+0xe>
100406b6:	2000      	movs	r0, #0
100406b8:	bd10      	pop	{r4, pc}
100406ba:	2001      	movs	r0, #1
100406bc:	bd10      	pop	{r4, pc}
100406be:	46c0      	nop			; (mov r8, r8)

100406c0 <__aeabi_f2uiz>:
100406c0:	219e      	movs	r1, #158	; 0x9e
100406c2:	b510      	push	{r4, lr}
100406c4:	05c9      	lsls	r1, r1, #23
100406c6:	1c04      	adds	r4, r0, #0
100406c8:	f7ff fff0 	bl	100406ac <__aeabi_fcmpge>
100406cc:	2800      	cmp	r0, #0
100406ce:	d103      	bne.n	100406d8 <__aeabi_f2uiz+0x18>
100406d0:	1c20      	adds	r0, r4, #0
100406d2:	f000 febb 	bl	1004144c <__aeabi_f2iz>
100406d6:	bd10      	pop	{r4, pc}
100406d8:	219e      	movs	r1, #158	; 0x9e
100406da:	1c20      	adds	r0, r4, #0
100406dc:	05c9      	lsls	r1, r1, #23
100406de:	f000 fd01 	bl	100410e4 <__aeabi_fsub>
100406e2:	f000 feb3 	bl	1004144c <__aeabi_f2iz>
100406e6:	2380      	movs	r3, #128	; 0x80
100406e8:	061b      	lsls	r3, r3, #24
100406ea:	469c      	mov	ip, r3
100406ec:	4460      	add	r0, ip
100406ee:	e7f2      	b.n	100406d6 <__aeabi_f2uiz+0x16>

100406f0 <__aeabi_d2uiz>:
100406f0:	b570      	push	{r4, r5, r6, lr}
100406f2:	2200      	movs	r2, #0
100406f4:	4b0c      	ldr	r3, [pc, #48]	; (10040728 <__aeabi_d2uiz+0x38>)
100406f6:	0004      	movs	r4, r0
100406f8:	000d      	movs	r5, r1
100406fa:	f7ff ff9d 	bl	10040638 <__aeabi_dcmpge>
100406fe:	2800      	cmp	r0, #0
10040700:	d104      	bne.n	1004070c <__aeabi_d2uiz+0x1c>
10040702:	0020      	movs	r0, r4
10040704:	0029      	movs	r1, r5
10040706:	f002 fc31 	bl	10042f6c <__aeabi_d2iz>
1004070a:	bd70      	pop	{r4, r5, r6, pc}
1004070c:	4b06      	ldr	r3, [pc, #24]	; (10040728 <__aeabi_d2uiz+0x38>)
1004070e:	2200      	movs	r2, #0
10040710:	0020      	movs	r0, r4
10040712:	0029      	movs	r1, r5
10040714:	f002 f914 	bl	10042940 <__aeabi_dsub>
10040718:	f002 fc28 	bl	10042f6c <__aeabi_d2iz>
1004071c:	2380      	movs	r3, #128	; 0x80
1004071e:	061b      	lsls	r3, r3, #24
10040720:	469c      	mov	ip, r3
10040722:	4460      	add	r0, ip
10040724:	e7f1      	b.n	1004070a <__aeabi_d2uiz+0x1a>
10040726:	46c0      	nop			; (mov r8, r8)
10040728:	41e00000 	.word	0x41e00000

1004072c <__aeabi_uread4>:
1004072c:	7843      	ldrb	r3, [r0, #1]
1004072e:	7802      	ldrb	r2, [r0, #0]
10040730:	021b      	lsls	r3, r3, #8
10040732:	431a      	orrs	r2, r3
10040734:	7883      	ldrb	r3, [r0, #2]
10040736:	78c0      	ldrb	r0, [r0, #3]
10040738:	041b      	lsls	r3, r3, #16
1004073a:	4313      	orrs	r3, r2
1004073c:	0600      	lsls	r0, r0, #24
1004073e:	4318      	orrs	r0, r3
10040740:	4770      	bx	lr
10040742:	46c0      	nop			; (mov r8, r8)

10040744 <__aeabi_uwrite4>:
10040744:	0a03      	lsrs	r3, r0, #8
10040746:	704b      	strb	r3, [r1, #1]
10040748:	0c03      	lsrs	r3, r0, #16
1004074a:	708b      	strb	r3, [r1, #2]
1004074c:	0e03      	lsrs	r3, r0, #24
1004074e:	7008      	strb	r0, [r1, #0]
10040750:	70cb      	strb	r3, [r1, #3]
10040752:	4770      	bx	lr

10040754 <__aeabi_uread8>:
10040754:	0003      	movs	r3, r0
10040756:	785a      	ldrb	r2, [r3, #1]
10040758:	7800      	ldrb	r0, [r0, #0]
1004075a:	0212      	lsls	r2, r2, #8
1004075c:	4302      	orrs	r2, r0
1004075e:	7898      	ldrb	r0, [r3, #2]
10040760:	7919      	ldrb	r1, [r3, #4]
10040762:	0400      	lsls	r0, r0, #16
10040764:	4302      	orrs	r2, r0
10040766:	78d8      	ldrb	r0, [r3, #3]
10040768:	0600      	lsls	r0, r0, #24
1004076a:	4310      	orrs	r0, r2
1004076c:	795a      	ldrb	r2, [r3, #5]
1004076e:	0212      	lsls	r2, r2, #8
10040770:	430a      	orrs	r2, r1
10040772:	7999      	ldrb	r1, [r3, #6]
10040774:	0409      	lsls	r1, r1, #16
10040776:	430a      	orrs	r2, r1
10040778:	79d9      	ldrb	r1, [r3, #7]
1004077a:	0609      	lsls	r1, r1, #24
1004077c:	4311      	orrs	r1, r2
1004077e:	4770      	bx	lr

10040780 <__aeabi_uwrite8>:
10040780:	0a03      	lsrs	r3, r0, #8
10040782:	7053      	strb	r3, [r2, #1]
10040784:	0c03      	lsrs	r3, r0, #16
10040786:	7093      	strb	r3, [r2, #2]
10040788:	0e03      	lsrs	r3, r0, #24
1004078a:	70d3      	strb	r3, [r2, #3]
1004078c:	0a0b      	lsrs	r3, r1, #8
1004078e:	7153      	strb	r3, [r2, #5]
10040790:	0c0b      	lsrs	r3, r1, #16
10040792:	7193      	strb	r3, [r2, #6]
10040794:	0e0b      	lsrs	r3, r1, #24
10040796:	7010      	strb	r0, [r2, #0]
10040798:	7111      	strb	r1, [r2, #4]
1004079a:	71d3      	strb	r3, [r2, #7]
1004079c:	4770      	bx	lr
1004079e:	46c0      	nop			; (mov r8, r8)

100407a0 <__aeabi_fadd>:
100407a0:	b5f0      	push	{r4, r5, r6, r7, lr}
100407a2:	46c6      	mov	lr, r8
100407a4:	024e      	lsls	r6, r1, #9
100407a6:	0247      	lsls	r7, r0, #9
100407a8:	0a76      	lsrs	r6, r6, #9
100407aa:	0a7b      	lsrs	r3, r7, #9
100407ac:	0044      	lsls	r4, r0, #1
100407ae:	0fc5      	lsrs	r5, r0, #31
100407b0:	00f7      	lsls	r7, r6, #3
100407b2:	0048      	lsls	r0, r1, #1
100407b4:	4698      	mov	r8, r3
100407b6:	b500      	push	{lr}
100407b8:	0e24      	lsrs	r4, r4, #24
100407ba:	002a      	movs	r2, r5
100407bc:	00db      	lsls	r3, r3, #3
100407be:	0e00      	lsrs	r0, r0, #24
100407c0:	0fc9      	lsrs	r1, r1, #31
100407c2:	46bc      	mov	ip, r7
100407c4:	428d      	cmp	r5, r1
100407c6:	d067      	beq.n	10040898 <__aeabi_fadd+0xf8>
100407c8:	1a22      	subs	r2, r4, r0
100407ca:	2a00      	cmp	r2, #0
100407cc:	dc00      	bgt.n	100407d0 <__aeabi_fadd+0x30>
100407ce:	e0a5      	b.n	1004091c <__aeabi_fadd+0x17c>
100407d0:	2800      	cmp	r0, #0
100407d2:	d13a      	bne.n	1004084a <__aeabi_fadd+0xaa>
100407d4:	2f00      	cmp	r7, #0
100407d6:	d100      	bne.n	100407da <__aeabi_fadd+0x3a>
100407d8:	e093      	b.n	10040902 <__aeabi_fadd+0x162>
100407da:	1e51      	subs	r1, r2, #1
100407dc:	2900      	cmp	r1, #0
100407de:	d000      	beq.n	100407e2 <__aeabi_fadd+0x42>
100407e0:	e0bc      	b.n	1004095c <__aeabi_fadd+0x1bc>
100407e2:	2401      	movs	r4, #1
100407e4:	1bdb      	subs	r3, r3, r7
100407e6:	015a      	lsls	r2, r3, #5
100407e8:	d546      	bpl.n	10040878 <__aeabi_fadd+0xd8>
100407ea:	019b      	lsls	r3, r3, #6
100407ec:	099e      	lsrs	r6, r3, #6
100407ee:	0030      	movs	r0, r6
100407f0:	f002 fd04 	bl	100431fc <__clzsi2>
100407f4:	3805      	subs	r0, #5
100407f6:	4086      	lsls	r6, r0
100407f8:	4284      	cmp	r4, r0
100407fa:	dd00      	ble.n	100407fe <__aeabi_fadd+0x5e>
100407fc:	e09d      	b.n	1004093a <__aeabi_fadd+0x19a>
100407fe:	1b04      	subs	r4, r0, r4
10040800:	0032      	movs	r2, r6
10040802:	2020      	movs	r0, #32
10040804:	3401      	adds	r4, #1
10040806:	40e2      	lsrs	r2, r4
10040808:	1b04      	subs	r4, r0, r4
1004080a:	40a6      	lsls	r6, r4
1004080c:	0033      	movs	r3, r6
1004080e:	1e5e      	subs	r6, r3, #1
10040810:	41b3      	sbcs	r3, r6
10040812:	2400      	movs	r4, #0
10040814:	4313      	orrs	r3, r2
10040816:	075a      	lsls	r2, r3, #29
10040818:	d004      	beq.n	10040824 <__aeabi_fadd+0x84>
1004081a:	220f      	movs	r2, #15
1004081c:	401a      	ands	r2, r3
1004081e:	2a04      	cmp	r2, #4
10040820:	d000      	beq.n	10040824 <__aeabi_fadd+0x84>
10040822:	3304      	adds	r3, #4
10040824:	015a      	lsls	r2, r3, #5
10040826:	d529      	bpl.n	1004087c <__aeabi_fadd+0xdc>
10040828:	3401      	adds	r4, #1
1004082a:	2cff      	cmp	r4, #255	; 0xff
1004082c:	d100      	bne.n	10040830 <__aeabi_fadd+0x90>
1004082e:	e081      	b.n	10040934 <__aeabi_fadd+0x194>
10040830:	002a      	movs	r2, r5
10040832:	019b      	lsls	r3, r3, #6
10040834:	0a5b      	lsrs	r3, r3, #9
10040836:	b2e4      	uxtb	r4, r4
10040838:	025b      	lsls	r3, r3, #9
1004083a:	05e4      	lsls	r4, r4, #23
1004083c:	0a58      	lsrs	r0, r3, #9
1004083e:	07d2      	lsls	r2, r2, #31
10040840:	4320      	orrs	r0, r4
10040842:	4310      	orrs	r0, r2
10040844:	bc04      	pop	{r2}
10040846:	4690      	mov	r8, r2
10040848:	bdf0      	pop	{r4, r5, r6, r7, pc}
1004084a:	2cff      	cmp	r4, #255	; 0xff
1004084c:	d0e3      	beq.n	10040816 <__aeabi_fadd+0x76>
1004084e:	2180      	movs	r1, #128	; 0x80
10040850:	0038      	movs	r0, r7
10040852:	04c9      	lsls	r1, r1, #19
10040854:	4308      	orrs	r0, r1
10040856:	4684      	mov	ip, r0
10040858:	2a1b      	cmp	r2, #27
1004085a:	dd00      	ble.n	1004085e <__aeabi_fadd+0xbe>
1004085c:	e082      	b.n	10040964 <__aeabi_fadd+0x1c4>
1004085e:	2020      	movs	r0, #32
10040860:	4661      	mov	r1, ip
10040862:	40d1      	lsrs	r1, r2
10040864:	1a82      	subs	r2, r0, r2
10040866:	4660      	mov	r0, ip
10040868:	4090      	lsls	r0, r2
1004086a:	0002      	movs	r2, r0
1004086c:	1e50      	subs	r0, r2, #1
1004086e:	4182      	sbcs	r2, r0
10040870:	430a      	orrs	r2, r1
10040872:	1a9b      	subs	r3, r3, r2
10040874:	015a      	lsls	r2, r3, #5
10040876:	d4b8      	bmi.n	100407ea <__aeabi_fadd+0x4a>
10040878:	075a      	lsls	r2, r3, #29
1004087a:	d1ce      	bne.n	1004081a <__aeabi_fadd+0x7a>
1004087c:	08de      	lsrs	r6, r3, #3
1004087e:	002a      	movs	r2, r5
10040880:	2cff      	cmp	r4, #255	; 0xff
10040882:	d13a      	bne.n	100408fa <__aeabi_fadd+0x15a>
10040884:	2e00      	cmp	r6, #0
10040886:	d100      	bne.n	1004088a <__aeabi_fadd+0xea>
10040888:	e0ae      	b.n	100409e8 <__aeabi_fadd+0x248>
1004088a:	2380      	movs	r3, #128	; 0x80
1004088c:	03db      	lsls	r3, r3, #15
1004088e:	4333      	orrs	r3, r6
10040890:	025b      	lsls	r3, r3, #9
10040892:	0a5b      	lsrs	r3, r3, #9
10040894:	24ff      	movs	r4, #255	; 0xff
10040896:	e7cf      	b.n	10040838 <__aeabi_fadd+0x98>
10040898:	1a21      	subs	r1, r4, r0
1004089a:	2900      	cmp	r1, #0
1004089c:	dd52      	ble.n	10040944 <__aeabi_fadd+0x1a4>
1004089e:	2800      	cmp	r0, #0
100408a0:	d031      	beq.n	10040906 <__aeabi_fadd+0x166>
100408a2:	2cff      	cmp	r4, #255	; 0xff
100408a4:	d0b7      	beq.n	10040816 <__aeabi_fadd+0x76>
100408a6:	2080      	movs	r0, #128	; 0x80
100408a8:	003e      	movs	r6, r7
100408aa:	04c0      	lsls	r0, r0, #19
100408ac:	4306      	orrs	r6, r0
100408ae:	46b4      	mov	ip, r6
100408b0:	291b      	cmp	r1, #27
100408b2:	dd00      	ble.n	100408b6 <__aeabi_fadd+0x116>
100408b4:	e0aa      	b.n	10040a0c <__aeabi_fadd+0x26c>
100408b6:	2620      	movs	r6, #32
100408b8:	4660      	mov	r0, ip
100408ba:	40c8      	lsrs	r0, r1
100408bc:	1a71      	subs	r1, r6, r1
100408be:	4666      	mov	r6, ip
100408c0:	408e      	lsls	r6, r1
100408c2:	0031      	movs	r1, r6
100408c4:	1e4e      	subs	r6, r1, #1
100408c6:	41b1      	sbcs	r1, r6
100408c8:	4301      	orrs	r1, r0
100408ca:	185b      	adds	r3, r3, r1
100408cc:	0159      	lsls	r1, r3, #5
100408ce:	d5d3      	bpl.n	10040878 <__aeabi_fadd+0xd8>
100408d0:	3401      	adds	r4, #1
100408d2:	2cff      	cmp	r4, #255	; 0xff
100408d4:	d100      	bne.n	100408d8 <__aeabi_fadd+0x138>
100408d6:	e087      	b.n	100409e8 <__aeabi_fadd+0x248>
100408d8:	2201      	movs	r2, #1
100408da:	4978      	ldr	r1, [pc, #480]	; (10040abc <__aeabi_fadd+0x31c>)
100408dc:	401a      	ands	r2, r3
100408de:	085b      	lsrs	r3, r3, #1
100408e0:	400b      	ands	r3, r1
100408e2:	4313      	orrs	r3, r2
100408e4:	e797      	b.n	10040816 <__aeabi_fadd+0x76>
100408e6:	2c00      	cmp	r4, #0
100408e8:	d000      	beq.n	100408ec <__aeabi_fadd+0x14c>
100408ea:	e0a7      	b.n	10040a3c <__aeabi_fadd+0x29c>
100408ec:	2b00      	cmp	r3, #0
100408ee:	d000      	beq.n	100408f2 <__aeabi_fadd+0x152>
100408f0:	e0b6      	b.n	10040a60 <__aeabi_fadd+0x2c0>
100408f2:	1e3b      	subs	r3, r7, #0
100408f4:	d162      	bne.n	100409bc <__aeabi_fadd+0x21c>
100408f6:	2600      	movs	r6, #0
100408f8:	2200      	movs	r2, #0
100408fa:	0273      	lsls	r3, r6, #9
100408fc:	0a5b      	lsrs	r3, r3, #9
100408fe:	b2e4      	uxtb	r4, r4
10040900:	e79a      	b.n	10040838 <__aeabi_fadd+0x98>
10040902:	0014      	movs	r4, r2
10040904:	e787      	b.n	10040816 <__aeabi_fadd+0x76>
10040906:	2f00      	cmp	r7, #0
10040908:	d04d      	beq.n	100409a6 <__aeabi_fadd+0x206>
1004090a:	1e48      	subs	r0, r1, #1
1004090c:	2800      	cmp	r0, #0
1004090e:	d157      	bne.n	100409c0 <__aeabi_fadd+0x220>
10040910:	4463      	add	r3, ip
10040912:	2401      	movs	r4, #1
10040914:	015a      	lsls	r2, r3, #5
10040916:	d5af      	bpl.n	10040878 <__aeabi_fadd+0xd8>
10040918:	2402      	movs	r4, #2
1004091a:	e7dd      	b.n	100408d8 <__aeabi_fadd+0x138>
1004091c:	2a00      	cmp	r2, #0
1004091e:	d124      	bne.n	1004096a <__aeabi_fadd+0x1ca>
10040920:	1c62      	adds	r2, r4, #1
10040922:	b2d2      	uxtb	r2, r2
10040924:	2a01      	cmp	r2, #1
10040926:	ddde      	ble.n	100408e6 <__aeabi_fadd+0x146>
10040928:	1bde      	subs	r6, r3, r7
1004092a:	0172      	lsls	r2, r6, #5
1004092c:	d535      	bpl.n	1004099a <__aeabi_fadd+0x1fa>
1004092e:	1afe      	subs	r6, r7, r3
10040930:	000d      	movs	r5, r1
10040932:	e75c      	b.n	100407ee <__aeabi_fadd+0x4e>
10040934:	002a      	movs	r2, r5
10040936:	2300      	movs	r3, #0
10040938:	e77e      	b.n	10040838 <__aeabi_fadd+0x98>
1004093a:	0033      	movs	r3, r6
1004093c:	4a60      	ldr	r2, [pc, #384]	; (10040ac0 <__aeabi_fadd+0x320>)
1004093e:	1a24      	subs	r4, r4, r0
10040940:	4013      	ands	r3, r2
10040942:	e768      	b.n	10040816 <__aeabi_fadd+0x76>
10040944:	2900      	cmp	r1, #0
10040946:	d163      	bne.n	10040a10 <__aeabi_fadd+0x270>
10040948:	1c61      	adds	r1, r4, #1
1004094a:	b2c8      	uxtb	r0, r1
1004094c:	2801      	cmp	r0, #1
1004094e:	dd4e      	ble.n	100409ee <__aeabi_fadd+0x24e>
10040950:	29ff      	cmp	r1, #255	; 0xff
10040952:	d049      	beq.n	100409e8 <__aeabi_fadd+0x248>
10040954:	4463      	add	r3, ip
10040956:	085b      	lsrs	r3, r3, #1
10040958:	000c      	movs	r4, r1
1004095a:	e75c      	b.n	10040816 <__aeabi_fadd+0x76>
1004095c:	2aff      	cmp	r2, #255	; 0xff
1004095e:	d041      	beq.n	100409e4 <__aeabi_fadd+0x244>
10040960:	000a      	movs	r2, r1
10040962:	e779      	b.n	10040858 <__aeabi_fadd+0xb8>
10040964:	2201      	movs	r2, #1
10040966:	1a9b      	subs	r3, r3, r2
10040968:	e784      	b.n	10040874 <__aeabi_fadd+0xd4>
1004096a:	2c00      	cmp	r4, #0
1004096c:	d01d      	beq.n	100409aa <__aeabi_fadd+0x20a>
1004096e:	28ff      	cmp	r0, #255	; 0xff
10040970:	d022      	beq.n	100409b8 <__aeabi_fadd+0x218>
10040972:	2480      	movs	r4, #128	; 0x80
10040974:	04e4      	lsls	r4, r4, #19
10040976:	4252      	negs	r2, r2
10040978:	4323      	orrs	r3, r4
1004097a:	2a1b      	cmp	r2, #27
1004097c:	dd00      	ble.n	10040980 <__aeabi_fadd+0x1e0>
1004097e:	e08a      	b.n	10040a96 <__aeabi_fadd+0x2f6>
10040980:	001c      	movs	r4, r3
10040982:	2520      	movs	r5, #32
10040984:	40d4      	lsrs	r4, r2
10040986:	1aaa      	subs	r2, r5, r2
10040988:	4093      	lsls	r3, r2
1004098a:	1e5a      	subs	r2, r3, #1
1004098c:	4193      	sbcs	r3, r2
1004098e:	4323      	orrs	r3, r4
10040990:	4662      	mov	r2, ip
10040992:	0004      	movs	r4, r0
10040994:	1ad3      	subs	r3, r2, r3
10040996:	000d      	movs	r5, r1
10040998:	e725      	b.n	100407e6 <__aeabi_fadd+0x46>
1004099a:	2e00      	cmp	r6, #0
1004099c:	d000      	beq.n	100409a0 <__aeabi_fadd+0x200>
1004099e:	e726      	b.n	100407ee <__aeabi_fadd+0x4e>
100409a0:	2200      	movs	r2, #0
100409a2:	2400      	movs	r4, #0
100409a4:	e7a9      	b.n	100408fa <__aeabi_fadd+0x15a>
100409a6:	000c      	movs	r4, r1
100409a8:	e735      	b.n	10040816 <__aeabi_fadd+0x76>
100409aa:	2b00      	cmp	r3, #0
100409ac:	d04d      	beq.n	10040a4a <__aeabi_fadd+0x2aa>
100409ae:	43d2      	mvns	r2, r2
100409b0:	2a00      	cmp	r2, #0
100409b2:	d0ed      	beq.n	10040990 <__aeabi_fadd+0x1f0>
100409b4:	28ff      	cmp	r0, #255	; 0xff
100409b6:	d1e0      	bne.n	1004097a <__aeabi_fadd+0x1da>
100409b8:	4663      	mov	r3, ip
100409ba:	24ff      	movs	r4, #255	; 0xff
100409bc:	000d      	movs	r5, r1
100409be:	e72a      	b.n	10040816 <__aeabi_fadd+0x76>
100409c0:	29ff      	cmp	r1, #255	; 0xff
100409c2:	d00f      	beq.n	100409e4 <__aeabi_fadd+0x244>
100409c4:	0001      	movs	r1, r0
100409c6:	e773      	b.n	100408b0 <__aeabi_fadd+0x110>
100409c8:	2b00      	cmp	r3, #0
100409ca:	d061      	beq.n	10040a90 <__aeabi_fadd+0x2f0>
100409cc:	24ff      	movs	r4, #255	; 0xff
100409ce:	2f00      	cmp	r7, #0
100409d0:	d100      	bne.n	100409d4 <__aeabi_fadd+0x234>
100409d2:	e720      	b.n	10040816 <__aeabi_fadd+0x76>
100409d4:	2280      	movs	r2, #128	; 0x80
100409d6:	4641      	mov	r1, r8
100409d8:	03d2      	lsls	r2, r2, #15
100409da:	4211      	tst	r1, r2
100409dc:	d002      	beq.n	100409e4 <__aeabi_fadd+0x244>
100409de:	4216      	tst	r6, r2
100409e0:	d100      	bne.n	100409e4 <__aeabi_fadd+0x244>
100409e2:	003b      	movs	r3, r7
100409e4:	24ff      	movs	r4, #255	; 0xff
100409e6:	e716      	b.n	10040816 <__aeabi_fadd+0x76>
100409e8:	24ff      	movs	r4, #255	; 0xff
100409ea:	2300      	movs	r3, #0
100409ec:	e724      	b.n	10040838 <__aeabi_fadd+0x98>
100409ee:	2c00      	cmp	r4, #0
100409f0:	d1ea      	bne.n	100409c8 <__aeabi_fadd+0x228>
100409f2:	2b00      	cmp	r3, #0
100409f4:	d058      	beq.n	10040aa8 <__aeabi_fadd+0x308>
100409f6:	2f00      	cmp	r7, #0
100409f8:	d100      	bne.n	100409fc <__aeabi_fadd+0x25c>
100409fa:	e70c      	b.n	10040816 <__aeabi_fadd+0x76>
100409fc:	4463      	add	r3, ip
100409fe:	015a      	lsls	r2, r3, #5
10040a00:	d400      	bmi.n	10040a04 <__aeabi_fadd+0x264>
10040a02:	e739      	b.n	10040878 <__aeabi_fadd+0xd8>
10040a04:	4a2e      	ldr	r2, [pc, #184]	; (10040ac0 <__aeabi_fadd+0x320>)
10040a06:	000c      	movs	r4, r1
10040a08:	4013      	ands	r3, r2
10040a0a:	e704      	b.n	10040816 <__aeabi_fadd+0x76>
10040a0c:	2101      	movs	r1, #1
10040a0e:	e75c      	b.n	100408ca <__aeabi_fadd+0x12a>
10040a10:	2c00      	cmp	r4, #0
10040a12:	d11e      	bne.n	10040a52 <__aeabi_fadd+0x2b2>
10040a14:	2b00      	cmp	r3, #0
10040a16:	d040      	beq.n	10040a9a <__aeabi_fadd+0x2fa>
10040a18:	43c9      	mvns	r1, r1
10040a1a:	2900      	cmp	r1, #0
10040a1c:	d00b      	beq.n	10040a36 <__aeabi_fadd+0x296>
10040a1e:	28ff      	cmp	r0, #255	; 0xff
10040a20:	d036      	beq.n	10040a90 <__aeabi_fadd+0x2f0>
10040a22:	291b      	cmp	r1, #27
10040a24:	dc47      	bgt.n	10040ab6 <__aeabi_fadd+0x316>
10040a26:	001c      	movs	r4, r3
10040a28:	2620      	movs	r6, #32
10040a2a:	40cc      	lsrs	r4, r1
10040a2c:	1a71      	subs	r1, r6, r1
10040a2e:	408b      	lsls	r3, r1
10040a30:	1e59      	subs	r1, r3, #1
10040a32:	418b      	sbcs	r3, r1
10040a34:	4323      	orrs	r3, r4
10040a36:	4463      	add	r3, ip
10040a38:	0004      	movs	r4, r0
10040a3a:	e747      	b.n	100408cc <__aeabi_fadd+0x12c>
10040a3c:	2b00      	cmp	r3, #0
10040a3e:	d118      	bne.n	10040a72 <__aeabi_fadd+0x2d2>
10040a40:	1e3b      	subs	r3, r7, #0
10040a42:	d02d      	beq.n	10040aa0 <__aeabi_fadd+0x300>
10040a44:	000d      	movs	r5, r1
10040a46:	24ff      	movs	r4, #255	; 0xff
10040a48:	e6e5      	b.n	10040816 <__aeabi_fadd+0x76>
10040a4a:	003b      	movs	r3, r7
10040a4c:	0004      	movs	r4, r0
10040a4e:	000d      	movs	r5, r1
10040a50:	e6e1      	b.n	10040816 <__aeabi_fadd+0x76>
10040a52:	28ff      	cmp	r0, #255	; 0xff
10040a54:	d01c      	beq.n	10040a90 <__aeabi_fadd+0x2f0>
10040a56:	2480      	movs	r4, #128	; 0x80
10040a58:	04e4      	lsls	r4, r4, #19
10040a5a:	4249      	negs	r1, r1
10040a5c:	4323      	orrs	r3, r4
10040a5e:	e7e0      	b.n	10040a22 <__aeabi_fadd+0x282>
10040a60:	2f00      	cmp	r7, #0
10040a62:	d100      	bne.n	10040a66 <__aeabi_fadd+0x2c6>
10040a64:	e6d7      	b.n	10040816 <__aeabi_fadd+0x76>
10040a66:	1bde      	subs	r6, r3, r7
10040a68:	0172      	lsls	r2, r6, #5
10040a6a:	d51f      	bpl.n	10040aac <__aeabi_fadd+0x30c>
10040a6c:	1afb      	subs	r3, r7, r3
10040a6e:	000d      	movs	r5, r1
10040a70:	e6d1      	b.n	10040816 <__aeabi_fadd+0x76>
10040a72:	24ff      	movs	r4, #255	; 0xff
10040a74:	2f00      	cmp	r7, #0
10040a76:	d100      	bne.n	10040a7a <__aeabi_fadd+0x2da>
10040a78:	e6cd      	b.n	10040816 <__aeabi_fadd+0x76>
10040a7a:	2280      	movs	r2, #128	; 0x80
10040a7c:	4640      	mov	r0, r8
10040a7e:	03d2      	lsls	r2, r2, #15
10040a80:	4210      	tst	r0, r2
10040a82:	d0af      	beq.n	100409e4 <__aeabi_fadd+0x244>
10040a84:	4216      	tst	r6, r2
10040a86:	d1ad      	bne.n	100409e4 <__aeabi_fadd+0x244>
10040a88:	003b      	movs	r3, r7
10040a8a:	000d      	movs	r5, r1
10040a8c:	24ff      	movs	r4, #255	; 0xff
10040a8e:	e6c2      	b.n	10040816 <__aeabi_fadd+0x76>
10040a90:	4663      	mov	r3, ip
10040a92:	24ff      	movs	r4, #255	; 0xff
10040a94:	e6bf      	b.n	10040816 <__aeabi_fadd+0x76>
10040a96:	2301      	movs	r3, #1
10040a98:	e77a      	b.n	10040990 <__aeabi_fadd+0x1f0>
10040a9a:	003b      	movs	r3, r7
10040a9c:	0004      	movs	r4, r0
10040a9e:	e6ba      	b.n	10040816 <__aeabi_fadd+0x76>
10040aa0:	2680      	movs	r6, #128	; 0x80
10040aa2:	2200      	movs	r2, #0
10040aa4:	03f6      	lsls	r6, r6, #15
10040aa6:	e6f0      	b.n	1004088a <__aeabi_fadd+0xea>
10040aa8:	003b      	movs	r3, r7
10040aaa:	e6b4      	b.n	10040816 <__aeabi_fadd+0x76>
10040aac:	1e33      	subs	r3, r6, #0
10040aae:	d000      	beq.n	10040ab2 <__aeabi_fadd+0x312>
10040ab0:	e6e2      	b.n	10040878 <__aeabi_fadd+0xd8>
10040ab2:	2200      	movs	r2, #0
10040ab4:	e721      	b.n	100408fa <__aeabi_fadd+0x15a>
10040ab6:	2301      	movs	r3, #1
10040ab8:	e7bd      	b.n	10040a36 <__aeabi_fadd+0x296>
10040aba:	46c0      	nop			; (mov r8, r8)
10040abc:	7dffffff 	.word	0x7dffffff
10040ac0:	fbffffff 	.word	0xfbffffff

10040ac4 <__aeabi_fdiv>:
10040ac4:	b5f0      	push	{r4, r5, r6, r7, lr}
10040ac6:	4657      	mov	r7, sl
10040ac8:	464e      	mov	r6, r9
10040aca:	46de      	mov	lr, fp
10040acc:	4645      	mov	r5, r8
10040ace:	b5e0      	push	{r5, r6, r7, lr}
10040ad0:	0244      	lsls	r4, r0, #9
10040ad2:	0043      	lsls	r3, r0, #1
10040ad4:	0fc6      	lsrs	r6, r0, #31
10040ad6:	b083      	sub	sp, #12
10040ad8:	1c0f      	adds	r7, r1, #0
10040ada:	0a64      	lsrs	r4, r4, #9
10040adc:	0e1b      	lsrs	r3, r3, #24
10040ade:	46b2      	mov	sl, r6
10040ae0:	d053      	beq.n	10040b8a <__aeabi_fdiv+0xc6>
10040ae2:	2bff      	cmp	r3, #255	; 0xff
10040ae4:	d027      	beq.n	10040b36 <__aeabi_fdiv+0x72>
10040ae6:	2280      	movs	r2, #128	; 0x80
10040ae8:	00e4      	lsls	r4, r4, #3
10040aea:	04d2      	lsls	r2, r2, #19
10040aec:	4314      	orrs	r4, r2
10040aee:	227f      	movs	r2, #127	; 0x7f
10040af0:	4252      	negs	r2, r2
10040af2:	4690      	mov	r8, r2
10040af4:	4498      	add	r8, r3
10040af6:	2300      	movs	r3, #0
10040af8:	4699      	mov	r9, r3
10040afa:	469b      	mov	fp, r3
10040afc:	027d      	lsls	r5, r7, #9
10040afe:	0078      	lsls	r0, r7, #1
10040b00:	0ffb      	lsrs	r3, r7, #31
10040b02:	0a6d      	lsrs	r5, r5, #9
10040b04:	0e00      	lsrs	r0, r0, #24
10040b06:	9300      	str	r3, [sp, #0]
10040b08:	d024      	beq.n	10040b54 <__aeabi_fdiv+0x90>
10040b0a:	28ff      	cmp	r0, #255	; 0xff
10040b0c:	d046      	beq.n	10040b9c <__aeabi_fdiv+0xd8>
10040b0e:	2380      	movs	r3, #128	; 0x80
10040b10:	2100      	movs	r1, #0
10040b12:	00ed      	lsls	r5, r5, #3
10040b14:	04db      	lsls	r3, r3, #19
10040b16:	431d      	orrs	r5, r3
10040b18:	387f      	subs	r0, #127	; 0x7f
10040b1a:	4647      	mov	r7, r8
10040b1c:	1a38      	subs	r0, r7, r0
10040b1e:	464f      	mov	r7, r9
10040b20:	430f      	orrs	r7, r1
10040b22:	00bf      	lsls	r7, r7, #2
10040b24:	46b9      	mov	r9, r7
10040b26:	0033      	movs	r3, r6
10040b28:	9a00      	ldr	r2, [sp, #0]
10040b2a:	4f87      	ldr	r7, [pc, #540]	; (10040d48 <__aeabi_fdiv+0x284>)
10040b2c:	4053      	eors	r3, r2
10040b2e:	464a      	mov	r2, r9
10040b30:	58ba      	ldr	r2, [r7, r2]
10040b32:	9301      	str	r3, [sp, #4]
10040b34:	4697      	mov	pc, r2
10040b36:	2c00      	cmp	r4, #0
10040b38:	d14e      	bne.n	10040bd8 <__aeabi_fdiv+0x114>
10040b3a:	2308      	movs	r3, #8
10040b3c:	4699      	mov	r9, r3
10040b3e:	33f7      	adds	r3, #247	; 0xf7
10040b40:	4698      	mov	r8, r3
10040b42:	3bfd      	subs	r3, #253	; 0xfd
10040b44:	469b      	mov	fp, r3
10040b46:	027d      	lsls	r5, r7, #9
10040b48:	0078      	lsls	r0, r7, #1
10040b4a:	0ffb      	lsrs	r3, r7, #31
10040b4c:	0a6d      	lsrs	r5, r5, #9
10040b4e:	0e00      	lsrs	r0, r0, #24
10040b50:	9300      	str	r3, [sp, #0]
10040b52:	d1da      	bne.n	10040b0a <__aeabi_fdiv+0x46>
10040b54:	2d00      	cmp	r5, #0
10040b56:	d126      	bne.n	10040ba6 <__aeabi_fdiv+0xe2>
10040b58:	2000      	movs	r0, #0
10040b5a:	2101      	movs	r1, #1
10040b5c:	0033      	movs	r3, r6
10040b5e:	9a00      	ldr	r2, [sp, #0]
10040b60:	4f7a      	ldr	r7, [pc, #488]	; (10040d4c <__aeabi_fdiv+0x288>)
10040b62:	4053      	eors	r3, r2
10040b64:	4642      	mov	r2, r8
10040b66:	1a10      	subs	r0, r2, r0
10040b68:	464a      	mov	r2, r9
10040b6a:	430a      	orrs	r2, r1
10040b6c:	0092      	lsls	r2, r2, #2
10040b6e:	58ba      	ldr	r2, [r7, r2]
10040b70:	001d      	movs	r5, r3
10040b72:	4697      	mov	pc, r2
10040b74:	9b00      	ldr	r3, [sp, #0]
10040b76:	002c      	movs	r4, r5
10040b78:	469a      	mov	sl, r3
10040b7a:	468b      	mov	fp, r1
10040b7c:	465b      	mov	r3, fp
10040b7e:	2b02      	cmp	r3, #2
10040b80:	d131      	bne.n	10040be6 <__aeabi_fdiv+0x122>
10040b82:	4653      	mov	r3, sl
10040b84:	21ff      	movs	r1, #255	; 0xff
10040b86:	2400      	movs	r4, #0
10040b88:	e038      	b.n	10040bfc <__aeabi_fdiv+0x138>
10040b8a:	2c00      	cmp	r4, #0
10040b8c:	d117      	bne.n	10040bbe <__aeabi_fdiv+0xfa>
10040b8e:	2304      	movs	r3, #4
10040b90:	4699      	mov	r9, r3
10040b92:	2300      	movs	r3, #0
10040b94:	4698      	mov	r8, r3
10040b96:	3301      	adds	r3, #1
10040b98:	469b      	mov	fp, r3
10040b9a:	e7af      	b.n	10040afc <__aeabi_fdiv+0x38>
10040b9c:	20ff      	movs	r0, #255	; 0xff
10040b9e:	2d00      	cmp	r5, #0
10040ba0:	d10b      	bne.n	10040bba <__aeabi_fdiv+0xf6>
10040ba2:	2102      	movs	r1, #2
10040ba4:	e7da      	b.n	10040b5c <__aeabi_fdiv+0x98>
10040ba6:	0028      	movs	r0, r5
10040ba8:	f002 fb28 	bl	100431fc <__clzsi2>
10040bac:	1f43      	subs	r3, r0, #5
10040bae:	409d      	lsls	r5, r3
10040bb0:	2376      	movs	r3, #118	; 0x76
10040bb2:	425b      	negs	r3, r3
10040bb4:	1a18      	subs	r0, r3, r0
10040bb6:	2100      	movs	r1, #0
10040bb8:	e7af      	b.n	10040b1a <__aeabi_fdiv+0x56>
10040bba:	2103      	movs	r1, #3
10040bbc:	e7ad      	b.n	10040b1a <__aeabi_fdiv+0x56>
10040bbe:	0020      	movs	r0, r4
10040bc0:	f002 fb1c 	bl	100431fc <__clzsi2>
10040bc4:	1f43      	subs	r3, r0, #5
10040bc6:	409c      	lsls	r4, r3
10040bc8:	2376      	movs	r3, #118	; 0x76
10040bca:	425b      	negs	r3, r3
10040bcc:	1a1b      	subs	r3, r3, r0
10040bce:	4698      	mov	r8, r3
10040bd0:	2300      	movs	r3, #0
10040bd2:	4699      	mov	r9, r3
10040bd4:	469b      	mov	fp, r3
10040bd6:	e791      	b.n	10040afc <__aeabi_fdiv+0x38>
10040bd8:	230c      	movs	r3, #12
10040bda:	4699      	mov	r9, r3
10040bdc:	33f3      	adds	r3, #243	; 0xf3
10040bde:	4698      	mov	r8, r3
10040be0:	3bfc      	subs	r3, #252	; 0xfc
10040be2:	469b      	mov	fp, r3
10040be4:	e78a      	b.n	10040afc <__aeabi_fdiv+0x38>
10040be6:	2b03      	cmp	r3, #3
10040be8:	d100      	bne.n	10040bec <__aeabi_fdiv+0x128>
10040bea:	e0a5      	b.n	10040d38 <__aeabi_fdiv+0x274>
10040bec:	4655      	mov	r5, sl
10040bee:	2b01      	cmp	r3, #1
10040bf0:	d000      	beq.n	10040bf4 <__aeabi_fdiv+0x130>
10040bf2:	e081      	b.n	10040cf8 <__aeabi_fdiv+0x234>
10040bf4:	2301      	movs	r3, #1
10040bf6:	2100      	movs	r1, #0
10040bf8:	2400      	movs	r4, #0
10040bfa:	402b      	ands	r3, r5
10040bfc:	0264      	lsls	r4, r4, #9
10040bfe:	05c9      	lsls	r1, r1, #23
10040c00:	0a60      	lsrs	r0, r4, #9
10040c02:	07db      	lsls	r3, r3, #31
10040c04:	4308      	orrs	r0, r1
10040c06:	4318      	orrs	r0, r3
10040c08:	b003      	add	sp, #12
10040c0a:	bc3c      	pop	{r2, r3, r4, r5}
10040c0c:	4690      	mov	r8, r2
10040c0e:	4699      	mov	r9, r3
10040c10:	46a2      	mov	sl, r4
10040c12:	46ab      	mov	fp, r5
10040c14:	bdf0      	pop	{r4, r5, r6, r7, pc}
10040c16:	2480      	movs	r4, #128	; 0x80
10040c18:	2300      	movs	r3, #0
10040c1a:	03e4      	lsls	r4, r4, #15
10040c1c:	21ff      	movs	r1, #255	; 0xff
10040c1e:	e7ed      	b.n	10040bfc <__aeabi_fdiv+0x138>
10040c20:	21ff      	movs	r1, #255	; 0xff
10040c22:	2400      	movs	r4, #0
10040c24:	e7ea      	b.n	10040bfc <__aeabi_fdiv+0x138>
10040c26:	2301      	movs	r3, #1
10040c28:	1a59      	subs	r1, r3, r1
10040c2a:	291b      	cmp	r1, #27
10040c2c:	dd66      	ble.n	10040cfc <__aeabi_fdiv+0x238>
10040c2e:	9a01      	ldr	r2, [sp, #4]
10040c30:	4013      	ands	r3, r2
10040c32:	2100      	movs	r1, #0
10040c34:	2400      	movs	r4, #0
10040c36:	e7e1      	b.n	10040bfc <__aeabi_fdiv+0x138>
10040c38:	2380      	movs	r3, #128	; 0x80
10040c3a:	03db      	lsls	r3, r3, #15
10040c3c:	421c      	tst	r4, r3
10040c3e:	d038      	beq.n	10040cb2 <__aeabi_fdiv+0x1ee>
10040c40:	421d      	tst	r5, r3
10040c42:	d051      	beq.n	10040ce8 <__aeabi_fdiv+0x224>
10040c44:	431c      	orrs	r4, r3
10040c46:	0264      	lsls	r4, r4, #9
10040c48:	0a64      	lsrs	r4, r4, #9
10040c4a:	0033      	movs	r3, r6
10040c4c:	21ff      	movs	r1, #255	; 0xff
10040c4e:	e7d5      	b.n	10040bfc <__aeabi_fdiv+0x138>
10040c50:	0163      	lsls	r3, r4, #5
10040c52:	016c      	lsls	r4, r5, #5
10040c54:	42a3      	cmp	r3, r4
10040c56:	d23b      	bcs.n	10040cd0 <__aeabi_fdiv+0x20c>
10040c58:	261b      	movs	r6, #27
10040c5a:	2100      	movs	r1, #0
10040c5c:	3801      	subs	r0, #1
10040c5e:	2501      	movs	r5, #1
10040c60:	001f      	movs	r7, r3
10040c62:	0049      	lsls	r1, r1, #1
10040c64:	005b      	lsls	r3, r3, #1
10040c66:	2f00      	cmp	r7, #0
10040c68:	db01      	blt.n	10040c6e <__aeabi_fdiv+0x1aa>
10040c6a:	429c      	cmp	r4, r3
10040c6c:	d801      	bhi.n	10040c72 <__aeabi_fdiv+0x1ae>
10040c6e:	1b1b      	subs	r3, r3, r4
10040c70:	4329      	orrs	r1, r5
10040c72:	3e01      	subs	r6, #1
10040c74:	2e00      	cmp	r6, #0
10040c76:	d1f3      	bne.n	10040c60 <__aeabi_fdiv+0x19c>
10040c78:	001c      	movs	r4, r3
10040c7a:	1e63      	subs	r3, r4, #1
10040c7c:	419c      	sbcs	r4, r3
10040c7e:	430c      	orrs	r4, r1
10040c80:	0001      	movs	r1, r0
10040c82:	317f      	adds	r1, #127	; 0x7f
10040c84:	2900      	cmp	r1, #0
10040c86:	ddce      	ble.n	10040c26 <__aeabi_fdiv+0x162>
10040c88:	0763      	lsls	r3, r4, #29
10040c8a:	d004      	beq.n	10040c96 <__aeabi_fdiv+0x1d2>
10040c8c:	230f      	movs	r3, #15
10040c8e:	4023      	ands	r3, r4
10040c90:	2b04      	cmp	r3, #4
10040c92:	d000      	beq.n	10040c96 <__aeabi_fdiv+0x1d2>
10040c94:	3404      	adds	r4, #4
10040c96:	0123      	lsls	r3, r4, #4
10040c98:	d503      	bpl.n	10040ca2 <__aeabi_fdiv+0x1de>
10040c9a:	0001      	movs	r1, r0
10040c9c:	4b2c      	ldr	r3, [pc, #176]	; (10040d50 <__aeabi_fdiv+0x28c>)
10040c9e:	3180      	adds	r1, #128	; 0x80
10040ca0:	401c      	ands	r4, r3
10040ca2:	29fe      	cmp	r1, #254	; 0xfe
10040ca4:	dd0d      	ble.n	10040cc2 <__aeabi_fdiv+0x1fe>
10040ca6:	2301      	movs	r3, #1
10040ca8:	9a01      	ldr	r2, [sp, #4]
10040caa:	21ff      	movs	r1, #255	; 0xff
10040cac:	4013      	ands	r3, r2
10040cae:	2400      	movs	r4, #0
10040cb0:	e7a4      	b.n	10040bfc <__aeabi_fdiv+0x138>
10040cb2:	2380      	movs	r3, #128	; 0x80
10040cb4:	03db      	lsls	r3, r3, #15
10040cb6:	431c      	orrs	r4, r3
10040cb8:	0264      	lsls	r4, r4, #9
10040cba:	0a64      	lsrs	r4, r4, #9
10040cbc:	0033      	movs	r3, r6
10040cbe:	21ff      	movs	r1, #255	; 0xff
10040cc0:	e79c      	b.n	10040bfc <__aeabi_fdiv+0x138>
10040cc2:	2301      	movs	r3, #1
10040cc4:	9a01      	ldr	r2, [sp, #4]
10040cc6:	01a4      	lsls	r4, r4, #6
10040cc8:	0a64      	lsrs	r4, r4, #9
10040cca:	b2c9      	uxtb	r1, r1
10040ccc:	4013      	ands	r3, r2
10040cce:	e795      	b.n	10040bfc <__aeabi_fdiv+0x138>
10040cd0:	1b1b      	subs	r3, r3, r4
10040cd2:	261a      	movs	r6, #26
10040cd4:	2101      	movs	r1, #1
10040cd6:	e7c2      	b.n	10040c5e <__aeabi_fdiv+0x19a>
10040cd8:	9b00      	ldr	r3, [sp, #0]
10040cda:	468b      	mov	fp, r1
10040cdc:	469a      	mov	sl, r3
10040cde:	2400      	movs	r4, #0
10040ce0:	e74c      	b.n	10040b7c <__aeabi_fdiv+0xb8>
10040ce2:	0263      	lsls	r3, r4, #9
10040ce4:	d5e5      	bpl.n	10040cb2 <__aeabi_fdiv+0x1ee>
10040ce6:	2500      	movs	r5, #0
10040ce8:	2480      	movs	r4, #128	; 0x80
10040cea:	03e4      	lsls	r4, r4, #15
10040cec:	432c      	orrs	r4, r5
10040cee:	0264      	lsls	r4, r4, #9
10040cf0:	0a64      	lsrs	r4, r4, #9
10040cf2:	9b00      	ldr	r3, [sp, #0]
10040cf4:	21ff      	movs	r1, #255	; 0xff
10040cf6:	e781      	b.n	10040bfc <__aeabi_fdiv+0x138>
10040cf8:	9501      	str	r5, [sp, #4]
10040cfa:	e7c1      	b.n	10040c80 <__aeabi_fdiv+0x1bc>
10040cfc:	0023      	movs	r3, r4
10040cfe:	2020      	movs	r0, #32
10040d00:	40cb      	lsrs	r3, r1
10040d02:	1a41      	subs	r1, r0, r1
10040d04:	408c      	lsls	r4, r1
10040d06:	1e61      	subs	r1, r4, #1
10040d08:	418c      	sbcs	r4, r1
10040d0a:	431c      	orrs	r4, r3
10040d0c:	0763      	lsls	r3, r4, #29
10040d0e:	d004      	beq.n	10040d1a <__aeabi_fdiv+0x256>
10040d10:	230f      	movs	r3, #15
10040d12:	4023      	ands	r3, r4
10040d14:	2b04      	cmp	r3, #4
10040d16:	d000      	beq.n	10040d1a <__aeabi_fdiv+0x256>
10040d18:	3404      	adds	r4, #4
10040d1a:	0163      	lsls	r3, r4, #5
10040d1c:	d505      	bpl.n	10040d2a <__aeabi_fdiv+0x266>
10040d1e:	2301      	movs	r3, #1
10040d20:	9a01      	ldr	r2, [sp, #4]
10040d22:	2101      	movs	r1, #1
10040d24:	4013      	ands	r3, r2
10040d26:	2400      	movs	r4, #0
10040d28:	e768      	b.n	10040bfc <__aeabi_fdiv+0x138>
10040d2a:	2301      	movs	r3, #1
10040d2c:	9a01      	ldr	r2, [sp, #4]
10040d2e:	01a4      	lsls	r4, r4, #6
10040d30:	0a64      	lsrs	r4, r4, #9
10040d32:	4013      	ands	r3, r2
10040d34:	2100      	movs	r1, #0
10040d36:	e761      	b.n	10040bfc <__aeabi_fdiv+0x138>
10040d38:	2380      	movs	r3, #128	; 0x80
10040d3a:	03db      	lsls	r3, r3, #15
10040d3c:	431c      	orrs	r4, r3
10040d3e:	0264      	lsls	r4, r4, #9
10040d40:	0a64      	lsrs	r4, r4, #9
10040d42:	4653      	mov	r3, sl
10040d44:	21ff      	movs	r1, #255	; 0xff
10040d46:	e759      	b.n	10040bfc <__aeabi_fdiv+0x138>
10040d48:	1004e500 	.word	0x1004e500
10040d4c:	1004e540 	.word	0x1004e540
10040d50:	f7ffffff 	.word	0xf7ffffff

10040d54 <__eqsf2>:
10040d54:	b570      	push	{r4, r5, r6, lr}
10040d56:	0042      	lsls	r2, r0, #1
10040d58:	0245      	lsls	r5, r0, #9
10040d5a:	024e      	lsls	r6, r1, #9
10040d5c:	004c      	lsls	r4, r1, #1
10040d5e:	0fc3      	lsrs	r3, r0, #31
10040d60:	0a6d      	lsrs	r5, r5, #9
10040d62:	0e12      	lsrs	r2, r2, #24
10040d64:	0a76      	lsrs	r6, r6, #9
10040d66:	0e24      	lsrs	r4, r4, #24
10040d68:	0fc9      	lsrs	r1, r1, #31
10040d6a:	2001      	movs	r0, #1
10040d6c:	2aff      	cmp	r2, #255	; 0xff
10040d6e:	d006      	beq.n	10040d7e <__eqsf2+0x2a>
10040d70:	2cff      	cmp	r4, #255	; 0xff
10040d72:	d003      	beq.n	10040d7c <__eqsf2+0x28>
10040d74:	42a2      	cmp	r2, r4
10040d76:	d101      	bne.n	10040d7c <__eqsf2+0x28>
10040d78:	42b5      	cmp	r5, r6
10040d7a:	d006      	beq.n	10040d8a <__eqsf2+0x36>
10040d7c:	bd70      	pop	{r4, r5, r6, pc}
10040d7e:	2d00      	cmp	r5, #0
10040d80:	d1fc      	bne.n	10040d7c <__eqsf2+0x28>
10040d82:	2cff      	cmp	r4, #255	; 0xff
10040d84:	d1fa      	bne.n	10040d7c <__eqsf2+0x28>
10040d86:	2e00      	cmp	r6, #0
10040d88:	d1f8      	bne.n	10040d7c <__eqsf2+0x28>
10040d8a:	428b      	cmp	r3, r1
10040d8c:	d006      	beq.n	10040d9c <__eqsf2+0x48>
10040d8e:	2001      	movs	r0, #1
10040d90:	2a00      	cmp	r2, #0
10040d92:	d1f3      	bne.n	10040d7c <__eqsf2+0x28>
10040d94:	0028      	movs	r0, r5
10040d96:	1e45      	subs	r5, r0, #1
10040d98:	41a8      	sbcs	r0, r5
10040d9a:	e7ef      	b.n	10040d7c <__eqsf2+0x28>
10040d9c:	2000      	movs	r0, #0
10040d9e:	e7ed      	b.n	10040d7c <__eqsf2+0x28>

10040da0 <__gesf2>:
10040da0:	b5f0      	push	{r4, r5, r6, r7, lr}
10040da2:	0042      	lsls	r2, r0, #1
10040da4:	0245      	lsls	r5, r0, #9
10040da6:	024c      	lsls	r4, r1, #9
10040da8:	0fc3      	lsrs	r3, r0, #31
10040daa:	0048      	lsls	r0, r1, #1
10040dac:	0a6d      	lsrs	r5, r5, #9
10040dae:	0e12      	lsrs	r2, r2, #24
10040db0:	0a64      	lsrs	r4, r4, #9
10040db2:	0e00      	lsrs	r0, r0, #24
10040db4:	0fc9      	lsrs	r1, r1, #31
10040db6:	2aff      	cmp	r2, #255	; 0xff
10040db8:	d01e      	beq.n	10040df8 <__gesf2+0x58>
10040dba:	28ff      	cmp	r0, #255	; 0xff
10040dbc:	d021      	beq.n	10040e02 <__gesf2+0x62>
10040dbe:	2a00      	cmp	r2, #0
10040dc0:	d10a      	bne.n	10040dd8 <__gesf2+0x38>
10040dc2:	426e      	negs	r6, r5
10040dc4:	416e      	adcs	r6, r5
10040dc6:	b2f6      	uxtb	r6, r6
10040dc8:	2800      	cmp	r0, #0
10040dca:	d10f      	bne.n	10040dec <__gesf2+0x4c>
10040dcc:	2c00      	cmp	r4, #0
10040dce:	d10d      	bne.n	10040dec <__gesf2+0x4c>
10040dd0:	2000      	movs	r0, #0
10040dd2:	2d00      	cmp	r5, #0
10040dd4:	d009      	beq.n	10040dea <__gesf2+0x4a>
10040dd6:	e005      	b.n	10040de4 <__gesf2+0x44>
10040dd8:	2800      	cmp	r0, #0
10040dda:	d101      	bne.n	10040de0 <__gesf2+0x40>
10040ddc:	2c00      	cmp	r4, #0
10040dde:	d001      	beq.n	10040de4 <__gesf2+0x44>
10040de0:	428b      	cmp	r3, r1
10040de2:	d011      	beq.n	10040e08 <__gesf2+0x68>
10040de4:	2101      	movs	r1, #1
10040de6:	4258      	negs	r0, r3
10040de8:	4308      	orrs	r0, r1
10040dea:	bdf0      	pop	{r4, r5, r6, r7, pc}
10040dec:	2e00      	cmp	r6, #0
10040dee:	d0f7      	beq.n	10040de0 <__gesf2+0x40>
10040df0:	2001      	movs	r0, #1
10040df2:	3901      	subs	r1, #1
10040df4:	4308      	orrs	r0, r1
10040df6:	e7f8      	b.n	10040dea <__gesf2+0x4a>
10040df8:	2d00      	cmp	r5, #0
10040dfa:	d0de      	beq.n	10040dba <__gesf2+0x1a>
10040dfc:	2002      	movs	r0, #2
10040dfe:	4240      	negs	r0, r0
10040e00:	e7f3      	b.n	10040dea <__gesf2+0x4a>
10040e02:	2c00      	cmp	r4, #0
10040e04:	d0db      	beq.n	10040dbe <__gesf2+0x1e>
10040e06:	e7f9      	b.n	10040dfc <__gesf2+0x5c>
10040e08:	4282      	cmp	r2, r0
10040e0a:	dceb      	bgt.n	10040de4 <__gesf2+0x44>
10040e0c:	db04      	blt.n	10040e18 <__gesf2+0x78>
10040e0e:	42a5      	cmp	r5, r4
10040e10:	d8e8      	bhi.n	10040de4 <__gesf2+0x44>
10040e12:	2000      	movs	r0, #0
10040e14:	42a5      	cmp	r5, r4
10040e16:	d2e8      	bcs.n	10040dea <__gesf2+0x4a>
10040e18:	2101      	movs	r1, #1
10040e1a:	1e58      	subs	r0, r3, #1
10040e1c:	4308      	orrs	r0, r1
10040e1e:	e7e4      	b.n	10040dea <__gesf2+0x4a>

10040e20 <__lesf2>:
10040e20:	b5f0      	push	{r4, r5, r6, r7, lr}
10040e22:	0042      	lsls	r2, r0, #1
10040e24:	024d      	lsls	r5, r1, #9
10040e26:	004c      	lsls	r4, r1, #1
10040e28:	0246      	lsls	r6, r0, #9
10040e2a:	0a76      	lsrs	r6, r6, #9
10040e2c:	0e12      	lsrs	r2, r2, #24
10040e2e:	0fc3      	lsrs	r3, r0, #31
10040e30:	0a6d      	lsrs	r5, r5, #9
10040e32:	0e24      	lsrs	r4, r4, #24
10040e34:	0fc9      	lsrs	r1, r1, #31
10040e36:	2aff      	cmp	r2, #255	; 0xff
10040e38:	d016      	beq.n	10040e68 <__lesf2+0x48>
10040e3a:	2cff      	cmp	r4, #255	; 0xff
10040e3c:	d018      	beq.n	10040e70 <__lesf2+0x50>
10040e3e:	2a00      	cmp	r2, #0
10040e40:	d10a      	bne.n	10040e58 <__lesf2+0x38>
10040e42:	4270      	negs	r0, r6
10040e44:	4170      	adcs	r0, r6
10040e46:	b2c0      	uxtb	r0, r0
10040e48:	2c00      	cmp	r4, #0
10040e4a:	d015      	beq.n	10040e78 <__lesf2+0x58>
10040e4c:	2800      	cmp	r0, #0
10040e4e:	d005      	beq.n	10040e5c <__lesf2+0x3c>
10040e50:	2001      	movs	r0, #1
10040e52:	3901      	subs	r1, #1
10040e54:	4308      	orrs	r0, r1
10040e56:	bdf0      	pop	{r4, r5, r6, r7, pc}
10040e58:	2c00      	cmp	r4, #0
10040e5a:	d013      	beq.n	10040e84 <__lesf2+0x64>
10040e5c:	4299      	cmp	r1, r3
10040e5e:	d014      	beq.n	10040e8a <__lesf2+0x6a>
10040e60:	2001      	movs	r0, #1
10040e62:	425b      	negs	r3, r3
10040e64:	4318      	orrs	r0, r3
10040e66:	e7f6      	b.n	10040e56 <__lesf2+0x36>
10040e68:	2002      	movs	r0, #2
10040e6a:	2e00      	cmp	r6, #0
10040e6c:	d1f3      	bne.n	10040e56 <__lesf2+0x36>
10040e6e:	e7e4      	b.n	10040e3a <__lesf2+0x1a>
10040e70:	2002      	movs	r0, #2
10040e72:	2d00      	cmp	r5, #0
10040e74:	d1ef      	bne.n	10040e56 <__lesf2+0x36>
10040e76:	e7e2      	b.n	10040e3e <__lesf2+0x1e>
10040e78:	2d00      	cmp	r5, #0
10040e7a:	d1e7      	bne.n	10040e4c <__lesf2+0x2c>
10040e7c:	2000      	movs	r0, #0
10040e7e:	2e00      	cmp	r6, #0
10040e80:	d0e9      	beq.n	10040e56 <__lesf2+0x36>
10040e82:	e7ed      	b.n	10040e60 <__lesf2+0x40>
10040e84:	2d00      	cmp	r5, #0
10040e86:	d1e9      	bne.n	10040e5c <__lesf2+0x3c>
10040e88:	e7ea      	b.n	10040e60 <__lesf2+0x40>
10040e8a:	42a2      	cmp	r2, r4
10040e8c:	dc06      	bgt.n	10040e9c <__lesf2+0x7c>
10040e8e:	dbdf      	blt.n	10040e50 <__lesf2+0x30>
10040e90:	42ae      	cmp	r6, r5
10040e92:	d803      	bhi.n	10040e9c <__lesf2+0x7c>
10040e94:	2000      	movs	r0, #0
10040e96:	42ae      	cmp	r6, r5
10040e98:	d3da      	bcc.n	10040e50 <__lesf2+0x30>
10040e9a:	e7dc      	b.n	10040e56 <__lesf2+0x36>
10040e9c:	2001      	movs	r0, #1
10040e9e:	4249      	negs	r1, r1
10040ea0:	4308      	orrs	r0, r1
10040ea2:	e7d8      	b.n	10040e56 <__lesf2+0x36>

10040ea4 <__aeabi_fmul>:
10040ea4:	b5f8      	push	{r3, r4, r5, r6, r7, lr}
10040ea6:	4657      	mov	r7, sl
10040ea8:	464e      	mov	r6, r9
10040eaa:	4645      	mov	r5, r8
10040eac:	46de      	mov	lr, fp
10040eae:	b5e0      	push	{r5, r6, r7, lr}
10040eb0:	0247      	lsls	r7, r0, #9
10040eb2:	0046      	lsls	r6, r0, #1
10040eb4:	4688      	mov	r8, r1
10040eb6:	0a7f      	lsrs	r7, r7, #9
10040eb8:	0e36      	lsrs	r6, r6, #24
10040eba:	0fc4      	lsrs	r4, r0, #31
10040ebc:	2e00      	cmp	r6, #0
10040ebe:	d047      	beq.n	10040f50 <__aeabi_fmul+0xac>
10040ec0:	2eff      	cmp	r6, #255	; 0xff
10040ec2:	d024      	beq.n	10040f0e <__aeabi_fmul+0x6a>
10040ec4:	00fb      	lsls	r3, r7, #3
10040ec6:	2780      	movs	r7, #128	; 0x80
10040ec8:	04ff      	lsls	r7, r7, #19
10040eca:	431f      	orrs	r7, r3
10040ecc:	2300      	movs	r3, #0
10040ece:	4699      	mov	r9, r3
10040ed0:	469a      	mov	sl, r3
10040ed2:	3e7f      	subs	r6, #127	; 0x7f
10040ed4:	4643      	mov	r3, r8
10040ed6:	025d      	lsls	r5, r3, #9
10040ed8:	0058      	lsls	r0, r3, #1
10040eda:	0fdb      	lsrs	r3, r3, #31
10040edc:	0a6d      	lsrs	r5, r5, #9
10040ede:	0e00      	lsrs	r0, r0, #24
10040ee0:	4698      	mov	r8, r3
10040ee2:	d043      	beq.n	10040f6c <__aeabi_fmul+0xc8>
10040ee4:	28ff      	cmp	r0, #255	; 0xff
10040ee6:	d03b      	beq.n	10040f60 <__aeabi_fmul+0xbc>
10040ee8:	00eb      	lsls	r3, r5, #3
10040eea:	2580      	movs	r5, #128	; 0x80
10040eec:	2200      	movs	r2, #0
10040eee:	04ed      	lsls	r5, r5, #19
10040ef0:	431d      	orrs	r5, r3
10040ef2:	387f      	subs	r0, #127	; 0x7f
10040ef4:	1836      	adds	r6, r6, r0
10040ef6:	1c73      	adds	r3, r6, #1
10040ef8:	4641      	mov	r1, r8
10040efa:	469b      	mov	fp, r3
10040efc:	464b      	mov	r3, r9
10040efe:	4061      	eors	r1, r4
10040f00:	4313      	orrs	r3, r2
10040f02:	2b0f      	cmp	r3, #15
10040f04:	d864      	bhi.n	10040fd0 <__aeabi_fmul+0x12c>
10040f06:	4875      	ldr	r0, [pc, #468]	; (100410dc <__aeabi_fmul+0x238>)
10040f08:	009b      	lsls	r3, r3, #2
10040f0a:	58c3      	ldr	r3, [r0, r3]
10040f0c:	469f      	mov	pc, r3
10040f0e:	2f00      	cmp	r7, #0
10040f10:	d142      	bne.n	10040f98 <__aeabi_fmul+0xf4>
10040f12:	2308      	movs	r3, #8
10040f14:	4699      	mov	r9, r3
10040f16:	3b06      	subs	r3, #6
10040f18:	26ff      	movs	r6, #255	; 0xff
10040f1a:	469a      	mov	sl, r3
10040f1c:	e7da      	b.n	10040ed4 <__aeabi_fmul+0x30>
10040f1e:	4641      	mov	r1, r8
10040f20:	2a02      	cmp	r2, #2
10040f22:	d028      	beq.n	10040f76 <__aeabi_fmul+0xd2>
10040f24:	2a03      	cmp	r2, #3
10040f26:	d100      	bne.n	10040f2a <__aeabi_fmul+0x86>
10040f28:	e0ce      	b.n	100410c8 <__aeabi_fmul+0x224>
10040f2a:	2a01      	cmp	r2, #1
10040f2c:	d000      	beq.n	10040f30 <__aeabi_fmul+0x8c>
10040f2e:	e0ac      	b.n	1004108a <__aeabi_fmul+0x1e6>
10040f30:	4011      	ands	r1, r2
10040f32:	2000      	movs	r0, #0
10040f34:	2200      	movs	r2, #0
10040f36:	b2cc      	uxtb	r4, r1
10040f38:	0240      	lsls	r0, r0, #9
10040f3a:	05d2      	lsls	r2, r2, #23
10040f3c:	0a40      	lsrs	r0, r0, #9
10040f3e:	07e4      	lsls	r4, r4, #31
10040f40:	4310      	orrs	r0, r2
10040f42:	4320      	orrs	r0, r4
10040f44:	bc3c      	pop	{r2, r3, r4, r5}
10040f46:	4690      	mov	r8, r2
10040f48:	4699      	mov	r9, r3
10040f4a:	46a2      	mov	sl, r4
10040f4c:	46ab      	mov	fp, r5
10040f4e:	bdf8      	pop	{r3, r4, r5, r6, r7, pc}
10040f50:	2f00      	cmp	r7, #0
10040f52:	d115      	bne.n	10040f80 <__aeabi_fmul+0xdc>
10040f54:	2304      	movs	r3, #4
10040f56:	4699      	mov	r9, r3
10040f58:	3b03      	subs	r3, #3
10040f5a:	2600      	movs	r6, #0
10040f5c:	469a      	mov	sl, r3
10040f5e:	e7b9      	b.n	10040ed4 <__aeabi_fmul+0x30>
10040f60:	20ff      	movs	r0, #255	; 0xff
10040f62:	2202      	movs	r2, #2
10040f64:	2d00      	cmp	r5, #0
10040f66:	d0c5      	beq.n	10040ef4 <__aeabi_fmul+0x50>
10040f68:	2203      	movs	r2, #3
10040f6a:	e7c3      	b.n	10040ef4 <__aeabi_fmul+0x50>
10040f6c:	2d00      	cmp	r5, #0
10040f6e:	d119      	bne.n	10040fa4 <__aeabi_fmul+0x100>
10040f70:	2000      	movs	r0, #0
10040f72:	2201      	movs	r2, #1
10040f74:	e7be      	b.n	10040ef4 <__aeabi_fmul+0x50>
10040f76:	2401      	movs	r4, #1
10040f78:	22ff      	movs	r2, #255	; 0xff
10040f7a:	400c      	ands	r4, r1
10040f7c:	2000      	movs	r0, #0
10040f7e:	e7db      	b.n	10040f38 <__aeabi_fmul+0x94>
10040f80:	0038      	movs	r0, r7
10040f82:	f002 f93b 	bl	100431fc <__clzsi2>
10040f86:	2676      	movs	r6, #118	; 0x76
10040f88:	1f43      	subs	r3, r0, #5
10040f8a:	409f      	lsls	r7, r3
10040f8c:	2300      	movs	r3, #0
10040f8e:	4276      	negs	r6, r6
10040f90:	1a36      	subs	r6, r6, r0
10040f92:	4699      	mov	r9, r3
10040f94:	469a      	mov	sl, r3
10040f96:	e79d      	b.n	10040ed4 <__aeabi_fmul+0x30>
10040f98:	230c      	movs	r3, #12
10040f9a:	4699      	mov	r9, r3
10040f9c:	3b09      	subs	r3, #9
10040f9e:	26ff      	movs	r6, #255	; 0xff
10040fa0:	469a      	mov	sl, r3
10040fa2:	e797      	b.n	10040ed4 <__aeabi_fmul+0x30>
10040fa4:	0028      	movs	r0, r5
10040fa6:	f002 f929 	bl	100431fc <__clzsi2>
10040faa:	1f43      	subs	r3, r0, #5
10040fac:	409d      	lsls	r5, r3
10040fae:	2376      	movs	r3, #118	; 0x76
10040fb0:	425b      	negs	r3, r3
10040fb2:	1a18      	subs	r0, r3, r0
10040fb4:	2200      	movs	r2, #0
10040fb6:	e79d      	b.n	10040ef4 <__aeabi_fmul+0x50>
10040fb8:	2080      	movs	r0, #128	; 0x80
10040fba:	2400      	movs	r4, #0
10040fbc:	03c0      	lsls	r0, r0, #15
10040fbe:	22ff      	movs	r2, #255	; 0xff
10040fc0:	e7ba      	b.n	10040f38 <__aeabi_fmul+0x94>
10040fc2:	003d      	movs	r5, r7
10040fc4:	4652      	mov	r2, sl
10040fc6:	e7ab      	b.n	10040f20 <__aeabi_fmul+0x7c>
10040fc8:	003d      	movs	r5, r7
10040fca:	0021      	movs	r1, r4
10040fcc:	4652      	mov	r2, sl
10040fce:	e7a7      	b.n	10040f20 <__aeabi_fmul+0x7c>
10040fd0:	0c3b      	lsrs	r3, r7, #16
10040fd2:	469c      	mov	ip, r3
10040fd4:	042a      	lsls	r2, r5, #16
10040fd6:	0c12      	lsrs	r2, r2, #16
10040fd8:	0c2b      	lsrs	r3, r5, #16
10040fda:	0014      	movs	r4, r2
10040fdc:	4660      	mov	r0, ip
10040fde:	4665      	mov	r5, ip
10040fe0:	043f      	lsls	r7, r7, #16
10040fe2:	0c3f      	lsrs	r7, r7, #16
10040fe4:	437c      	muls	r4, r7
10040fe6:	4342      	muls	r2, r0
10040fe8:	435d      	muls	r5, r3
10040fea:	437b      	muls	r3, r7
10040fec:	0c27      	lsrs	r7, r4, #16
10040fee:	189b      	adds	r3, r3, r2
10040ff0:	18ff      	adds	r7, r7, r3
10040ff2:	42ba      	cmp	r2, r7
10040ff4:	d903      	bls.n	10040ffe <__aeabi_fmul+0x15a>
10040ff6:	2380      	movs	r3, #128	; 0x80
10040ff8:	025b      	lsls	r3, r3, #9
10040ffa:	469c      	mov	ip, r3
10040ffc:	4465      	add	r5, ip
10040ffe:	0424      	lsls	r4, r4, #16
10041000:	043a      	lsls	r2, r7, #16
10041002:	0c24      	lsrs	r4, r4, #16
10041004:	1912      	adds	r2, r2, r4
10041006:	0193      	lsls	r3, r2, #6
10041008:	1e5c      	subs	r4, r3, #1
1004100a:	41a3      	sbcs	r3, r4
1004100c:	0c3f      	lsrs	r7, r7, #16
1004100e:	0e92      	lsrs	r2, r2, #26
10041010:	197d      	adds	r5, r7, r5
10041012:	431a      	orrs	r2, r3
10041014:	01ad      	lsls	r5, r5, #6
10041016:	4315      	orrs	r5, r2
10041018:	012b      	lsls	r3, r5, #4
1004101a:	d504      	bpl.n	10041026 <__aeabi_fmul+0x182>
1004101c:	2301      	movs	r3, #1
1004101e:	465e      	mov	r6, fp
10041020:	086a      	lsrs	r2, r5, #1
10041022:	401d      	ands	r5, r3
10041024:	4315      	orrs	r5, r2
10041026:	0032      	movs	r2, r6
10041028:	327f      	adds	r2, #127	; 0x7f
1004102a:	2a00      	cmp	r2, #0
1004102c:	dd25      	ble.n	1004107a <__aeabi_fmul+0x1d6>
1004102e:	076b      	lsls	r3, r5, #29
10041030:	d004      	beq.n	1004103c <__aeabi_fmul+0x198>
10041032:	230f      	movs	r3, #15
10041034:	402b      	ands	r3, r5
10041036:	2b04      	cmp	r3, #4
10041038:	d000      	beq.n	1004103c <__aeabi_fmul+0x198>
1004103a:	3504      	adds	r5, #4
1004103c:	012b      	lsls	r3, r5, #4
1004103e:	d503      	bpl.n	10041048 <__aeabi_fmul+0x1a4>
10041040:	0032      	movs	r2, r6
10041042:	4b27      	ldr	r3, [pc, #156]	; (100410e0 <__aeabi_fmul+0x23c>)
10041044:	3280      	adds	r2, #128	; 0x80
10041046:	401d      	ands	r5, r3
10041048:	2afe      	cmp	r2, #254	; 0xfe
1004104a:	dc94      	bgt.n	10040f76 <__aeabi_fmul+0xd2>
1004104c:	2401      	movs	r4, #1
1004104e:	01a8      	lsls	r0, r5, #6
10041050:	0a40      	lsrs	r0, r0, #9
10041052:	b2d2      	uxtb	r2, r2
10041054:	400c      	ands	r4, r1
10041056:	e76f      	b.n	10040f38 <__aeabi_fmul+0x94>
10041058:	2080      	movs	r0, #128	; 0x80
1004105a:	03c0      	lsls	r0, r0, #15
1004105c:	4207      	tst	r7, r0
1004105e:	d007      	beq.n	10041070 <__aeabi_fmul+0x1cc>
10041060:	4205      	tst	r5, r0
10041062:	d105      	bne.n	10041070 <__aeabi_fmul+0x1cc>
10041064:	4328      	orrs	r0, r5
10041066:	0240      	lsls	r0, r0, #9
10041068:	0a40      	lsrs	r0, r0, #9
1004106a:	4644      	mov	r4, r8
1004106c:	22ff      	movs	r2, #255	; 0xff
1004106e:	e763      	b.n	10040f38 <__aeabi_fmul+0x94>
10041070:	4338      	orrs	r0, r7
10041072:	0240      	lsls	r0, r0, #9
10041074:	0a40      	lsrs	r0, r0, #9
10041076:	22ff      	movs	r2, #255	; 0xff
10041078:	e75e      	b.n	10040f38 <__aeabi_fmul+0x94>
1004107a:	2401      	movs	r4, #1
1004107c:	1aa3      	subs	r3, r4, r2
1004107e:	2b1b      	cmp	r3, #27
10041080:	dd05      	ble.n	1004108e <__aeabi_fmul+0x1ea>
10041082:	400c      	ands	r4, r1
10041084:	2200      	movs	r2, #0
10041086:	2000      	movs	r0, #0
10041088:	e756      	b.n	10040f38 <__aeabi_fmul+0x94>
1004108a:	465e      	mov	r6, fp
1004108c:	e7cb      	b.n	10041026 <__aeabi_fmul+0x182>
1004108e:	002a      	movs	r2, r5
10041090:	2020      	movs	r0, #32
10041092:	40da      	lsrs	r2, r3
10041094:	1ac3      	subs	r3, r0, r3
10041096:	409d      	lsls	r5, r3
10041098:	002b      	movs	r3, r5
1004109a:	1e5d      	subs	r5, r3, #1
1004109c:	41ab      	sbcs	r3, r5
1004109e:	4313      	orrs	r3, r2
100410a0:	075a      	lsls	r2, r3, #29
100410a2:	d004      	beq.n	100410ae <__aeabi_fmul+0x20a>
100410a4:	220f      	movs	r2, #15
100410a6:	401a      	ands	r2, r3
100410a8:	2a04      	cmp	r2, #4
100410aa:	d000      	beq.n	100410ae <__aeabi_fmul+0x20a>
100410ac:	3304      	adds	r3, #4
100410ae:	015a      	lsls	r2, r3, #5
100410b0:	d504      	bpl.n	100410bc <__aeabi_fmul+0x218>
100410b2:	2401      	movs	r4, #1
100410b4:	2201      	movs	r2, #1
100410b6:	400c      	ands	r4, r1
100410b8:	2000      	movs	r0, #0
100410ba:	e73d      	b.n	10040f38 <__aeabi_fmul+0x94>
100410bc:	2401      	movs	r4, #1
100410be:	019b      	lsls	r3, r3, #6
100410c0:	0a58      	lsrs	r0, r3, #9
100410c2:	400c      	ands	r4, r1
100410c4:	2200      	movs	r2, #0
100410c6:	e737      	b.n	10040f38 <__aeabi_fmul+0x94>
100410c8:	2080      	movs	r0, #128	; 0x80
100410ca:	2401      	movs	r4, #1
100410cc:	03c0      	lsls	r0, r0, #15
100410ce:	4328      	orrs	r0, r5
100410d0:	0240      	lsls	r0, r0, #9
100410d2:	0a40      	lsrs	r0, r0, #9
100410d4:	400c      	ands	r4, r1
100410d6:	22ff      	movs	r2, #255	; 0xff
100410d8:	e72e      	b.n	10040f38 <__aeabi_fmul+0x94>
100410da:	46c0      	nop			; (mov r8, r8)
100410dc:	1004e580 	.word	0x1004e580
100410e0:	f7ffffff 	.word	0xf7ffffff

100410e4 <__aeabi_fsub>:
100410e4:	b5f0      	push	{r4, r5, r6, r7, lr}
100410e6:	464f      	mov	r7, r9
100410e8:	46d6      	mov	lr, sl
100410ea:	4646      	mov	r6, r8
100410ec:	0044      	lsls	r4, r0, #1
100410ee:	b5c0      	push	{r6, r7, lr}
100410f0:	0fc2      	lsrs	r2, r0, #31
100410f2:	0247      	lsls	r7, r0, #9
100410f4:	0248      	lsls	r0, r1, #9
100410f6:	0a40      	lsrs	r0, r0, #9
100410f8:	4684      	mov	ip, r0
100410fa:	4666      	mov	r6, ip
100410fc:	0a7b      	lsrs	r3, r7, #9
100410fe:	0048      	lsls	r0, r1, #1
10041100:	0fc9      	lsrs	r1, r1, #31
10041102:	469a      	mov	sl, r3
10041104:	0e24      	lsrs	r4, r4, #24
10041106:	0015      	movs	r5, r2
10041108:	00db      	lsls	r3, r3, #3
1004110a:	0e00      	lsrs	r0, r0, #24
1004110c:	4689      	mov	r9, r1
1004110e:	00f6      	lsls	r6, r6, #3
10041110:	28ff      	cmp	r0, #255	; 0xff
10041112:	d100      	bne.n	10041116 <__aeabi_fsub+0x32>
10041114:	e08f      	b.n	10041236 <__aeabi_fsub+0x152>
10041116:	2101      	movs	r1, #1
10041118:	464f      	mov	r7, r9
1004111a:	404f      	eors	r7, r1
1004111c:	0039      	movs	r1, r7
1004111e:	4291      	cmp	r1, r2
10041120:	d066      	beq.n	100411f0 <__aeabi_fsub+0x10c>
10041122:	1a22      	subs	r2, r4, r0
10041124:	2a00      	cmp	r2, #0
10041126:	dc00      	bgt.n	1004112a <__aeabi_fsub+0x46>
10041128:	e09d      	b.n	10041266 <__aeabi_fsub+0x182>
1004112a:	2800      	cmp	r0, #0
1004112c:	d13d      	bne.n	100411aa <__aeabi_fsub+0xc6>
1004112e:	2e00      	cmp	r6, #0
10041130:	d100      	bne.n	10041134 <__aeabi_fsub+0x50>
10041132:	e08b      	b.n	1004124c <__aeabi_fsub+0x168>
10041134:	1e51      	subs	r1, r2, #1
10041136:	2900      	cmp	r1, #0
10041138:	d000      	beq.n	1004113c <__aeabi_fsub+0x58>
1004113a:	e0b5      	b.n	100412a8 <__aeabi_fsub+0x1c4>
1004113c:	2401      	movs	r4, #1
1004113e:	1b9b      	subs	r3, r3, r6
10041140:	015a      	lsls	r2, r3, #5
10041142:	d544      	bpl.n	100411ce <__aeabi_fsub+0xea>
10041144:	019b      	lsls	r3, r3, #6
10041146:	099f      	lsrs	r7, r3, #6
10041148:	0038      	movs	r0, r7
1004114a:	f002 f857 	bl	100431fc <__clzsi2>
1004114e:	3805      	subs	r0, #5
10041150:	4087      	lsls	r7, r0
10041152:	4284      	cmp	r4, r0
10041154:	dd00      	ble.n	10041158 <__aeabi_fsub+0x74>
10041156:	e096      	b.n	10041286 <__aeabi_fsub+0x1a2>
10041158:	1b04      	subs	r4, r0, r4
1004115a:	003a      	movs	r2, r7
1004115c:	2020      	movs	r0, #32
1004115e:	3401      	adds	r4, #1
10041160:	40e2      	lsrs	r2, r4
10041162:	1b04      	subs	r4, r0, r4
10041164:	40a7      	lsls	r7, r4
10041166:	003b      	movs	r3, r7
10041168:	1e5f      	subs	r7, r3, #1
1004116a:	41bb      	sbcs	r3, r7
1004116c:	2400      	movs	r4, #0
1004116e:	4313      	orrs	r3, r2
10041170:	075a      	lsls	r2, r3, #29
10041172:	d004      	beq.n	1004117e <__aeabi_fsub+0x9a>
10041174:	220f      	movs	r2, #15
10041176:	401a      	ands	r2, r3
10041178:	2a04      	cmp	r2, #4
1004117a:	d000      	beq.n	1004117e <__aeabi_fsub+0x9a>
1004117c:	3304      	adds	r3, #4
1004117e:	015a      	lsls	r2, r3, #5
10041180:	d527      	bpl.n	100411d2 <__aeabi_fsub+0xee>
10041182:	3401      	adds	r4, #1
10041184:	2cff      	cmp	r4, #255	; 0xff
10041186:	d100      	bne.n	1004118a <__aeabi_fsub+0xa6>
10041188:	e079      	b.n	1004127e <__aeabi_fsub+0x19a>
1004118a:	2201      	movs	r2, #1
1004118c:	019b      	lsls	r3, r3, #6
1004118e:	0a5b      	lsrs	r3, r3, #9
10041190:	b2e4      	uxtb	r4, r4
10041192:	402a      	ands	r2, r5
10041194:	025b      	lsls	r3, r3, #9
10041196:	05e4      	lsls	r4, r4, #23
10041198:	0a58      	lsrs	r0, r3, #9
1004119a:	07d2      	lsls	r2, r2, #31
1004119c:	4320      	orrs	r0, r4
1004119e:	4310      	orrs	r0, r2
100411a0:	bc1c      	pop	{r2, r3, r4}
100411a2:	4690      	mov	r8, r2
100411a4:	4699      	mov	r9, r3
100411a6:	46a2      	mov	sl, r4
100411a8:	bdf0      	pop	{r4, r5, r6, r7, pc}
100411aa:	2cff      	cmp	r4, #255	; 0xff
100411ac:	d0e0      	beq.n	10041170 <__aeabi_fsub+0x8c>
100411ae:	2180      	movs	r1, #128	; 0x80
100411b0:	04c9      	lsls	r1, r1, #19
100411b2:	430e      	orrs	r6, r1
100411b4:	2a1b      	cmp	r2, #27
100411b6:	dc7b      	bgt.n	100412b0 <__aeabi_fsub+0x1cc>
100411b8:	0031      	movs	r1, r6
100411ba:	2020      	movs	r0, #32
100411bc:	40d1      	lsrs	r1, r2
100411be:	1a82      	subs	r2, r0, r2
100411c0:	4096      	lsls	r6, r2
100411c2:	1e72      	subs	r2, r6, #1
100411c4:	4196      	sbcs	r6, r2
100411c6:	430e      	orrs	r6, r1
100411c8:	1b9b      	subs	r3, r3, r6
100411ca:	015a      	lsls	r2, r3, #5
100411cc:	d4ba      	bmi.n	10041144 <__aeabi_fsub+0x60>
100411ce:	075a      	lsls	r2, r3, #29
100411d0:	d1d0      	bne.n	10041174 <__aeabi_fsub+0x90>
100411d2:	2201      	movs	r2, #1
100411d4:	08df      	lsrs	r7, r3, #3
100411d6:	402a      	ands	r2, r5
100411d8:	2cff      	cmp	r4, #255	; 0xff
100411da:	d133      	bne.n	10041244 <__aeabi_fsub+0x160>
100411dc:	2f00      	cmp	r7, #0
100411de:	d100      	bne.n	100411e2 <__aeabi_fsub+0xfe>
100411e0:	e0a8      	b.n	10041334 <__aeabi_fsub+0x250>
100411e2:	2380      	movs	r3, #128	; 0x80
100411e4:	03db      	lsls	r3, r3, #15
100411e6:	433b      	orrs	r3, r7
100411e8:	025b      	lsls	r3, r3, #9
100411ea:	0a5b      	lsrs	r3, r3, #9
100411ec:	24ff      	movs	r4, #255	; 0xff
100411ee:	e7d1      	b.n	10041194 <__aeabi_fsub+0xb0>
100411f0:	1a21      	subs	r1, r4, r0
100411f2:	2900      	cmp	r1, #0
100411f4:	dd4c      	ble.n	10041290 <__aeabi_fsub+0x1ac>
100411f6:	2800      	cmp	r0, #0
100411f8:	d02a      	beq.n	10041250 <__aeabi_fsub+0x16c>
100411fa:	2cff      	cmp	r4, #255	; 0xff
100411fc:	d0b8      	beq.n	10041170 <__aeabi_fsub+0x8c>
100411fe:	2080      	movs	r0, #128	; 0x80
10041200:	04c0      	lsls	r0, r0, #19
10041202:	4306      	orrs	r6, r0
10041204:	291b      	cmp	r1, #27
10041206:	dd00      	ble.n	1004120a <__aeabi_fsub+0x126>
10041208:	e0af      	b.n	1004136a <__aeabi_fsub+0x286>
1004120a:	0030      	movs	r0, r6
1004120c:	2720      	movs	r7, #32
1004120e:	40c8      	lsrs	r0, r1
10041210:	1a79      	subs	r1, r7, r1
10041212:	408e      	lsls	r6, r1
10041214:	1e71      	subs	r1, r6, #1
10041216:	418e      	sbcs	r6, r1
10041218:	4306      	orrs	r6, r0
1004121a:	199b      	adds	r3, r3, r6
1004121c:	0159      	lsls	r1, r3, #5
1004121e:	d5d6      	bpl.n	100411ce <__aeabi_fsub+0xea>
10041220:	3401      	adds	r4, #1
10041222:	2cff      	cmp	r4, #255	; 0xff
10041224:	d100      	bne.n	10041228 <__aeabi_fsub+0x144>
10041226:	e085      	b.n	10041334 <__aeabi_fsub+0x250>
10041228:	2201      	movs	r2, #1
1004122a:	497a      	ldr	r1, [pc, #488]	; (10041414 <__aeabi_fsub+0x330>)
1004122c:	401a      	ands	r2, r3
1004122e:	085b      	lsrs	r3, r3, #1
10041230:	400b      	ands	r3, r1
10041232:	4313      	orrs	r3, r2
10041234:	e79c      	b.n	10041170 <__aeabi_fsub+0x8c>
10041236:	2e00      	cmp	r6, #0
10041238:	d000      	beq.n	1004123c <__aeabi_fsub+0x158>
1004123a:	e770      	b.n	1004111e <__aeabi_fsub+0x3a>
1004123c:	e76b      	b.n	10041116 <__aeabi_fsub+0x32>
1004123e:	1e3b      	subs	r3, r7, #0
10041240:	d1c5      	bne.n	100411ce <__aeabi_fsub+0xea>
10041242:	2200      	movs	r2, #0
10041244:	027b      	lsls	r3, r7, #9
10041246:	0a5b      	lsrs	r3, r3, #9
10041248:	b2e4      	uxtb	r4, r4
1004124a:	e7a3      	b.n	10041194 <__aeabi_fsub+0xb0>
1004124c:	0014      	movs	r4, r2
1004124e:	e78f      	b.n	10041170 <__aeabi_fsub+0x8c>
10041250:	2e00      	cmp	r6, #0
10041252:	d04d      	beq.n	100412f0 <__aeabi_fsub+0x20c>
10041254:	1e48      	subs	r0, r1, #1
10041256:	2800      	cmp	r0, #0
10041258:	d157      	bne.n	1004130a <__aeabi_fsub+0x226>
1004125a:	199b      	adds	r3, r3, r6
1004125c:	2401      	movs	r4, #1
1004125e:	015a      	lsls	r2, r3, #5
10041260:	d5b5      	bpl.n	100411ce <__aeabi_fsub+0xea>
10041262:	2402      	movs	r4, #2
10041264:	e7e0      	b.n	10041228 <__aeabi_fsub+0x144>
10041266:	2a00      	cmp	r2, #0
10041268:	d125      	bne.n	100412b6 <__aeabi_fsub+0x1d2>
1004126a:	1c62      	adds	r2, r4, #1
1004126c:	b2d2      	uxtb	r2, r2
1004126e:	2a01      	cmp	r2, #1
10041270:	dd72      	ble.n	10041358 <__aeabi_fsub+0x274>
10041272:	1b9f      	subs	r7, r3, r6
10041274:	017a      	lsls	r2, r7, #5
10041276:	d535      	bpl.n	100412e4 <__aeabi_fsub+0x200>
10041278:	1af7      	subs	r7, r6, r3
1004127a:	000d      	movs	r5, r1
1004127c:	e764      	b.n	10041148 <__aeabi_fsub+0x64>
1004127e:	2201      	movs	r2, #1
10041280:	2300      	movs	r3, #0
10041282:	402a      	ands	r2, r5
10041284:	e786      	b.n	10041194 <__aeabi_fsub+0xb0>
10041286:	003b      	movs	r3, r7
10041288:	4a63      	ldr	r2, [pc, #396]	; (10041418 <__aeabi_fsub+0x334>)
1004128a:	1a24      	subs	r4, r4, r0
1004128c:	4013      	ands	r3, r2
1004128e:	e76f      	b.n	10041170 <__aeabi_fsub+0x8c>
10041290:	2900      	cmp	r1, #0
10041292:	d16c      	bne.n	1004136e <__aeabi_fsub+0x28a>
10041294:	1c61      	adds	r1, r4, #1
10041296:	b2c8      	uxtb	r0, r1
10041298:	2801      	cmp	r0, #1
1004129a:	dd4e      	ble.n	1004133a <__aeabi_fsub+0x256>
1004129c:	29ff      	cmp	r1, #255	; 0xff
1004129e:	d049      	beq.n	10041334 <__aeabi_fsub+0x250>
100412a0:	199b      	adds	r3, r3, r6
100412a2:	085b      	lsrs	r3, r3, #1
100412a4:	000c      	movs	r4, r1
100412a6:	e763      	b.n	10041170 <__aeabi_fsub+0x8c>
100412a8:	2aff      	cmp	r2, #255	; 0xff
100412aa:	d041      	beq.n	10041330 <__aeabi_fsub+0x24c>
100412ac:	000a      	movs	r2, r1
100412ae:	e781      	b.n	100411b4 <__aeabi_fsub+0xd0>
100412b0:	2601      	movs	r6, #1
100412b2:	1b9b      	subs	r3, r3, r6
100412b4:	e789      	b.n	100411ca <__aeabi_fsub+0xe6>
100412b6:	2c00      	cmp	r4, #0
100412b8:	d01c      	beq.n	100412f4 <__aeabi_fsub+0x210>
100412ba:	28ff      	cmp	r0, #255	; 0xff
100412bc:	d021      	beq.n	10041302 <__aeabi_fsub+0x21e>
100412be:	2480      	movs	r4, #128	; 0x80
100412c0:	04e4      	lsls	r4, r4, #19
100412c2:	4252      	negs	r2, r2
100412c4:	4323      	orrs	r3, r4
100412c6:	2a1b      	cmp	r2, #27
100412c8:	dd00      	ble.n	100412cc <__aeabi_fsub+0x1e8>
100412ca:	e096      	b.n	100413fa <__aeabi_fsub+0x316>
100412cc:	001c      	movs	r4, r3
100412ce:	2520      	movs	r5, #32
100412d0:	40d4      	lsrs	r4, r2
100412d2:	1aaa      	subs	r2, r5, r2
100412d4:	4093      	lsls	r3, r2
100412d6:	1e5a      	subs	r2, r3, #1
100412d8:	4193      	sbcs	r3, r2
100412da:	4323      	orrs	r3, r4
100412dc:	1af3      	subs	r3, r6, r3
100412de:	0004      	movs	r4, r0
100412e0:	000d      	movs	r5, r1
100412e2:	e72d      	b.n	10041140 <__aeabi_fsub+0x5c>
100412e4:	2f00      	cmp	r7, #0
100412e6:	d000      	beq.n	100412ea <__aeabi_fsub+0x206>
100412e8:	e72e      	b.n	10041148 <__aeabi_fsub+0x64>
100412ea:	2200      	movs	r2, #0
100412ec:	2400      	movs	r4, #0
100412ee:	e7a9      	b.n	10041244 <__aeabi_fsub+0x160>
100412f0:	000c      	movs	r4, r1
100412f2:	e73d      	b.n	10041170 <__aeabi_fsub+0x8c>
100412f4:	2b00      	cmp	r3, #0
100412f6:	d058      	beq.n	100413aa <__aeabi_fsub+0x2c6>
100412f8:	43d2      	mvns	r2, r2
100412fa:	2a00      	cmp	r2, #0
100412fc:	d0ee      	beq.n	100412dc <__aeabi_fsub+0x1f8>
100412fe:	28ff      	cmp	r0, #255	; 0xff
10041300:	d1e1      	bne.n	100412c6 <__aeabi_fsub+0x1e2>
10041302:	0033      	movs	r3, r6
10041304:	24ff      	movs	r4, #255	; 0xff
10041306:	000d      	movs	r5, r1
10041308:	e732      	b.n	10041170 <__aeabi_fsub+0x8c>
1004130a:	29ff      	cmp	r1, #255	; 0xff
1004130c:	d010      	beq.n	10041330 <__aeabi_fsub+0x24c>
1004130e:	0001      	movs	r1, r0
10041310:	e778      	b.n	10041204 <__aeabi_fsub+0x120>
10041312:	2b00      	cmp	r3, #0
10041314:	d06e      	beq.n	100413f4 <__aeabi_fsub+0x310>
10041316:	24ff      	movs	r4, #255	; 0xff
10041318:	2e00      	cmp	r6, #0
1004131a:	d100      	bne.n	1004131e <__aeabi_fsub+0x23a>
1004131c:	e728      	b.n	10041170 <__aeabi_fsub+0x8c>
1004131e:	2280      	movs	r2, #128	; 0x80
10041320:	4651      	mov	r1, sl
10041322:	03d2      	lsls	r2, r2, #15
10041324:	4211      	tst	r1, r2
10041326:	d003      	beq.n	10041330 <__aeabi_fsub+0x24c>
10041328:	4661      	mov	r1, ip
1004132a:	4211      	tst	r1, r2
1004132c:	d100      	bne.n	10041330 <__aeabi_fsub+0x24c>
1004132e:	0033      	movs	r3, r6
10041330:	24ff      	movs	r4, #255	; 0xff
10041332:	e71d      	b.n	10041170 <__aeabi_fsub+0x8c>
10041334:	24ff      	movs	r4, #255	; 0xff
10041336:	2300      	movs	r3, #0
10041338:	e72c      	b.n	10041194 <__aeabi_fsub+0xb0>
1004133a:	2c00      	cmp	r4, #0
1004133c:	d1e9      	bne.n	10041312 <__aeabi_fsub+0x22e>
1004133e:	2b00      	cmp	r3, #0
10041340:	d063      	beq.n	1004140a <__aeabi_fsub+0x326>
10041342:	2e00      	cmp	r6, #0
10041344:	d100      	bne.n	10041348 <__aeabi_fsub+0x264>
10041346:	e713      	b.n	10041170 <__aeabi_fsub+0x8c>
10041348:	199b      	adds	r3, r3, r6
1004134a:	015a      	lsls	r2, r3, #5
1004134c:	d400      	bmi.n	10041350 <__aeabi_fsub+0x26c>
1004134e:	e73e      	b.n	100411ce <__aeabi_fsub+0xea>
10041350:	4a31      	ldr	r2, [pc, #196]	; (10041418 <__aeabi_fsub+0x334>)
10041352:	000c      	movs	r4, r1
10041354:	4013      	ands	r3, r2
10041356:	e70b      	b.n	10041170 <__aeabi_fsub+0x8c>
10041358:	2c00      	cmp	r4, #0
1004135a:	d11e      	bne.n	1004139a <__aeabi_fsub+0x2b6>
1004135c:	2b00      	cmp	r3, #0
1004135e:	d12f      	bne.n	100413c0 <__aeabi_fsub+0x2dc>
10041360:	2e00      	cmp	r6, #0
10041362:	d04f      	beq.n	10041404 <__aeabi_fsub+0x320>
10041364:	0033      	movs	r3, r6
10041366:	000d      	movs	r5, r1
10041368:	e702      	b.n	10041170 <__aeabi_fsub+0x8c>
1004136a:	2601      	movs	r6, #1
1004136c:	e755      	b.n	1004121a <__aeabi_fsub+0x136>
1004136e:	2c00      	cmp	r4, #0
10041370:	d11f      	bne.n	100413b2 <__aeabi_fsub+0x2ce>
10041372:	2b00      	cmp	r3, #0
10041374:	d043      	beq.n	100413fe <__aeabi_fsub+0x31a>
10041376:	43c9      	mvns	r1, r1
10041378:	2900      	cmp	r1, #0
1004137a:	d00b      	beq.n	10041394 <__aeabi_fsub+0x2b0>
1004137c:	28ff      	cmp	r0, #255	; 0xff
1004137e:	d039      	beq.n	100413f4 <__aeabi_fsub+0x310>
10041380:	291b      	cmp	r1, #27
10041382:	dc44      	bgt.n	1004140e <__aeabi_fsub+0x32a>
10041384:	001c      	movs	r4, r3
10041386:	2720      	movs	r7, #32
10041388:	40cc      	lsrs	r4, r1
1004138a:	1a79      	subs	r1, r7, r1
1004138c:	408b      	lsls	r3, r1
1004138e:	1e59      	subs	r1, r3, #1
10041390:	418b      	sbcs	r3, r1
10041392:	4323      	orrs	r3, r4
10041394:	199b      	adds	r3, r3, r6
10041396:	0004      	movs	r4, r0
10041398:	e740      	b.n	1004121c <__aeabi_fsub+0x138>
1004139a:	2b00      	cmp	r3, #0
1004139c:	d11a      	bne.n	100413d4 <__aeabi_fsub+0x2f0>
1004139e:	2e00      	cmp	r6, #0
100413a0:	d124      	bne.n	100413ec <__aeabi_fsub+0x308>
100413a2:	2780      	movs	r7, #128	; 0x80
100413a4:	2200      	movs	r2, #0
100413a6:	03ff      	lsls	r7, r7, #15
100413a8:	e71b      	b.n	100411e2 <__aeabi_fsub+0xfe>
100413aa:	0033      	movs	r3, r6
100413ac:	0004      	movs	r4, r0
100413ae:	000d      	movs	r5, r1
100413b0:	e6de      	b.n	10041170 <__aeabi_fsub+0x8c>
100413b2:	28ff      	cmp	r0, #255	; 0xff
100413b4:	d01e      	beq.n	100413f4 <__aeabi_fsub+0x310>
100413b6:	2480      	movs	r4, #128	; 0x80
100413b8:	04e4      	lsls	r4, r4, #19
100413ba:	4249      	negs	r1, r1
100413bc:	4323      	orrs	r3, r4
100413be:	e7df      	b.n	10041380 <__aeabi_fsub+0x29c>
100413c0:	2e00      	cmp	r6, #0
100413c2:	d100      	bne.n	100413c6 <__aeabi_fsub+0x2e2>
100413c4:	e6d4      	b.n	10041170 <__aeabi_fsub+0x8c>
100413c6:	1b9f      	subs	r7, r3, r6
100413c8:	017a      	lsls	r2, r7, #5
100413ca:	d400      	bmi.n	100413ce <__aeabi_fsub+0x2ea>
100413cc:	e737      	b.n	1004123e <__aeabi_fsub+0x15a>
100413ce:	1af3      	subs	r3, r6, r3
100413d0:	000d      	movs	r5, r1
100413d2:	e6cd      	b.n	10041170 <__aeabi_fsub+0x8c>
100413d4:	24ff      	movs	r4, #255	; 0xff
100413d6:	2e00      	cmp	r6, #0
100413d8:	d100      	bne.n	100413dc <__aeabi_fsub+0x2f8>
100413da:	e6c9      	b.n	10041170 <__aeabi_fsub+0x8c>
100413dc:	2280      	movs	r2, #128	; 0x80
100413de:	4650      	mov	r0, sl
100413e0:	03d2      	lsls	r2, r2, #15
100413e2:	4210      	tst	r0, r2
100413e4:	d0a4      	beq.n	10041330 <__aeabi_fsub+0x24c>
100413e6:	4660      	mov	r0, ip
100413e8:	4210      	tst	r0, r2
100413ea:	d1a1      	bne.n	10041330 <__aeabi_fsub+0x24c>
100413ec:	0033      	movs	r3, r6
100413ee:	000d      	movs	r5, r1
100413f0:	24ff      	movs	r4, #255	; 0xff
100413f2:	e6bd      	b.n	10041170 <__aeabi_fsub+0x8c>
100413f4:	0033      	movs	r3, r6
100413f6:	24ff      	movs	r4, #255	; 0xff
100413f8:	e6ba      	b.n	10041170 <__aeabi_fsub+0x8c>
100413fa:	2301      	movs	r3, #1
100413fc:	e76e      	b.n	100412dc <__aeabi_fsub+0x1f8>
100413fe:	0033      	movs	r3, r6
10041400:	0004      	movs	r4, r0
10041402:	e6b5      	b.n	10041170 <__aeabi_fsub+0x8c>
10041404:	2700      	movs	r7, #0
10041406:	2200      	movs	r2, #0
10041408:	e71c      	b.n	10041244 <__aeabi_fsub+0x160>
1004140a:	0033      	movs	r3, r6
1004140c:	e6b0      	b.n	10041170 <__aeabi_fsub+0x8c>
1004140e:	2301      	movs	r3, #1
10041410:	e7c0      	b.n	10041394 <__aeabi_fsub+0x2b0>
10041412:	46c0      	nop			; (mov r8, r8)
10041414:	7dffffff 	.word	0x7dffffff
10041418:	fbffffff 	.word	0xfbffffff

1004141c <__aeabi_fcmpun>:
1004141c:	0242      	lsls	r2, r0, #9
1004141e:	024b      	lsls	r3, r1, #9
10041420:	0040      	lsls	r0, r0, #1
10041422:	0049      	lsls	r1, r1, #1
10041424:	0a52      	lsrs	r2, r2, #9
10041426:	0e00      	lsrs	r0, r0, #24
10041428:	0a5b      	lsrs	r3, r3, #9
1004142a:	0e09      	lsrs	r1, r1, #24
1004142c:	28ff      	cmp	r0, #255	; 0xff
1004142e:	d003      	beq.n	10041438 <__aeabi_fcmpun+0x1c>
10041430:	2000      	movs	r0, #0
10041432:	29ff      	cmp	r1, #255	; 0xff
10041434:	d006      	beq.n	10041444 <__aeabi_fcmpun+0x28>
10041436:	4770      	bx	lr
10041438:	38fe      	subs	r0, #254	; 0xfe
1004143a:	2a00      	cmp	r2, #0
1004143c:	d1fb      	bne.n	10041436 <__aeabi_fcmpun+0x1a>
1004143e:	2000      	movs	r0, #0
10041440:	29ff      	cmp	r1, #255	; 0xff
10041442:	d1f8      	bne.n	10041436 <__aeabi_fcmpun+0x1a>
10041444:	0018      	movs	r0, r3
10041446:	1e43      	subs	r3, r0, #1
10041448:	4198      	sbcs	r0, r3
1004144a:	e7f4      	b.n	10041436 <__aeabi_fcmpun+0x1a>

1004144c <__aeabi_f2iz>:
1004144c:	0241      	lsls	r1, r0, #9
1004144e:	0043      	lsls	r3, r0, #1
10041450:	0fc2      	lsrs	r2, r0, #31
10041452:	0a49      	lsrs	r1, r1, #9
10041454:	0e1b      	lsrs	r3, r3, #24
10041456:	2000      	movs	r0, #0
10041458:	2b7e      	cmp	r3, #126	; 0x7e
1004145a:	dd0d      	ble.n	10041478 <__aeabi_f2iz+0x2c>
1004145c:	2b9d      	cmp	r3, #157	; 0x9d
1004145e:	dc0c      	bgt.n	1004147a <__aeabi_f2iz+0x2e>
10041460:	2080      	movs	r0, #128	; 0x80
10041462:	0400      	lsls	r0, r0, #16
10041464:	4301      	orrs	r1, r0
10041466:	2b95      	cmp	r3, #149	; 0x95
10041468:	dc0a      	bgt.n	10041480 <__aeabi_f2iz+0x34>
1004146a:	2096      	movs	r0, #150	; 0x96
1004146c:	1ac3      	subs	r3, r0, r3
1004146e:	40d9      	lsrs	r1, r3
10041470:	4248      	negs	r0, r1
10041472:	2a00      	cmp	r2, #0
10041474:	d100      	bne.n	10041478 <__aeabi_f2iz+0x2c>
10041476:	0008      	movs	r0, r1
10041478:	4770      	bx	lr
1004147a:	4b03      	ldr	r3, [pc, #12]	; (10041488 <__aeabi_f2iz+0x3c>)
1004147c:	18d0      	adds	r0, r2, r3
1004147e:	e7fb      	b.n	10041478 <__aeabi_f2iz+0x2c>
10041480:	3b96      	subs	r3, #150	; 0x96
10041482:	4099      	lsls	r1, r3
10041484:	e7f4      	b.n	10041470 <__aeabi_f2iz+0x24>
10041486:	46c0      	nop			; (mov r8, r8)
10041488:	7fffffff 	.word	0x7fffffff

1004148c <__aeabi_i2f>:
1004148c:	b570      	push	{r4, r5, r6, lr}
1004148e:	2800      	cmp	r0, #0
10041490:	d030      	beq.n	100414f4 <__aeabi_i2f+0x68>
10041492:	17c3      	asrs	r3, r0, #31
10041494:	18c4      	adds	r4, r0, r3
10041496:	405c      	eors	r4, r3
10041498:	0fc5      	lsrs	r5, r0, #31
1004149a:	0020      	movs	r0, r4
1004149c:	f001 feae 	bl	100431fc <__clzsi2>
100414a0:	239e      	movs	r3, #158	; 0x9e
100414a2:	1a1b      	subs	r3, r3, r0
100414a4:	2b96      	cmp	r3, #150	; 0x96
100414a6:	dc0d      	bgt.n	100414c4 <__aeabi_i2f+0x38>
100414a8:	2296      	movs	r2, #150	; 0x96
100414aa:	1ad2      	subs	r2, r2, r3
100414ac:	4094      	lsls	r4, r2
100414ae:	002a      	movs	r2, r5
100414b0:	0264      	lsls	r4, r4, #9
100414b2:	0a64      	lsrs	r4, r4, #9
100414b4:	b2db      	uxtb	r3, r3
100414b6:	0264      	lsls	r4, r4, #9
100414b8:	05db      	lsls	r3, r3, #23
100414ba:	0a60      	lsrs	r0, r4, #9
100414bc:	07d2      	lsls	r2, r2, #31
100414be:	4318      	orrs	r0, r3
100414c0:	4310      	orrs	r0, r2
100414c2:	bd70      	pop	{r4, r5, r6, pc}
100414c4:	2b99      	cmp	r3, #153	; 0x99
100414c6:	dc19      	bgt.n	100414fc <__aeabi_i2f+0x70>
100414c8:	2299      	movs	r2, #153	; 0x99
100414ca:	1ad2      	subs	r2, r2, r3
100414cc:	2a00      	cmp	r2, #0
100414ce:	dd29      	ble.n	10041524 <__aeabi_i2f+0x98>
100414d0:	4094      	lsls	r4, r2
100414d2:	0022      	movs	r2, r4
100414d4:	4c14      	ldr	r4, [pc, #80]	; (10041528 <__aeabi_i2f+0x9c>)
100414d6:	4014      	ands	r4, r2
100414d8:	0751      	lsls	r1, r2, #29
100414da:	d004      	beq.n	100414e6 <__aeabi_i2f+0x5a>
100414dc:	210f      	movs	r1, #15
100414de:	400a      	ands	r2, r1
100414e0:	2a04      	cmp	r2, #4
100414e2:	d000      	beq.n	100414e6 <__aeabi_i2f+0x5a>
100414e4:	3404      	adds	r4, #4
100414e6:	0162      	lsls	r2, r4, #5
100414e8:	d413      	bmi.n	10041512 <__aeabi_i2f+0x86>
100414ea:	01a4      	lsls	r4, r4, #6
100414ec:	0a64      	lsrs	r4, r4, #9
100414ee:	b2db      	uxtb	r3, r3
100414f0:	002a      	movs	r2, r5
100414f2:	e7e0      	b.n	100414b6 <__aeabi_i2f+0x2a>
100414f4:	2200      	movs	r2, #0
100414f6:	2300      	movs	r3, #0
100414f8:	2400      	movs	r4, #0
100414fa:	e7dc      	b.n	100414b6 <__aeabi_i2f+0x2a>
100414fc:	2205      	movs	r2, #5
100414fe:	0021      	movs	r1, r4
10041500:	1a12      	subs	r2, r2, r0
10041502:	40d1      	lsrs	r1, r2
10041504:	22b9      	movs	r2, #185	; 0xb9
10041506:	1ad2      	subs	r2, r2, r3
10041508:	4094      	lsls	r4, r2
1004150a:	1e62      	subs	r2, r4, #1
1004150c:	4194      	sbcs	r4, r2
1004150e:	430c      	orrs	r4, r1
10041510:	e7da      	b.n	100414c8 <__aeabi_i2f+0x3c>
10041512:	4b05      	ldr	r3, [pc, #20]	; (10041528 <__aeabi_i2f+0x9c>)
10041514:	002a      	movs	r2, r5
10041516:	401c      	ands	r4, r3
10041518:	239f      	movs	r3, #159	; 0x9f
1004151a:	01a4      	lsls	r4, r4, #6
1004151c:	1a1b      	subs	r3, r3, r0
1004151e:	0a64      	lsrs	r4, r4, #9
10041520:	b2db      	uxtb	r3, r3
10041522:	e7c8      	b.n	100414b6 <__aeabi_i2f+0x2a>
10041524:	0022      	movs	r2, r4
10041526:	e7d5      	b.n	100414d4 <__aeabi_i2f+0x48>
10041528:	fbffffff 	.word	0xfbffffff

1004152c <__aeabi_ui2f>:
1004152c:	b510      	push	{r4, lr}
1004152e:	1e04      	subs	r4, r0, #0
10041530:	d027      	beq.n	10041582 <__aeabi_ui2f+0x56>
10041532:	f001 fe63 	bl	100431fc <__clzsi2>
10041536:	239e      	movs	r3, #158	; 0x9e
10041538:	1a1b      	subs	r3, r3, r0
1004153a:	2b96      	cmp	r3, #150	; 0x96
1004153c:	dc0a      	bgt.n	10041554 <__aeabi_ui2f+0x28>
1004153e:	2296      	movs	r2, #150	; 0x96
10041540:	1ad2      	subs	r2, r2, r3
10041542:	4094      	lsls	r4, r2
10041544:	0264      	lsls	r4, r4, #9
10041546:	0a64      	lsrs	r4, r4, #9
10041548:	b2db      	uxtb	r3, r3
1004154a:	0264      	lsls	r4, r4, #9
1004154c:	05db      	lsls	r3, r3, #23
1004154e:	0a60      	lsrs	r0, r4, #9
10041550:	4318      	orrs	r0, r3
10041552:	bd10      	pop	{r4, pc}
10041554:	2b99      	cmp	r3, #153	; 0x99
10041556:	dc17      	bgt.n	10041588 <__aeabi_ui2f+0x5c>
10041558:	2299      	movs	r2, #153	; 0x99
1004155a:	1ad2      	subs	r2, r2, r3
1004155c:	2a00      	cmp	r2, #0
1004155e:	dd27      	ble.n	100415b0 <__aeabi_ui2f+0x84>
10041560:	4094      	lsls	r4, r2
10041562:	0022      	movs	r2, r4
10041564:	4c13      	ldr	r4, [pc, #76]	; (100415b4 <__aeabi_ui2f+0x88>)
10041566:	4014      	ands	r4, r2
10041568:	0751      	lsls	r1, r2, #29
1004156a:	d004      	beq.n	10041576 <__aeabi_ui2f+0x4a>
1004156c:	210f      	movs	r1, #15
1004156e:	400a      	ands	r2, r1
10041570:	2a04      	cmp	r2, #4
10041572:	d000      	beq.n	10041576 <__aeabi_ui2f+0x4a>
10041574:	3404      	adds	r4, #4
10041576:	0162      	lsls	r2, r4, #5
10041578:	d412      	bmi.n	100415a0 <__aeabi_ui2f+0x74>
1004157a:	01a4      	lsls	r4, r4, #6
1004157c:	0a64      	lsrs	r4, r4, #9
1004157e:	b2db      	uxtb	r3, r3
10041580:	e7e3      	b.n	1004154a <__aeabi_ui2f+0x1e>
10041582:	2300      	movs	r3, #0
10041584:	2400      	movs	r4, #0
10041586:	e7e0      	b.n	1004154a <__aeabi_ui2f+0x1e>
10041588:	22b9      	movs	r2, #185	; 0xb9
1004158a:	0021      	movs	r1, r4
1004158c:	1ad2      	subs	r2, r2, r3
1004158e:	4091      	lsls	r1, r2
10041590:	000a      	movs	r2, r1
10041592:	1e51      	subs	r1, r2, #1
10041594:	418a      	sbcs	r2, r1
10041596:	2105      	movs	r1, #5
10041598:	1a09      	subs	r1, r1, r0
1004159a:	40cc      	lsrs	r4, r1
1004159c:	4314      	orrs	r4, r2
1004159e:	e7db      	b.n	10041558 <__aeabi_ui2f+0x2c>
100415a0:	4b04      	ldr	r3, [pc, #16]	; (100415b4 <__aeabi_ui2f+0x88>)
100415a2:	401c      	ands	r4, r3
100415a4:	239f      	movs	r3, #159	; 0x9f
100415a6:	01a4      	lsls	r4, r4, #6
100415a8:	1a1b      	subs	r3, r3, r0
100415aa:	0a64      	lsrs	r4, r4, #9
100415ac:	b2db      	uxtb	r3, r3
100415ae:	e7cc      	b.n	1004154a <__aeabi_ui2f+0x1e>
100415b0:	0022      	movs	r2, r4
100415b2:	e7d7      	b.n	10041564 <__aeabi_ui2f+0x38>
100415b4:	fbffffff 	.word	0xfbffffff

100415b8 <__aeabi_dadd>:
100415b8:	b5f8      	push	{r3, r4, r5, r6, r7, lr}
100415ba:	4645      	mov	r5, r8
100415bc:	46de      	mov	lr, fp
100415be:	4657      	mov	r7, sl
100415c0:	464e      	mov	r6, r9
100415c2:	030c      	lsls	r4, r1, #12
100415c4:	b5e0      	push	{r5, r6, r7, lr}
100415c6:	004e      	lsls	r6, r1, #1
100415c8:	0fc9      	lsrs	r1, r1, #31
100415ca:	4688      	mov	r8, r1
100415cc:	000d      	movs	r5, r1
100415ce:	0a61      	lsrs	r1, r4, #9
100415d0:	0f44      	lsrs	r4, r0, #29
100415d2:	430c      	orrs	r4, r1
100415d4:	00c7      	lsls	r7, r0, #3
100415d6:	0319      	lsls	r1, r3, #12
100415d8:	0058      	lsls	r0, r3, #1
100415da:	0fdb      	lsrs	r3, r3, #31
100415dc:	469b      	mov	fp, r3
100415de:	0a4b      	lsrs	r3, r1, #9
100415e0:	0f51      	lsrs	r1, r2, #29
100415e2:	430b      	orrs	r3, r1
100415e4:	0d76      	lsrs	r6, r6, #21
100415e6:	0d40      	lsrs	r0, r0, #21
100415e8:	0019      	movs	r1, r3
100415ea:	00d2      	lsls	r2, r2, #3
100415ec:	45d8      	cmp	r8, fp
100415ee:	d100      	bne.n	100415f2 <__aeabi_dadd+0x3a>
100415f0:	e0ae      	b.n	10041750 <__aeabi_dadd+0x198>
100415f2:	1a35      	subs	r5, r6, r0
100415f4:	2d00      	cmp	r5, #0
100415f6:	dc00      	bgt.n	100415fa <__aeabi_dadd+0x42>
100415f8:	e0f6      	b.n	100417e8 <__aeabi_dadd+0x230>
100415fa:	2800      	cmp	r0, #0
100415fc:	d10f      	bne.n	1004161e <__aeabi_dadd+0x66>
100415fe:	4313      	orrs	r3, r2
10041600:	d100      	bne.n	10041604 <__aeabi_dadd+0x4c>
10041602:	e0db      	b.n	100417bc <__aeabi_dadd+0x204>
10041604:	1e6b      	subs	r3, r5, #1
10041606:	2b00      	cmp	r3, #0
10041608:	d000      	beq.n	1004160c <__aeabi_dadd+0x54>
1004160a:	e137      	b.n	1004187c <__aeabi_dadd+0x2c4>
1004160c:	1aba      	subs	r2, r7, r2
1004160e:	4297      	cmp	r7, r2
10041610:	41bf      	sbcs	r7, r7
10041612:	1a64      	subs	r4, r4, r1
10041614:	427f      	negs	r7, r7
10041616:	1be4      	subs	r4, r4, r7
10041618:	2601      	movs	r6, #1
1004161a:	0017      	movs	r7, r2
1004161c:	e024      	b.n	10041668 <__aeabi_dadd+0xb0>
1004161e:	4bc6      	ldr	r3, [pc, #792]	; (10041938 <__aeabi_dadd+0x380>)
10041620:	429e      	cmp	r6, r3
10041622:	d04d      	beq.n	100416c0 <__aeabi_dadd+0x108>
10041624:	2380      	movs	r3, #128	; 0x80
10041626:	041b      	lsls	r3, r3, #16
10041628:	4319      	orrs	r1, r3
1004162a:	2d38      	cmp	r5, #56	; 0x38
1004162c:	dd00      	ble.n	10041630 <__aeabi_dadd+0x78>
1004162e:	e107      	b.n	10041840 <__aeabi_dadd+0x288>
10041630:	2d1f      	cmp	r5, #31
10041632:	dd00      	ble.n	10041636 <__aeabi_dadd+0x7e>
10041634:	e138      	b.n	100418a8 <__aeabi_dadd+0x2f0>
10041636:	2020      	movs	r0, #32
10041638:	1b43      	subs	r3, r0, r5
1004163a:	469a      	mov	sl, r3
1004163c:	000b      	movs	r3, r1
1004163e:	4650      	mov	r0, sl
10041640:	4083      	lsls	r3, r0
10041642:	4699      	mov	r9, r3
10041644:	0013      	movs	r3, r2
10041646:	4648      	mov	r0, r9
10041648:	40eb      	lsrs	r3, r5
1004164a:	4318      	orrs	r0, r3
1004164c:	0003      	movs	r3, r0
1004164e:	4650      	mov	r0, sl
10041650:	4082      	lsls	r2, r0
10041652:	1e50      	subs	r0, r2, #1
10041654:	4182      	sbcs	r2, r0
10041656:	40e9      	lsrs	r1, r5
10041658:	431a      	orrs	r2, r3
1004165a:	1aba      	subs	r2, r7, r2
1004165c:	1a61      	subs	r1, r4, r1
1004165e:	4297      	cmp	r7, r2
10041660:	41a4      	sbcs	r4, r4
10041662:	0017      	movs	r7, r2
10041664:	4264      	negs	r4, r4
10041666:	1b0c      	subs	r4, r1, r4
10041668:	0223      	lsls	r3, r4, #8
1004166a:	d562      	bpl.n	10041732 <__aeabi_dadd+0x17a>
1004166c:	0264      	lsls	r4, r4, #9
1004166e:	0a65      	lsrs	r5, r4, #9
10041670:	2d00      	cmp	r5, #0
10041672:	d100      	bne.n	10041676 <__aeabi_dadd+0xbe>
10041674:	e0df      	b.n	10041836 <__aeabi_dadd+0x27e>
10041676:	0028      	movs	r0, r5
10041678:	f001 fdc0 	bl	100431fc <__clzsi2>
1004167c:	0003      	movs	r3, r0
1004167e:	3b08      	subs	r3, #8
10041680:	2b1f      	cmp	r3, #31
10041682:	dd00      	ble.n	10041686 <__aeabi_dadd+0xce>
10041684:	e0d2      	b.n	1004182c <__aeabi_dadd+0x274>
10041686:	2220      	movs	r2, #32
10041688:	003c      	movs	r4, r7
1004168a:	1ad2      	subs	r2, r2, r3
1004168c:	409d      	lsls	r5, r3
1004168e:	40d4      	lsrs	r4, r2
10041690:	409f      	lsls	r7, r3
10041692:	4325      	orrs	r5, r4
10041694:	429e      	cmp	r6, r3
10041696:	dd00      	ble.n	1004169a <__aeabi_dadd+0xe2>
10041698:	e0c4      	b.n	10041824 <__aeabi_dadd+0x26c>
1004169a:	1b9e      	subs	r6, r3, r6
1004169c:	1c73      	adds	r3, r6, #1
1004169e:	2b1f      	cmp	r3, #31
100416a0:	dd00      	ble.n	100416a4 <__aeabi_dadd+0xec>
100416a2:	e0f1      	b.n	10041888 <__aeabi_dadd+0x2d0>
100416a4:	2220      	movs	r2, #32
100416a6:	0038      	movs	r0, r7
100416a8:	0029      	movs	r1, r5
100416aa:	1ad2      	subs	r2, r2, r3
100416ac:	40d8      	lsrs	r0, r3
100416ae:	4091      	lsls	r1, r2
100416b0:	4097      	lsls	r7, r2
100416b2:	002c      	movs	r4, r5
100416b4:	4301      	orrs	r1, r0
100416b6:	1e78      	subs	r0, r7, #1
100416b8:	4187      	sbcs	r7, r0
100416ba:	40dc      	lsrs	r4, r3
100416bc:	2600      	movs	r6, #0
100416be:	430f      	orrs	r7, r1
100416c0:	077b      	lsls	r3, r7, #29
100416c2:	d009      	beq.n	100416d8 <__aeabi_dadd+0x120>
100416c4:	230f      	movs	r3, #15
100416c6:	403b      	ands	r3, r7
100416c8:	2b04      	cmp	r3, #4
100416ca:	d005      	beq.n	100416d8 <__aeabi_dadd+0x120>
100416cc:	1d3b      	adds	r3, r7, #4
100416ce:	42bb      	cmp	r3, r7
100416d0:	41bf      	sbcs	r7, r7
100416d2:	427f      	negs	r7, r7
100416d4:	19e4      	adds	r4, r4, r7
100416d6:	001f      	movs	r7, r3
100416d8:	0223      	lsls	r3, r4, #8
100416da:	d52c      	bpl.n	10041736 <__aeabi_dadd+0x17e>
100416dc:	4b96      	ldr	r3, [pc, #600]	; (10041938 <__aeabi_dadd+0x380>)
100416de:	3601      	adds	r6, #1
100416e0:	429e      	cmp	r6, r3
100416e2:	d100      	bne.n	100416e6 <__aeabi_dadd+0x12e>
100416e4:	e09a      	b.n	1004181c <__aeabi_dadd+0x264>
100416e6:	4645      	mov	r5, r8
100416e8:	4b94      	ldr	r3, [pc, #592]	; (1004193c <__aeabi_dadd+0x384>)
100416ea:	08ff      	lsrs	r7, r7, #3
100416ec:	401c      	ands	r4, r3
100416ee:	0760      	lsls	r0, r4, #29
100416f0:	0576      	lsls	r6, r6, #21
100416f2:	0264      	lsls	r4, r4, #9
100416f4:	4307      	orrs	r7, r0
100416f6:	0b24      	lsrs	r4, r4, #12
100416f8:	0d76      	lsrs	r6, r6, #21
100416fa:	2100      	movs	r1, #0
100416fc:	0324      	lsls	r4, r4, #12
100416fe:	0b23      	lsrs	r3, r4, #12
10041700:	0d0c      	lsrs	r4, r1, #20
10041702:	4a8f      	ldr	r2, [pc, #572]	; (10041940 <__aeabi_dadd+0x388>)
10041704:	0524      	lsls	r4, r4, #20
10041706:	431c      	orrs	r4, r3
10041708:	4014      	ands	r4, r2
1004170a:	0533      	lsls	r3, r6, #20
1004170c:	4323      	orrs	r3, r4
1004170e:	005b      	lsls	r3, r3, #1
10041710:	07ed      	lsls	r5, r5, #31
10041712:	085b      	lsrs	r3, r3, #1
10041714:	432b      	orrs	r3, r5
10041716:	0038      	movs	r0, r7
10041718:	0019      	movs	r1, r3
1004171a:	bc3c      	pop	{r2, r3, r4, r5}
1004171c:	4690      	mov	r8, r2
1004171e:	4699      	mov	r9, r3
10041720:	46a2      	mov	sl, r4
10041722:	46ab      	mov	fp, r5
10041724:	bdf8      	pop	{r3, r4, r5, r6, r7, pc}
10041726:	4664      	mov	r4, ip
10041728:	4304      	orrs	r4, r0
1004172a:	d100      	bne.n	1004172e <__aeabi_dadd+0x176>
1004172c:	e211      	b.n	10041b52 <__aeabi_dadd+0x59a>
1004172e:	0004      	movs	r4, r0
10041730:	4667      	mov	r7, ip
10041732:	077b      	lsls	r3, r7, #29
10041734:	d1c6      	bne.n	100416c4 <__aeabi_dadd+0x10c>
10041736:	4645      	mov	r5, r8
10041738:	0760      	lsls	r0, r4, #29
1004173a:	08ff      	lsrs	r7, r7, #3
1004173c:	4307      	orrs	r7, r0
1004173e:	08e4      	lsrs	r4, r4, #3
10041740:	4b7d      	ldr	r3, [pc, #500]	; (10041938 <__aeabi_dadd+0x380>)
10041742:	429e      	cmp	r6, r3
10041744:	d030      	beq.n	100417a8 <__aeabi_dadd+0x1f0>
10041746:	0324      	lsls	r4, r4, #12
10041748:	0576      	lsls	r6, r6, #21
1004174a:	0b24      	lsrs	r4, r4, #12
1004174c:	0d76      	lsrs	r6, r6, #21
1004174e:	e7d4      	b.n	100416fa <__aeabi_dadd+0x142>
10041750:	1a33      	subs	r3, r6, r0
10041752:	469a      	mov	sl, r3
10041754:	2b00      	cmp	r3, #0
10041756:	dd78      	ble.n	1004184a <__aeabi_dadd+0x292>
10041758:	2800      	cmp	r0, #0
1004175a:	d031      	beq.n	100417c0 <__aeabi_dadd+0x208>
1004175c:	4876      	ldr	r0, [pc, #472]	; (10041938 <__aeabi_dadd+0x380>)
1004175e:	4286      	cmp	r6, r0
10041760:	d0ae      	beq.n	100416c0 <__aeabi_dadd+0x108>
10041762:	2080      	movs	r0, #128	; 0x80
10041764:	0400      	lsls	r0, r0, #16
10041766:	4301      	orrs	r1, r0
10041768:	4653      	mov	r3, sl
1004176a:	2b38      	cmp	r3, #56	; 0x38
1004176c:	dc00      	bgt.n	10041770 <__aeabi_dadd+0x1b8>
1004176e:	e0e9      	b.n	10041944 <__aeabi_dadd+0x38c>
10041770:	430a      	orrs	r2, r1
10041772:	1e51      	subs	r1, r2, #1
10041774:	418a      	sbcs	r2, r1
10041776:	2100      	movs	r1, #0
10041778:	19d2      	adds	r2, r2, r7
1004177a:	42ba      	cmp	r2, r7
1004177c:	41bf      	sbcs	r7, r7
1004177e:	1909      	adds	r1, r1, r4
10041780:	427c      	negs	r4, r7
10041782:	0017      	movs	r7, r2
10041784:	190c      	adds	r4, r1, r4
10041786:	0223      	lsls	r3, r4, #8
10041788:	d5d3      	bpl.n	10041732 <__aeabi_dadd+0x17a>
1004178a:	4b6b      	ldr	r3, [pc, #428]	; (10041938 <__aeabi_dadd+0x380>)
1004178c:	3601      	adds	r6, #1
1004178e:	429e      	cmp	r6, r3
10041790:	d100      	bne.n	10041794 <__aeabi_dadd+0x1dc>
10041792:	e13a      	b.n	10041a0a <__aeabi_dadd+0x452>
10041794:	2001      	movs	r0, #1
10041796:	4b69      	ldr	r3, [pc, #420]	; (1004193c <__aeabi_dadd+0x384>)
10041798:	401c      	ands	r4, r3
1004179a:	087b      	lsrs	r3, r7, #1
1004179c:	4007      	ands	r7, r0
1004179e:	431f      	orrs	r7, r3
100417a0:	07e0      	lsls	r0, r4, #31
100417a2:	4307      	orrs	r7, r0
100417a4:	0864      	lsrs	r4, r4, #1
100417a6:	e78b      	b.n	100416c0 <__aeabi_dadd+0x108>
100417a8:	0023      	movs	r3, r4
100417aa:	433b      	orrs	r3, r7
100417ac:	d100      	bne.n	100417b0 <__aeabi_dadd+0x1f8>
100417ae:	e1cb      	b.n	10041b48 <__aeabi_dadd+0x590>
100417b0:	2280      	movs	r2, #128	; 0x80
100417b2:	0312      	lsls	r2, r2, #12
100417b4:	4314      	orrs	r4, r2
100417b6:	0324      	lsls	r4, r4, #12
100417b8:	0b24      	lsrs	r4, r4, #12
100417ba:	e79e      	b.n	100416fa <__aeabi_dadd+0x142>
100417bc:	002e      	movs	r6, r5
100417be:	e77f      	b.n	100416c0 <__aeabi_dadd+0x108>
100417c0:	0008      	movs	r0, r1
100417c2:	4310      	orrs	r0, r2
100417c4:	d100      	bne.n	100417c8 <__aeabi_dadd+0x210>
100417c6:	e0b4      	b.n	10041932 <__aeabi_dadd+0x37a>
100417c8:	1e58      	subs	r0, r3, #1
100417ca:	2800      	cmp	r0, #0
100417cc:	d000      	beq.n	100417d0 <__aeabi_dadd+0x218>
100417ce:	e0de      	b.n	1004198e <__aeabi_dadd+0x3d6>
100417d0:	18ba      	adds	r2, r7, r2
100417d2:	42ba      	cmp	r2, r7
100417d4:	419b      	sbcs	r3, r3
100417d6:	1864      	adds	r4, r4, r1
100417d8:	425b      	negs	r3, r3
100417da:	18e4      	adds	r4, r4, r3
100417dc:	0017      	movs	r7, r2
100417de:	2601      	movs	r6, #1
100417e0:	0223      	lsls	r3, r4, #8
100417e2:	d5a6      	bpl.n	10041732 <__aeabi_dadd+0x17a>
100417e4:	2602      	movs	r6, #2
100417e6:	e7d5      	b.n	10041794 <__aeabi_dadd+0x1dc>
100417e8:	2d00      	cmp	r5, #0
100417ea:	d16e      	bne.n	100418ca <__aeabi_dadd+0x312>
100417ec:	1c70      	adds	r0, r6, #1
100417ee:	0540      	lsls	r0, r0, #21
100417f0:	0d40      	lsrs	r0, r0, #21
100417f2:	2801      	cmp	r0, #1
100417f4:	dc00      	bgt.n	100417f8 <__aeabi_dadd+0x240>
100417f6:	e0f9      	b.n	100419ec <__aeabi_dadd+0x434>
100417f8:	1ab8      	subs	r0, r7, r2
100417fa:	4684      	mov	ip, r0
100417fc:	4287      	cmp	r7, r0
100417fe:	4180      	sbcs	r0, r0
10041800:	1ae5      	subs	r5, r4, r3
10041802:	4240      	negs	r0, r0
10041804:	1a2d      	subs	r5, r5, r0
10041806:	0228      	lsls	r0, r5, #8
10041808:	d400      	bmi.n	1004180c <__aeabi_dadd+0x254>
1004180a:	e089      	b.n	10041920 <__aeabi_dadd+0x368>
1004180c:	1bd7      	subs	r7, r2, r7
1004180e:	42ba      	cmp	r2, r7
10041810:	4192      	sbcs	r2, r2
10041812:	1b1c      	subs	r4, r3, r4
10041814:	4252      	negs	r2, r2
10041816:	1aa5      	subs	r5, r4, r2
10041818:	46d8      	mov	r8, fp
1004181a:	e729      	b.n	10041670 <__aeabi_dadd+0xb8>
1004181c:	4645      	mov	r5, r8
1004181e:	2400      	movs	r4, #0
10041820:	2700      	movs	r7, #0
10041822:	e76a      	b.n	100416fa <__aeabi_dadd+0x142>
10041824:	4c45      	ldr	r4, [pc, #276]	; (1004193c <__aeabi_dadd+0x384>)
10041826:	1af6      	subs	r6, r6, r3
10041828:	402c      	ands	r4, r5
1004182a:	e749      	b.n	100416c0 <__aeabi_dadd+0x108>
1004182c:	003d      	movs	r5, r7
1004182e:	3828      	subs	r0, #40	; 0x28
10041830:	4085      	lsls	r5, r0
10041832:	2700      	movs	r7, #0
10041834:	e72e      	b.n	10041694 <__aeabi_dadd+0xdc>
10041836:	0038      	movs	r0, r7
10041838:	f001 fce0 	bl	100431fc <__clzsi2>
1004183c:	3020      	adds	r0, #32
1004183e:	e71d      	b.n	1004167c <__aeabi_dadd+0xc4>
10041840:	430a      	orrs	r2, r1
10041842:	1e51      	subs	r1, r2, #1
10041844:	418a      	sbcs	r2, r1
10041846:	2100      	movs	r1, #0
10041848:	e707      	b.n	1004165a <__aeabi_dadd+0xa2>
1004184a:	2b00      	cmp	r3, #0
1004184c:	d000      	beq.n	10041850 <__aeabi_dadd+0x298>
1004184e:	e0f3      	b.n	10041a38 <__aeabi_dadd+0x480>
10041850:	1c70      	adds	r0, r6, #1
10041852:	0543      	lsls	r3, r0, #21
10041854:	0d5b      	lsrs	r3, r3, #21
10041856:	2b01      	cmp	r3, #1
10041858:	dc00      	bgt.n	1004185c <__aeabi_dadd+0x2a4>
1004185a:	e0ad      	b.n	100419b8 <__aeabi_dadd+0x400>
1004185c:	4b36      	ldr	r3, [pc, #216]	; (10041938 <__aeabi_dadd+0x380>)
1004185e:	4298      	cmp	r0, r3
10041860:	d100      	bne.n	10041864 <__aeabi_dadd+0x2ac>
10041862:	e0d1      	b.n	10041a08 <__aeabi_dadd+0x450>
10041864:	18ba      	adds	r2, r7, r2
10041866:	42ba      	cmp	r2, r7
10041868:	41bf      	sbcs	r7, r7
1004186a:	1864      	adds	r4, r4, r1
1004186c:	427f      	negs	r7, r7
1004186e:	19e4      	adds	r4, r4, r7
10041870:	07e7      	lsls	r7, r4, #31
10041872:	0852      	lsrs	r2, r2, #1
10041874:	4317      	orrs	r7, r2
10041876:	0864      	lsrs	r4, r4, #1
10041878:	0006      	movs	r6, r0
1004187a:	e721      	b.n	100416c0 <__aeabi_dadd+0x108>
1004187c:	482e      	ldr	r0, [pc, #184]	; (10041938 <__aeabi_dadd+0x380>)
1004187e:	4285      	cmp	r5, r0
10041880:	d100      	bne.n	10041884 <__aeabi_dadd+0x2cc>
10041882:	e093      	b.n	100419ac <__aeabi_dadd+0x3f4>
10041884:	001d      	movs	r5, r3
10041886:	e6d0      	b.n	1004162a <__aeabi_dadd+0x72>
10041888:	0029      	movs	r1, r5
1004188a:	3e1f      	subs	r6, #31
1004188c:	40f1      	lsrs	r1, r6
1004188e:	2b20      	cmp	r3, #32
10041890:	d100      	bne.n	10041894 <__aeabi_dadd+0x2dc>
10041892:	e08d      	b.n	100419b0 <__aeabi_dadd+0x3f8>
10041894:	2240      	movs	r2, #64	; 0x40
10041896:	1ad3      	subs	r3, r2, r3
10041898:	409d      	lsls	r5, r3
1004189a:	432f      	orrs	r7, r5
1004189c:	1e7d      	subs	r5, r7, #1
1004189e:	41af      	sbcs	r7, r5
100418a0:	2400      	movs	r4, #0
100418a2:	430f      	orrs	r7, r1
100418a4:	2600      	movs	r6, #0
100418a6:	e744      	b.n	10041732 <__aeabi_dadd+0x17a>
100418a8:	002b      	movs	r3, r5
100418aa:	0008      	movs	r0, r1
100418ac:	3b20      	subs	r3, #32
100418ae:	40d8      	lsrs	r0, r3
100418b0:	0003      	movs	r3, r0
100418b2:	2d20      	cmp	r5, #32
100418b4:	d100      	bne.n	100418b8 <__aeabi_dadd+0x300>
100418b6:	e07d      	b.n	100419b4 <__aeabi_dadd+0x3fc>
100418b8:	2040      	movs	r0, #64	; 0x40
100418ba:	1b45      	subs	r5, r0, r5
100418bc:	40a9      	lsls	r1, r5
100418be:	430a      	orrs	r2, r1
100418c0:	1e51      	subs	r1, r2, #1
100418c2:	418a      	sbcs	r2, r1
100418c4:	2100      	movs	r1, #0
100418c6:	431a      	orrs	r2, r3
100418c8:	e6c7      	b.n	1004165a <__aeabi_dadd+0xa2>
100418ca:	2e00      	cmp	r6, #0
100418cc:	d050      	beq.n	10041970 <__aeabi_dadd+0x3b8>
100418ce:	4e1a      	ldr	r6, [pc, #104]	; (10041938 <__aeabi_dadd+0x380>)
100418d0:	42b0      	cmp	r0, r6
100418d2:	d057      	beq.n	10041984 <__aeabi_dadd+0x3cc>
100418d4:	2680      	movs	r6, #128	; 0x80
100418d6:	426b      	negs	r3, r5
100418d8:	4699      	mov	r9, r3
100418da:	0436      	lsls	r6, r6, #16
100418dc:	4334      	orrs	r4, r6
100418de:	464b      	mov	r3, r9
